:1003020073696E00736177007472690072656300CD
:10031200574156453A20202020563A202020207668
:1003220000465245513A202020485A2020202020C1
:100332002000808386898C8F9295989B9EA2A5A788
:10034200AAADB0B3B6B9BCBEC1C4C6C9CBCED0D3B8
:10035200D5D7DADCDEE0E2E4E6E8EAEBEDEEF0F156
:10036200F3F4F5F6F8F9FAFAFBFCFDFDFEFEFEFFEA
:10037200FFFFFFFFFFFFFEFEFEFDFDFCFBFAFAF9A9
:10038200F8F6F5F4F3F1F0EEEDEBEAE8E6E4E2E09C
:10039200DEDCDAD7D5D3D0CECBC9C6C4C1BEBCB998
:1003A200B6B3B0ADAAA7A5A29E9B9895928F8C8951
:1003B2008683807C797673706D6A6764615D5A5852
:1003C20055524F4C494643413E3B393634312F2C2E
:1003D2002A282523211F1D1B1917151412110F0E70
:1003E2000C0B0A09070605050403020201010100BC
:1003F20000000000000001010102020304050506DD
:1004020007090A0B0C0E0F1112141517191B1D1FC9
:10041200212325282A2C2F313436393B3E414346AD
:10042200494C4F5255585A5D6164676A6D707376D4
:02043200797CD3
:100B1E000E5500640000000002000000320100804B
:090B2E00074E0000000AFF05C794
:100A1900785BE6A2E713FE08E613FFEE3395E0FDE7
:100A2900FC7857120286C30202567D0AAE2FAF30F8
:100A39007C000200D62430F6AE31AF327C007D0A4C
:100A49000200D6FE7C001200818E2F8F302278574B
:080A590012027A780102026723
:100680007855E6F52F08E6F530785EE6F53108E6B0
:10069000F53208E6B4010C7536FF7537037538027C
:1006A00012071F7860E6B4020C7536FF75370375C4
:1006B000380612071F7860E6B4030C7536FF7537ED
:1006C0000375380A1207297860E6B4040C7536FF02
:1006D00075370375380E1207297D64120A35EF2429
:1006E000307878F6AE2FAF307C007D641200D68C67
:1006F0002F8D30120A33EF24307879F6120A338CBA
:100700002F8D30E530787A120A3EEF786F120A3E6C
:0E0710008C318D327870762EE532243008F66A
:10071E00227B007A007968120B8A227B007A00799C
:05072E0068120B8A2295
:100A6100120DC57536FF7537037538127B007A0094
:100A71007963120B8A7536FF7537037538237B004E
:100A81007A007973120B8A1206807B007A007963EF
:100A9100E4FDFF120AE37B007A0079737D01E4FF34
:060AA100120AE3020DC27F
:100B5700EF7F007D05120A4CE5302405FFE4352FB1
:100B67007D0A120A4CD3E53094FFE52F9400400626
:100B7700752F007530FF120DC5AD307F49120C9BE4
:030B8700020DC29A
:1005C700E4F52E7D05FCFFFE120865EF64024E7010
:1005D7000E752E01786006E6D39404400276017FFB
:1005E70001120672701E752E01785606E618700104
:1005F70006D37856E6946418E664809480400576BE
:10060700000876017F02120672701E752E01785659
:10061700E61618700116C37856E6940118E664804A
:100627009480500576000876647D027C007F037E07
:1006370000120865EF64024E7025752E01785F067B
:10064700E618700106D3785FE6943218E694004006
:1006570004E4F608F6785EE6FE08E6FF120B57E5B7
:0A0667002EB40106120A61E4F52E1C
:0F067100227D027C007E00120865EF64024E229B
:100434007857120286C0007855E6FE08E6FFEE33D0
:1004440095E0FDFCD000EB2FFFEA3EFEE93DFDE820
:100454003CFC7857120293785BE6FE08E6120A2306
:10046400402E785712027AC006C007785BE6FE0871
:10047400E6FBAA06EA3395E0F9F8D007D006C3EF05
:100484009BFFEE9AFEED99FDEC98FC7857120293CF
:100494007860E6B40112120A5774342FF58274039B
:1004A4003EF583E493785DF67860E6B40207120AB9
:1004B40057785DA6077860E66403701A120A197803
:1004C40057500912027A785DA607800A12027AC38D
:1004D40074FF9F785DF67860E6B4040F120A195031
:1004E40006E4785DF68004785D76FF785DE6FD7F4E
:0D04F40048120C9B7B007A00794E020D3BF4
:100AA700D297120C047BFF7A047934120DBB120D16
:100AB7001D120A61785EE6FE08E6FF120B57C29721
:100AC7007B007A00794E120CAFEF64014E70F1781B
:0C0AD7005208E6FA08E6F91202BF80E4BB
:020BB7008F4C61
:100BB9008D4D7B007A00794D753700753801120922
:100BC9005DE4F54DFB7A00794DF548754901AF4C67
:050BD9001208E3AF4D1E
:010BDE0022F4
:100C9B007531408D327B007A0079317537007538AC
:040CAB000202095DDB
:050B3700031C0000009A
:100D1D00758AF0758CD8438901D2A9D2AFD28C22B5
:030DC200D2A92291
:030DC500C2A9229E
:070DBB008B1C8A1D891E221A
:03000B000209BE29
:1009BE00C0E0C0F0C083C082C0D075D000C000C0FF
:1009CE0001C002C003C004C005C006C007C2AF7597
:1009DE008AF0758CD8AB1CAA1DA91EAE02AF01EF12
:1009EE004E600B89828A83AF811202C38F81D2AF90
:1009FE00D007D006D005D004D003D002D001D0004D
:0B0A0E00D0D0D082D083D0F0D0E032F6
:100CE800900002120137FFAEF012010CC39FE5F02D
:020CF8009E223A
:0D0D3B00120CE85007E475F00112016F2260
:100CAF00120CE8E4400AF5F01201F47E007F0122F5
:030CBF00FEFF2213
:100D0C0020202020202020202020202020202020D7
:010D1C0000D6
:040B3C00028303E845
:100C4800D2A67590FFD2A7120C86AB90C2A7120C41
:100C580086AF0322C2A68F90D2A7120C86C2A72203
:100CFA007C007D0D120081EF1FAC0670011E4C7046
:010D0A00F6F2
:010D0B0022C5
:100C86007883E6FE08E6FFD3940AEE6480948040FB
:050C960003120CFA221C
:07000300E4FBC2A5120C484A
:01000A0022D3
:070D9B00E4FBD2A5120C4895
:010DA200222E
:0B0CC200EF2480FFED75F040A42FFF31
:080CCD00C2A5120C5C020C86AA
:080DA300D2A5120C5C020C86C3
:100C0400788376030876E87F08120CCD7F0C120CEB
:100C1400CD7F01120CCD7F38120CCDE47883F60819
:020C2400F622B6
:080DAB00120CC2AF03020DA3FC
:060AE3008B2F8A308931DF
:100AE900E4F532F533120CC2AB2FAA30A9318533A4
:100AF9008285328312000EFF601AD3E533940FE525
:100B09003264809480500D120DA30533E53370D8FB
:040B1900053280D44D
:010B1D0022B5
:0D0D4800AD077BFF7A0D790CE4FF020AE392
:0A0501008B218A2289238C248D258A
:10050B00E4F526F527F528F529F52AF52B752C2783
:10051B00752D10C3E524648094805010742D120047
:10052B003BC3E49525F525E49524F524E4F526F560
:10053B0027E5274526601CAE2CAF2D7C007D0A12CB
:10054B00006FAC24AD25CFCDCFCECCCE1200D68C48
:10055B00288D29AE28AF29AC2CAD2D1200D68E28B4
:10056B008F29C3E525952DE52C6480F8E52464805F
:10057B0098401AEF2430AB21AA22A923852B828520
:10058B002A8312004D052BE52B7002052AAE2CAFEA
:10059B002D7C007D0A1200D68E2C8F2D0527E5278A
:1005AB0070020526640545267087E5254524700BEA
:0B05BB00AB21AA22A923743012003BE0
:0105C6002212
:060B8A008B338A3489352B
:100B9000E4FFFEAB36AA37A9388F828E8312000E8F
:100BA0006014AB33AA34A9358F828E8312004D0FA7
:060BB000BF00010E80DD14
:010BB600221C
:080DB300120D557E007F0122A4
:0B0D6200D2B4D2B5C2B5C2B4D2B522E3
:0D0D5500C2B4C2B5D2B4D2B5C2B5D2B52277
:0E0D2D00C2B4EF24FF92B5D2B4C2B4D2B52244
:100CD500C200C2B4D2B5D2B4A2B59200C2B4D2B5E4
:020CE500A2006B
:010CE70022EA
:020C2600AE0717
:100C2800E4FDFCEE30E7047F018002E4FF120D2DA5
:0F0C3800EE25E0FE0DBD00010CED64084C70E4EC
:010C4700228A
:100BDF00E4FFFE7D07FC120CD5E433FEAB05A80342
:100BEF00088002C333D8FC4207ED1D70011CBCFF07
:040BFF00E5BDFFE26F
:010C030022CE
:100C6800E4FFFE120CD550130FBF00010ED3EF9412
:0D0C780064EE6480948040EB7F00227F01D9
:010C8500224C
:0608E3008B458A4689479F
:1008E900E4F54AF54B120D62EF25E0FF43070112CB
:1008F9000C26120C68EF7003FEFF22E4F54AF54B53
:10090900C3E54B9549E5486480F8E54A6480985009
:100919003F120BDFAB45AA46A947854B82854A831F
:10092900EF12004DE54924FFFFE54834FFFEC3E51A
:100939004B9FEE6480F8E54A6480985004E4FF8098
:10094900027F01120D2D054BE54B70B4054A80B0AD
:03095900120DB3C9
:01095C002278
:0A0733008F3B8D3C8B3D8A3E893FD1
:10073D00E4F542F543120D62E53B25E0FB5303FE64
:10074D001207CF7003FEFF22AF3C120C26120C686D
:10075D00EF7003FEFF22120D62E53B25E0FB430324
:10076D00011207CF7003FEFF22E4F542F543C3E506
:10077D00439541E5406480F8E542648098503F120E
:10078D000BDFAB3DAA3EA93F854382854283EF1225
:10079D00004DE54124FFFFE54034FFFEC3E5439FD7
:1007AD00EE6480F8E5426480985004E4FF80027F97
:1007BD0001120D2D0543E54370B4054280B0120DB5
:0107CD00B378
:0B07CE0022AF03120C26120C68EF2271
:06095D008B348A35893657
:10096300E4F539F53A120D62EF25E0FF5307FE1265
:100973000C26120C68EF7003FEFF22E4F539F53AFA
:10098300C3E53A9538E5376480F8E53964809850D3
:1009930026AB34AA35A936853A8285398312000EEF
:1009A300FF120C26120C68EF7003FEFF22053AE5D6
:0A09B3003A70CD053980C9120DB36A
:0109BD002217
:100B40001408FF0D770000FF0D800000FF0D8900E5
:060B500000FF0D92000001
:0A0D6D00AB31AA32A9339000032233
:090D7700D290A290E4FE33FF22A9
:090D8000D291A291E4FE33FF229E
:090D8900D292A292E4FE33FF2293
:090D9200D293A293E4FE33FF2288
:040865008C2F8D3017
:10086900EF75F005A42408F9E4FAFBF531F53289AE
:1008790033F53475350112029F1202BF8E348F355C
:10088900E53545347028120D6D120137FFAEF0EED3
:100899003395E0FDFCE47BFF7AFFF9F8D3120240BF
:1008A9004015120D6DE475F0011201A78009120DB2
:1008B9006DE4F5F0120213120D6D120137C3953074
:1008C900E5F0952F400F753400753502900003E46B
:0908D900F5F0120213AE34AF3544
:0108E20022F3
:030000000207D91B
:0C07D900787FE4F6D8FD758184020820CA
:10000E00BB010CE58229F582E5833AF583E02250A7
:10001E0006E92582F8E622BBFE06E92582F8E222F1
:0D002E00E58229F582E5833AF583E493220B
:10003B00BB010689828A83F0225002F722BBFE01A4
:02004B00F3229E
:10004D00F8BB010DE58229F582E5833AF583E8F0E9
:10005D00225006E92582C8F622BBFE05E92582C895
:02006D00F2227D
:10006F00EF8DF0A4A8F0CF8CF0A428CE8DF0A42EA5
:02007F00FE225F
:10008100BC000BBE0029EF8DF084FFADF022E4CC63
:10009100F875F008EF2FFFEE33FEEC33FCEE9DEC2C
:1000A100984005FCEE9DFE0FD5F0E9E4CEFD22ED72
:1000B100F8F5F0EE8420D21CFEADF075F008EF2FBC
:1000C100FFED33FD4007985006D5F0F222C398FDAD
:0500D1000FD5F0EA224A
:1000D600C2D5EC30E709B2D5E4C39DFDE49CFCEE45
:1000E60030E715B2D5E4C39FFFE49EFE120081C33C
:1000F600E49DFDE49CFC800312008130D507C3E437
:060106009FFFE49EFE22B3
:10010C00BB010A89828A83E0F5F0A3E022500687BE
:10011C00F009E71922BBFE07E3F5F009E319228980
:0B012C00828A83E493F5F074019322B3
:10013700BB0110E58229F582E5833AF583E0F5F006
:10014700A3E0225009E92582F886F008E622BBFEE3
:100157000AE92582F8E2F5F008E222E5832AF58329
:08016700E993F5F0A3E99322EE
:10016F00BB010789828A830202C5500B09C5F0279C
:10017F00F7C5F01937F722BBFE0D09F8E325F0F3A9
:10018F00C5F019E338F322F889828A837401932525
:08019F00F0C5F0F8E4933822EA
:1001A700BB010DC58229C582C5833AC5830202C535
:1001B7005011C58229F808E5F026F618F5F0E58212
:1001C70036F622BBFE11C58229F808E225F0F5F0C4
:1001D700F218E23582F222F8E58229F582E5832AD0
:0D01E700F58374019325F0F5F0E4933822C0
:1001F400BB010A89828A83F0E5F0A3F0225006F756
:0F02040009A7F01922BBFE06F3E5F009F3192252
:10021300F8BB0111E58229F582E5833AF583E8F01D
:10022300E5F0A3F0225009E92582C8F608A6F022DA
:0D023300BBFE09E92582C8F2E5F008F222C1
:10024000EB9FF5F0EA9E42F0E99D42F0EC6480C835
:0602500064809845F022D5
:10025600EB9FF5F0EA9E42F0E99D42F0E89C45F0FE
:010266002275
:10026700E8600FECC313FCED13FDEE13FEEF13FF75
:03027700D8F12299
:0C027A00E6FC08E6FD08E6FE08E6FF22B0
:0D028600E6FB08E6F908E6FA08E6CBF822E8
:0C029300ECF608EDF608EEF608EFF62297
:10029F00BB010789828A830202E45005E9F8020252
:1002AF00DBBBFE05E9F80202ED89828A830202F6C2
:0602BF008A838982E473CA
:1007E500020AA7E493A3F8E493A34003F68001F279
:1007F50008DFF48029E493A3F85407240CC8C33315
:10080500C4540F4420C8834004F456800146F6DFE3
:10081500E4800B0102040810204080900B1EE47E4A
:10082500019360BCA3FF543F30E509541FFEE493D8
:10083500A360010ECF54C025E060A840B8E493A39F
:10084500FAE493A3F8E493A3C8C582C8CAC583CACA
:10085500F0A3C8C582C8CAC583CADFE9DEE780BE82
:010B5600009E
:1002C500C5F0F8A3E028F0C5F0F8E58215827002C4
:0602D5001583E038F02261
:0902DB00E6FB08E6FA08E6F92248
:0902E400E0FBA3E0FAA3E0F9221B
:0902ED00E2FB08E2FA08E2F92242
:0C02F600E493FB740193FA740293F92264
:00000001FF
