:100A090044432D414320696E7665727465720032E4
:090A19003230562F3530485A00E6
:10078400022E0000146800000001000000010001B6
:1007940000010001000000010000027C0000067E50
:0F07A400003203E80000073000000001FF0609E3
:10060900787D06E618700106C3787DE6941418E62D
:10061900648094804004E4F608F6787CE6FA08E6FB
:10062900FB7C007D0AFFAE021200EEED25E0246896
:10063900F8E6F52E08E6F52F452E7006D2A0D2A1D0
:100649008015C3EB940AEA648094804006D2A0C264
:10065900A18004C2A0D2A17B007A00797E12084D44
:100669007B007A00797E120812EE4F24FF92A222B3
:090B07007B007A0079300209EE4E
:0100220022BB
:1007D300120A3B12098F7BFF7A0B7907120B341233
:1007E3000AA47BFF7A0A7909E4FDFF12087D7BFFE7
:1007F3007A0A79187D01E4FF12087D75600075613E
:0F080300007562007B007A0079301206DE80EC0F
:100AB6002020202020202020202020202020202030
:010AC600002F
:0407B300028403E8D1
:100A80007C007D0D120099EF1FAC0670011E4C70AA
:010A9000F66F
:010A91002242
:0E094900D2A57580FFD2A7120957AB80C2A7B6
:100957007884E6FE08E6FFD3940AEE64809480402C
:0509670003120A8022CA
:090AF300E4FBC2A6120949AF039D
:010AFC0022D7
:090AFD00E4FBD2A6120949AF0383
:010B060022CC
:0B09D300EF2480FFED75F040A42FFF23
:1009DE00C2A6C2A58F80D2A7120957C2A702095775
:100AD800D2A6C2A58F80D2A7120957C2A70209576A
:10098F00788476030876E87F081209DE7F0C120957
:10099F00DE7F011209DE7F381209DEE47884F60863
:0209AF00F6222E
:080003001209D3AF03020AD871
:06087D008B5D8A5E895FBD
:10088300E4F560F5611209D3AB5DAA5EA95F8561EA
:1008930082856083120026FF600D120AD80561E588
:0708A3006170E5056080E1D2
:0108AA00222B
:100A22007BFF7A0A79B6E4FDFF12087D7BFF7A0A22
:090A320079B67D01E4FF02087DA4
:100A3B00438920758DFD758BFDC29FD29ED29CE4A0
:090A4B00F587D2ACD2AFD28E22A5
:080B10008F993099FDC2992272
:060B3B00AE07120B1022B0
:060925008B1C8A1D891ED7
:10092B00E4FDFCAB1CAA1DA91E8D828C8312002634
:0D093B00FF600A120B3B0DBD00010C80E6B1
:01094800228C
:03002300020AE8E6
:0B0AE800309802C298209902C2993297
:1007B7001408FF0B180000FF0B1F0000FF0B26009B
:0607C70000FF0B2D0000F5
:070B1800A290E4FE33FF226E
:070B1F00A291E4FE33FF2266
:070B2600A292E4FE33FF225E
:070B2D00A293E4FE33FF2256
:040469008C508D51D5
:10046D00EF75F005A42408F9E4FAFBF552F553896C
:10047D0054F55575560112026E1202BE8E558F56E9
:10048D00E55645557034AB52AA53A954900003124A
:10049D00014FFFAEF0EE3395E0FDFCE47BFF7AFFFC
:1004AD00F9F8D31202584021AB52AA53A954900027
:1004BD0003E475F0011201BF800FAB52AA53A9548A
:1004CD00900003E4F5F012022BAB52AA53A95490FD
:1004DD00000312014FC39551E5F09550400F75552E
:1004ED0000755602900003E4F5F012022BAE55AFE5
:0104FD0056A8
:0104FE0022DB
:100812008B5D8A5E895F90000212014FFDACF0127F
:100822000124FFAEF01200877C007D641200EE907E
:10083200000412014FC39FEE6480F8E5F0648098D3
:0B0842004004E4FEFF227E007F012244
:10084D00900004E475F0011201BF90000212014FF7
:10085D00FFAEF090000412014FC39FEE6480F8E5E7
:10086D00F06480984009900004E4F5F012022B2208
:1009EE0090000212014FFFAEF0120124C39FE5F0FA
:0B09FE009E5007E475F00112018722F3
:1006DE008B5D8A5E895F90000212014FFFAEF012B1
:1006EE000124C39FE5F09E403BE4F5F012020CABF3
:1006FE005DAA5EA95F90000412028EE94A6025ABE6
:10070E0060AA61A962C003C002C001AB5DAA5EA966
:10071E005F90000412028E89828A83D001D002D0AB
:05072E00031202C222CB
:0A0301008B218A2289238C248D258C
:10030B00E4F526F527F528F529F52AF52B752C2785
:10031B00752D10C3E524648094805010742D120049
:10032B0053C3E49525F525E49524F524E4F526F54A
:10033B0027E5274526601CAE2CAF2D7C007D0A12CD
:10034B000087AC24AD25CFCDCFCECCCE1200EE8C1A
:10035B00288D29AE28AF29AC2CAD2D1200EE8E289E
:10036B008F29C3E525952DE52C6480F8E524648061
:10037B0098401AEF2430AB21AA22A923852B828522
:10038B002A83120065052BE52B7002052AAE2CAFD4
:10039B002D7C007D0A1200EE8E2C8F2D0527E52774
:1003AB0070020526640545267087E5254524700BEC
:0B03BB00AB21AA22A9237430120053CA
:0103C6002214
:0608AB008B578A588959A1
:1008B100E4FFFEAB5AAA5BA95C8F828E83120026ED
:1008C1006014AB57AA58A9598F828E831200650F05
:0608D100BF00010E80DDF6
:0108D70022FE
:060B41000000000000228C
:100A92007C007D14120099EF1FAC0670011E4C7091
:010AA200F65D
:010AA3002230
:100AC700D2A3D2A4120B41C2A4120B41C2A3D2A437
:010AD70022FC
:100A6D00C2A3C2A4D2A3120B41D2A4120B41C2A4A1
:030A7D00D2A422DE
:10000E00C2A3EF24FF92A4120B41D2A3120B41C242
:04001E00A3D2A422A3
:100A5400C200C2A3D2A4120B41D2A3120B41A2A47E
:080A64009200C2A3D2A4A2007B
:010A6C002267
:0209B100AE078F
:1009B300E4FDFCEE30E7047F018002E4FF12000E49
:0F09C300EE25E0FE0DBD00010CED64084C70E464
:0109D2002202
:10090000E4FFFE7D07FC120A54E433FEAB05A803A6
:10091000088002C333D8FC4207ED1D70011CBCFFE8
:04092000E5BDFFE250
:0109240022B0
:05096C00AF031209B108
:10097100E4FFFE120A5450130FBF00010ED3EF948F
:0D09810064EE6480948040EB7F00227F01D3
:01098E002246
:06058B008B418A42894306
:10059100E4F546F547120AC7EF25E0FF43070112CC
:1005A10009B1120971EF7003FEFF22E4F546F54728
:1005B100C3E5479545E5446480F8E5466480985075
:1005C1003F120900AB41AA42A94385478285468370
:1005D100EF120065E54524FFFFE54434FFFEC3E566
:1005E100479FEE6480F8E5466480985004E4FF80FC
:1005F100027F0112000E0547E54770B4054680B041
:07060100120A6D7E007F016B
:0106080022CF
:0A03C7008F378D388B398A3A893B55
:1003D100E4F53EF53F120AC7E53725E0FB5303FE7E
:1003E10012096CEF7003FEFF22AF381209B1120936
:1003F10071EF7003FEFF22120AC7E53725E0FB43C8
:10040100030112096CEF7003FEFF22E4F53EF53F94
:10041100C3E53F953DE53C6480F8E53E6480985036
:100421003F120900AB39AA3AA93B853F82853E8339
:10043100EF120065E53D24FFFFE53C34FFFEC3E517
:100441003F9FEE6480F8E53E6480985004E4FF80AD
:10045100027F0112000E053FE53F70B4053E80B0FA
:07046100120A6D7E007F010D
:010468002271
:060679008B498A4A894BFF
:10067F00E4F54EF54F120AC7EF25E0FF5307FE12C0
:10068F0009B1120971EF7003FEFF22E4F54EF54F29
:10069F00C3E54F954DE54C6480F8E54E6480985066
:1006AF0026AB49AA4AA94B854F82854E8312002655
:1006BF00FF1209B1120971EF7003FEFF22054FE51A
:0E06CF004F70CD054E80C9120A6D7E007F016E
:0106DD0022FA
:0208D8008F6629
:1008DA008D677B007A007967754C00754D011206A9
:1008EA0079E4F567FB7A007967F544754501AF66E7
:0508FA0012058BAF6741
:0108FF0022D6
:0507CD000363000000C1
:100AA400758A18758CFC438901D2A9D2AFC28CD245
:020AB4008C2292
:030B4700D2A9220E
:030B4A00C2A9221B
:070B34008B638A64896522CE
:03000B00020733B6
:10073300C0E0C0F0C083C082C0D075D000C000C08C
:1007430001C002C003C004C005C006C007C2AF7524
:100753008A18758CFCAA64A965AE02AF01EF4E60DE
:10076300031202BED2AFD007D006D005D004D00307
:10077300D002D001D000D0D0D082D083D0F0D0E04E
:010783003243
:030000000204FFF8
:0C04FF00787FE4F6D8FD75818502054683
:10002600BB010CE58229F582E5833AF583E022508F
:1000360006E92582F8E622BBFE06E92582F8E222D9
:0D004600E58229F582E5833AF583E49322F3
:10005300BB010689828A83F0225002F722BBFE018C
:02006300F32286
:10006500F8BB010DE58229F582E5833AF583E8F0D1
:10007500225006E92582C8F622BBFE05E92582C87D
:02008500F22265
:10008700EF8DF0A4A8F0CF8CF0A428CE8DF0A42E8D
:02009700FE2247
:10009900BC000BBE0029EF8DF084FFADF022E4CC4B
:1000A900F875F008EF2FFFEE33FEEC33FCEE9DEC14
:1000B900984005FCEE9DFE0FD5F0E9E4CEFD22ED5A
:1000C900F8F5F0EE8420D21CFEADF075F008EF2FA4
:1000D900FFED33FD4007985006D5F0F222C398FD95
:0500E9000FD5F0EA2232
:1000EE00C2D5EC30E709B2D5E4C39DFDE49CFCEE2D
:1000FE0030E715B2D5E4C39FFFE49EFE120099C30C
:10010E00E49DFDE49CFC800312009930D507C3E406
:06011E009FFFE49EFE229B
:10012400BB010A89828A83E0F5F0A3E022500687A6
:10013400F009E71922BBFE07E3F5F009E319228968
:0B014400828A83E493F5F0740193229B
:10014F00BB0110E58229F582E5833AF583E0F5F0EE
:10015F00A3E0225009E92582F886F008E622BBFECB
:10016F000AE92582F8E2F5F008E222E5832AF58311
:08017F00E993F5F0A3E99322D6
:10018700BB010789828A830202C4500B09C5F02785
:10019700F7C5F01937F722BBFE0D09F8E325F0F391
:1001A700C5F019E338F322F889828A83740193250D
:0801B700F0C5F0F8E4933822D2
:1001BF00BB010DC58229C582C5833AC5830202C41E
:1001CF005011C58229F808E5F026F618F5F0E582FA
:1001DF0036F622BBFE11C58229F808E225F0F5F0AC
:1001EF00F218E23582F222F8E58229F582E5832AB8
:0D01FF00F58374019325F0F5F0E4933822A8
:10020C00BB010A89828A83F0E5F0A3F0225006F73D
:0F021C0009A7F01922BBFE06F3E5F009F319223A
:10022B00F8BB0111E58229F582E5833AF583E8F005
:10023B00E5F0A3F0225009E92582C8F608A6F022C2
:0D024B00BBFE09E92582C8F2E5F008F222A9
:10025800EB9FF5F0EA9E42F0E99D42F0EC6480C81D
:0602680064809845F022BD
:10026E00BB010789828A830202E35005E9F8020284
:10027E00DABBFE05E9F80202EC89828A830202F5F6
:10028E00BB010DE58229F582E5833AF5830202E38F
:10029E005007E92582F80202DABBFE07E92582F84B
:1002AE000202ECE58229F582E5833AF5830202F536
:0602BE008A838982E473CB
:10050B000207D3E493A3F8E493A34003F68001F22C
:10051B0008DFF48029E493A3F85407240CC8C333F1
:10052B00C4540F4420C8834004F456800146F6DFC0
:10053B00E4800B0102040810204080900784E47EC5
:10054B00019360BCA3FF543F30E509541FFEE493B5
:10055B00A360010ECF54C025E060A840B8E493A37C
:10056B00FAE493A3F8E493A3C8C582C8CAC583CAA7
:10057B00F0A3C8C582C8CAC583CADFE9DEE780BE5F
:0107D2000026
:1002C400C5F0F8A3E028F0C5F0F8E58215827002C5
:0602D4001583E038F02262
:0902DA00E6FB08E6FA08E6F92249
:0902E300E0FBA3E0FAA3E0F9221C
:0902EC00E2FB08E2FA08E2F92243
:0C02F500E493FB740193FA740293F92265
:00000001FF
