:10086C00202020202020202020202020202020207C
:10087C0000706F7765722D6D61696E20413A007062
:10088C006F7765722D6D61696E20423A00706F77DB
:10089C0065722D6D61696E20433A00706F776572D9
:1008AC002D7374616E64627920413A00706F7765C4
:1008BC00722D7374616E64627920423A00706F77A6
:1008CC0065722D7374616E64627920433A006D61B8
:0908DC00696E206C6F6F700A0058
:100A51000A366ECC000000000000000001400107D2
:100A61002F00000014FF031A072800000001FF0BEC
:0A0A710043072100000064FF06D1D6
:0B0D9900AD07AC067F017E00020C3E9F
:0B0DA400AD07AC067F017E0002000ED0
:1005A1008E448F458D467C007D031200A0AC06ADC4
:1005B10007E4FFFE12000EAE44AF457C007D03123E
:1005C10000A0EF2401FDE43EFCE4FFFE12000EAEAC
:1005D10044AF457C007D031200A0EF2402FDE43E00
:1005E100FCE4FFFE12000EE5467014AE44AF45FC7C
:1005F1007D031200A0AC06AD07E4FFFE120C3EE540
:1006010046B40118AE44AF457C007D031200A0EF53
:100611002401FDE43EFCE4FFFE120C3EE546B4027B
:1006210018AE44AF457C007D031200A0EF2402FD0B
:0A063100E43EFCE4FFFE120C3E2242
:1004EF008B448A458946E4FDFC7F48120AF6AB44EB
:1004FF00AA45A946900002EF12007E7D017C007F85
:10050F0048120AF6AB44AA45A946900002EF120022
:10051F007E7D027C007F48120AF6AB44AA45A946AD
:10052F00900003EF12007EE4FDFC7F48120AF6AB49
:10053F0044AA45A946900004EF12007EE4FDFC7F1B
:10054F0049120AF6AB44AA45A946900005EF1200DE
:10055F007E7D017C007F49120AF6AB44AA45A9466D
:10056F00900005EF12007E7D027C007F49120AF693
:10057F00AB44AA45A946900006EF12007EE4FDFCAD
:10058F007F49120AF6AB44AA45A946900007EF022D
:02059F00007EDC
:10031A008B418A4289437547FF75480875496C7B4A
:10032A00007A007953120AC97547FF75480875495A
:10033A006C7B007A007965120AC9E540B4011D7523
:10034A0047FF75480875497D7B007A007953120A80
:10035A00C97B007A007965E53802040AE540B402EF
:10036A001D7547FF75480875498B7B007A007953DC
:10037A00120AC97B007A007965E53902040AE54068
:10038A00B4031C7547FF7548087549997B007A00C4
:10039A007953120AC97B007A007965E53A8061E5EA
:1003AA0040B4041C7547FF7548087549A77B007A55
:1003BA00007953120AC97B007A007965E53B8040CF
:1003CA00E540B4051C7547FF7548087549B87B00B8
:1003DA007A007953120AC97B007A007965E53C8074
:1003EA001FE540B406207547FF7548087549C97B63
:1003FA00007A007953120AC97B007A007965E53DD3
:10040A00FD7C001204297B007A007953E4FDFF1277
:0F041A000A9B7B007A0079657D01E4FF020A9B53
:100B43008B418A4289437D147C007F037E00120619
:100B53003BEF64024E700C0540E540C3940740032D
:040B630075400122B6
:1006D1008B418A4289437B007A0079361204EFE527
:1006E10039D395374005753E01800FE539C39536FD
:1006F1005005753E028003E4F53EAD3EE4FFFE1277
:1007010005A1E53CD395374005753F01800FE53CD8
:10071100C395365005753F028003E4F53FAD3F7F39
:10072100017E001205A1E53E6014E53F6010E4FF83
:10073100FE120DA47F017E00120DA4C29422E53E9B
:10074100700FFFFE120D997F017E00120DA4D2944D
:1007510022E53F700EFFFE120DA47F017E00120DF7
:0407610099D2942273
:100BED007B007A00792F120C087B007A007928128D
:0B0BFD000C087B007A007921020C0834
:100D0D007C007D0D1200B2EF1FAC0670011E4C7001
:010D1D00F6DF
:010D1E0022B2
:100C8900AB07AA06EB1BAE0270011A4E60097FE89A
:070C99007E03120D0D80ED3A
:010CA0002231
:1008E5007DFFE4FFFE120DC37DFF7F017E00120D2B
:1008F500C3120BCD120CD07BFF7A0B79ED120DD301
:10090500120D317BFF7A0879DA120CB9754400753E
:1009150045007546007B007A0079281209AB7544BD
:10092500007545007546007B007A00792F1209ABEA
:100935007544007545007546007B007A00792112E3
:0409450009AB80BFBB
:100CD000759850438920E4F587758DFD758BFDD29D
:060CE000ACD2AFD28E225F
:080003008F993099FDC299228A
:030E0100020003E9
:100CB900C2AF120026FF600C120E01740129F9E47B
:070CC9003AFA80EED2AF22DF
:03002300020E04C6
:030E0400C298325F
:020AF6008F4728
:100AF8008D487B007A007948754D00754E011209C2
:100B080049E4F548FB7A007948F54D754E01AF4741
:050B18001207F1AF48D7
:010B1D0022B5
:030D1F00120DFCB6
:0F0D2200EF4E7002D2A0EF64014E7002D2A122F8
:050DFC00C2A0C2A1220B
:080DC300120D1F8DB0020DFCA2
:10000E00120D1FAF057401A807088002C333D8FC78
:05001E0042B0020DFCE0
:100C3E00120DFC120D22AF057401A807088002C325
:090C4E0033D8FCF452B0020DFC95
:050A7B00031C00000057
:100D3100758AF0758CD8438901D2A9D2AFC28CD201
:020D41008C2202
:070DD3008B1C8A1D891E2202
:03000B00020A00E6
:100A0000C0E0C0F0C083C082C0D075D000C000C0BC
:100A100001C002C003C004C005C006C007C2AF7554
:100A20008AF0758CD8AA1DA91EAE02AF01EF4E60E8
:100A3000031202D7D2AFD007D006D005D004D0031E
:100A4000D002D001D000D0D0D082D083D0F0D0E07E
:010A50003273
:100C0800900002120168FFAEF012013DC39FE5F0AB
:0B0C18009E5007E475F0011201A022BD
:1009AB008B418A428943900002120168FFAEF0121C
:1009BB00013DC39FE5F09E403BE4F5F0120225ABF1
:1009CB0041AA42A9439000041202A7E94A6025AB51
:1009DB0044AA45A946C003C002C001AB41AA42A923
:1009EB00439000041202A789828A83D001D002D0DF
:0509FB00031202DB22E3
:100D6700202020202020202020202020202020207C
:010D7700007B
:040A8000025103E834
:100D43007C007D0D1200B2EF1FAC0670011E4C70CB
:010D5300F6A9
:010D5400227C
:100CA100AB07AA06EB1BAE0270011A4E60097FE882
:070CB1007E03120D4380EDEC
:010CB8002219
:0E0B6700D2A57580FFD2A7120B75AB80C2A776
:100B7500D3E552940AE551648094804007AF52AEA4
:050B850051120D432296
:090DAF00E4FBC2A6120B67AF03BE
:010DB8002218
:090DB900E4FBD2A6120B67AF03A4
:010DC200220E
:0B0C2300EF2480FFED75F040A42FFFD0
:100C2E00C2A6C2A58F80D2A7120B75C2A7020B75E2
:100D8900D2A6C2A58F80D2A7120B75C2A7020B7576
:100BCD007551037552E87F08120C2E7F0C120C2EF6
:100BDD007F01120C2E7F38120C2EE4F551F55222A6
:080DCB00120C23AF03020D8995
:060A9B008B448A458946E8
:100AA100E4F547F548120C23AB44AA45A94685480D
:100AB1008285478312003FFF600D120D890548E5CD
:070AC1004870E5054780E1E4
:010AC800220B
:100C57007BFF7A0D7967E4FDFF120A9B7BFF7A0D14
:090C670079677D01E4FF020A9B9C
:0A0429008B448A4589468C478D48B4
:10043300E4F549F54AF54BF54CF54DF54E754F2767
:10044300755010C3E547648094805010742D1200DA
:100453006CC3E49548F548E49547F547E4F549F559
:100463004AE54A4549601CAE4FAF507C007D0A12F5
:1004730000A0AC47AD48CFCDCFCECCCE1201078C78
:100483004B8D4CAE4BAF4CAC4FAD501201078E4B66
:100493008F4CC3E5489550E54F6480F8E547648089
:1004A30098401AEF2430AB44AA45A946854E82856D
:1004B3004D8312007E054EE54E7002054DAE4FAFE3
:1004C300507C007D0A1201078E4F8F50054AE54A82
:1004D30070020549640545497087E5484547700B37
:0B04E300AB44AA45A946743012006C1F
:0104EE0022EB
:060AC9008B448A458946BA
:100ACF00E4FFFEAB47AA48A9498F828E8312003FED
:100ADF006014AB44AA45A9468F828E8312007E0F05
:060AEF00BF00010E80DDD6
:010AF50022DE
:100A84001408FF0DDA0000FF0DE10000FF0DE8007F
:060A940000FF0DEF000061
:070DDA00A290E4FE33FF22AA
:070DE100A291E4FE33FF22A2
:070DE800A292E4FE33FF229A
:070DEF00A293E4FE33FF2292
:04063B008C448D4519
:10063F00EF75F005A42408F9E4FAFBF546F54789B0
:10064F0048F549754A011202871202D78E498F4A1F
:10065F00E54A45497034AB46AA47A94890000312B2
:10066F000168FFAEF0EE3395E0FDFCE47BFF7AFF0F
:10067F00F9F8D31202714021AB46AA47A94890005E
:10068F0003E475F0011201D8800FAB46AA47A948C1
:10069F00900003E4F5F0120244AB46AA47A9489034
:1006AF000003120168C39545E5F09544400F754965
:1006BF0000754A02900003E4F5F0120244AE49AF10
:0106CF004AE0
:0106D0002207
:060DF600000000000022D5
:100D55007C007D141200B2EF1FAC0670011E4C70B2
:010D6500F697
:010D6600226A
:100D7800D2A3D2A4120DF6C2A4120DF6C2A3D2A415
:010D88002248
:100CFA00C2A3C2A4D2A3120DF6D2A4120DF6C2A4A4
:030D0A00D2A4224E
:100CE600C2A3EF24FF92A4120DF6D2A3120DF6C2F0
:040CF600A3D2A422BF
:100C7000C200C2A3D2A4120DF6D2A3120DF6A2A4F2
:080C80009200C2A3D2A4A2005D
:010C88002249
:020B8A00AE07B4
:100B8C00E4FDFCEE30E7047F018002E4FF120CE68A
:0F0B9C00EE25E0FE0DBD00010CED64084C70E489
:010BAB002227
:100B1E00E4FFFE7D07FC120C70E433FEAB05A80368
:100B2E00088002C333D8FC4207ED1D70011CBCFFC8
:040B3E00E5BDFFE230
:010B42002290
:030BAC00120B8A9F
:100BAF00E4FFFE120C7050130FBF00010ED3EF9431
:0D0BBF0064EE6480948040EB7F00227F0193
:010BCC002206
:0607F1008B4A8A4B894C83
:1007F700E4F54FF550120D78EF25E0FF430701129E
:100807000BACEF7003FEFF22E4F54FF550C3E55044
:10081700954EE54D6480F8E54F648098503F120B84
:100827001EAB4AAA4BA94C855082854F83EF120015
:100837007EE54E24FFFFE54D34FFFEC3E5509FEEF6
:100847006480F8E54F6480985004E4FF80027F01DC
:10085700120CE60550E55070B4054F80B0120CFA43
:040867007E007F018F
:01086B00226A
:060949008B4A8A4B894C29
:10094F00E4F54FF550120D78EF25E0FF5307FE1237
:10095F000BACEF7003FEFF22E4F54FF550C3E550EB
:10096F00954EE54D6480F8E54F6480985026AB4A6C
:10097F00AA4BA94C855082854F8312003FFF120B63
:10098F008A120BAFEF7003FEFF220550E55070CDBA
:0B099F00054F80C9120CFA7E007F019A
:0109AA00222A
:030000000207658F
:0C076500787FE4F6D8FD7581760207ACC1
:10002600BB010689828A83E0225002E722BBFE02D8
:09003600E32289828A83E493220B
:10003F00BB010CE58229F582E5833AF583E0225076
:10004F0006E92582F8E622BBFE06E92582F8E222C0
:0D005F00E58229F582E5833AF583E49322DA
:10006C00BB010689828A83F0225002F722BBFE0173
:02007C00F3226D
:10007E00F8BB010DE58229F582E5833AF583E8F0B8
:10008E00225006E92582C8F622BBFE05E92582C864
:02009E00F2224C
:1000A000EF8DF0A4A8F0CF8CF0A428CE8DF0A42E74
:0200B000FE222E
:1000B200BC000BBE0029EF8DF084FFADF022E4CC32
:1000C200F875F008EF2FFFEE33FEEC33FCEE9DECFB
:1000D200984005FCEE9DFE0FD5F0E9E4CEFD22ED41
:1000E200F8F5F0EE8420D21CFEADF075F008EF2F8B
:1000F200FFED33FD4007985006D5F0F222C398FD7C
:050102000FD5F0EA2218
:10010700C2D5EC30E709B2D5E4C39DFDE49CFCEE13
:1001170030E715B2D5E4C39FFFE49EFE1200B2C3D9
:10012700E49DFDE49CFC80031200B230D507C3E4D4
:060137009FFFE49EFE2282
:10013D00BB010A89828A83E0F5F0A3E0225006878D
:10014D00F009E71922BBFE07E3F5F009E31922894F
:0B015D00828A83E493F5F07401932282
:10016800BB0110E58229F582E5833AF583E0F5F0D5
:10017800A3E0225009E92582F886F008E622BBFEB2
:100188000AE92582F8E2F5F008E222E5832AF583F8
:08019800E993F5F0A3E99322BD
:1001A000BB010789828A830202DD500B09C5F02753
:1001B000F7C5F01937F722BBFE0D09F8E325F0F378
:1001C000C5F019E338F322F889828A8374019325F4
:0801D000F0C5F0F8E4933822B9
:1001D800BB010DC58229C582C5833AC5830202DDEC
:1001E8005011C58229F808E5F026F618F5F0E582E1
:1001F80036F622BBFE11C58229F808E225F0F5F093
:10020800F218E23582F222F8E58229F582E5832A9E
:0D021800F58374019325F0F5F0E49338228E
:10022500BB010A89828A83F0E5F0A3F0225006F724
:0F02350009A7F01922BBFE06F3E5F009F3192221
:10024400F8BB0111E58229F582E5833AF583E8F0EC
:10025400E5F0A3F0225009E92582C8F608A6F022A9
:0D026400BBFE09E92582C8F2E5F008F22290
:10027100EB9FF5F0EA9E42F0E99D42F0EC6480C804
:0602810064809845F022A4
:10028700BB010789828A830202FC5005E9F8020252
:10029700F3BBFE05E9F802030589828A8302030E90
:1002A700BB010DE58229F582E5833AF5830202FC5D
:1002B7005007E92582F80202F3BBFE07E92582F819
:1002C700020305E58229F582E5833AF58302030EE9
:0602D7008A838982E473B2
:100771000208E5E493A3F8E493A34003F68001F2B1
:1007810008DFF48029E493A3F85407240CC8C33389
:10079100C4540F4420C8834004F456800146F6DF58
:1007A100E4800B0102040810204080900A51E47E8D
:1007B100019360BCA3FF543F30E509541FFEE4934D
:1007C100A360010ECF54C025E060A840B8E493A314
:1007D100FAE493A3F8E493A3C8C582C8CAC583CA3F
:1007E100F0A3C8C582C8CAC583CADFE9DEE780BEF7
:010A9A00005B
:1002DD00C5F0F8A3E028F0C5F0F8E58215827002AC
:0602ED001583E038F02249
:0902F300E6FB08E6FA08E6F92230
:0902FC00E0FBA3E0FAA3E0F92203
:09030500E2FB08E2FA08E2F92229
:0C030E00E493FB740193FA740293F9224B
:00000001FF
