:10091C0020202020202020202020202020202020CB
:10092C0000706C6561736520696E7075743A00694E
:10093C006E7075743A0077656C636F6D6521007726
:10094C006172696E6721616C61726D00627574749D
:10095C006F6E206C6F636B65642100627574746FCD
:0D096C006E5F6465616C0A00313233340047
:100A6B0006150000000000000114010783000000C0
:100A7B0014FF030A077C00000002FF066606A800AD
:100A8B003200020000074D00000001FF0C5B07AEB7
:100A9B0000000064FF0B3607A10000000AFF076B84
:060AB5008B248A2589262E
:100ABB00E4FFFEC3EF952BE52A6480F8EE64809883
:100ACB005029AB27AA28A9298F828E8312003FFDBC
:100ADB00AB24AA25A9268F828E8312003F6D60045A
:0F0AEB00E4FEFF220FBF00010E80C87E007F01D6
:010AFA0022D9
:060A1F008B248A258926C4
:100A2500E4FFFEAB24AA25A926900001120168FD6A
:100A3500C3EF9DE5F06480F8EE6480985019E924D1
:100A450003F9E43AFAE92FF9EA3EFA742A12006C3E
:100A55000FBF00010E80CCAB24AA25A9269000016A
:060A6500E4F5F00202447A
:10030A008B218A2289237527FF75280975291C7B69
:10031A00007A007954120C2E7527FF752809752961
:10032A001C7B007A007968120C2EE514B4010B7557
:10033A0027FF75280975292D8053E5146402702F4B
:10034A007527FF75280975293BFB7A007954120C29
:10035A002E75270075280075298D7B007A00795C37
:10036A00120C2E7B007A007968AD16AC15804AE52E
:10037A0014B4030B7527FF752809752942800EE509
:10038A0014B405147527FF75280975294B7B007A63
:10039A00007954120C2E8028E514B406237527FF21
:1003AA007528097529587B007A007954120C2E7B1E
:1003BA00007A007968AD1AAC191203E3786D767386
:1003CA007B007A007954E4FDFF120BD37B007A009C
:0903DA0079687D01E4FF020BD3F8
:100666008B218A228923E51A45197009120D85788E
:100676008AA6078004E4788AF67BFF7A09796712EE
:100686000DD27B007A00798D120DD2788AE6FF6052
:1006960017080806E618860470010614248DF8A6C5
:1006A60007E4788AF67514027527007528007529FF
:1006B60008788BE6F52A08E6F52B7B007A00798D1B
:1006C600120AB5EF4E7008FB7A00798A020A1FC338
:1006D600788CE6940418E6648094804009750C00D2
:0706E600750D0175140322DC
:100C5B007B007A0079A8120BA3D3E50F9400E50E65
:100C6B00648094804010D3E5189400E51764809459
:090C7B00804003C2A222D2A22291
:100B3600E514B402080516E51670020515D3E51886
:100B46009400E517648094804008E5181518700233
:100B56001517D3E51A9400E519648094804008E5DA
:080B66001A151A70021519227C
:10076B00E514B40312E4F515F516F50EF50FF517B0
:10077B00F518F519F51A22D3E516941EE5156480C4
:10078B0094804012050FE50F7002050EE4F515F588
:10079B0016F51775183CC3E50F9403E50E648094AA
:1007AB0080400B751901751A2CE4F50EF50FD3E586
:1007BB00189400E517648094804005751405800338
:1007CB00751402D3E51A9400E519648094804003F4
:0407DB007514062269
:100C01007B007A007983120D6A7B007A00797C126D
:100C11000D6A7B007A00794D120D6A7B007A0079AA
:0D0C2100AE120D6A7B007A0079A1020D6A07
:0100220022BB
:100B6E007B007A007908752500752604E4FF120EC5
:100B7E0048C3E508648094B95008E508648094B0D1
:100B8E0050127527FF7528097529747B007A007934
:050B9E0008120C2E22DC
:100E6C007B007A007908753600753704E4FF0208B8
:010E7C005025
:1007DF00120DE9120CEF7BFF7A0C7901120ECB127E
:1007EF000E24120B6E7524007525007526007B00F4
:1007FF007A00798312097975240075250075260012
:10080F007B007A00797C12097975240075250075B3
:10081F0026007B007A00794D120979752400752521
:10082F00007526007B007A0079AE120979752400D5
:10083F007525007526007B007A0079A11209798051
:01084F00A404
:100E7D002020202020202020202020202020202065
:010E8D000064
:040AAB0002B503E8A5
:100E12007C007D0D1200B2EF1FAC0670011E4C70FB
:010E2200F6D9
:010E230022AC
:0E0CA900D2A57580FFD2A7120CB7AB80C2A7F0
:100CB70078B5E6FE08E6FFD3940AEE648094804098
:050CC70003120E1222D1
:090EAF00E4FBC2A6120CA9AF037A
:010EB8002217
:090EB900E4FBD2A6120CA9AF0360
:010EC200220D
:0B0D4F00EF2480FFED75F040A42FFFA3
:100D5A00C2A6C2A58F80D2A7120CB7C2A7020CB72F
:100E9F00D2A6C2A58F80D2A7120CB7C2A7020CB7D9
:100CEF0078B576030876E87F08120D5A7F0C120D3F
:100CFF005A7F01120D5A7F38120D5AE478B5F60853
:020D0F00F622CA
:08000300120D4FAF03020E9F26
:060BD3008B248A2589260F
:100BD900E4F527F528120D4FAB24AA25A926852867
:100BE9008285278312003FFF600D120E9F0528E5BD
:070BF9002870E5052780E1EB
:010C000022D1
:100DA0007BFF7A0E797DE4FDFF120BD37BFF7A0E79
:090DB000797D7D01E4FF020BD303
:100DE900759850438920E4F587758DFD758BFDD283
:060DF900ACD2AFD28E2245
:080EC3008F993099FDC29922BC
:030ED800020EC344
:100DD200C2AF120026FF600C120ED8740129F9E48A
:070DE2003AFA80EED2AF22C5
:03002300020EDBEF
:030EDB00C2983288
:050AAF00031B00000024
:100E2400758AF0758CD8438901D2A9D2AFC28CD20D
:020E34008C220E
:070ECB008B1B8A1C891D220C
:03000B000209CE19
:1009CE00C0E0C0F0C083C082C0D075D000C000C0EF
:1009DE0001C002C003C004C005C006C007C2AF7587
:1009EE008AF0758CD8AA1CA91DAE02AF01EF4E601D
:1009FE00031202C7D2AFD007D006D005D004D00361
:100A0E00D002D001D000D0D0D082D083D0F0D0E0B0
:010A1E0032A5
:100D6A00900002120168FFAEF012013DC39FE5F048
:0B0D7A009E5007E475F0011201A0225A
:100979008B218A228923900002120168FFAEF012AE
:10098900013DC39FE5F09E403BE4F5F0120225AB23
:1009990021AA22A923900004120271E94A6025AB19
:1009A90024AA25A926C003C002C001AB21AA22A9F5
:1009B9002390000412027189828A83D001D002D067
:0509C900031202CB2225
:0A03E3008B248A2589268C278D289B
:1003ED00E4F529F52AF52BF52CF52DF52E752F278E
:1003FD00753010C3E527648094805010742D120061
:10040D006CC3E49528F528E49527F527E4F529F53F
:10041D002AE52A4529601CAE2FAF307C007D0A12DB
:10042D0000A0AC27AD28CFCDCFCECCCE1201078CFE
:10043D002B8D2CAE2BAF2CAC2FAD301201078E2B8C
:10044D008F2CC3E5289530E52F6480F8E52764806F
:10045D0098401AEF2430AB24AA25A926852E828533
:10046D002D8312007E052EE52E7002052DAE2FAFC9
:10047D00307C007D0A1201078E2F8F30052AE52A68
:10048D0070020529640545297087E5284527700BFD
:0B049D00AB24AA25A926743012006CC5
:0104A8002231
:060C2E008B248A258926B3
:100C3400E4FFFEAB27AA28A9298F828E8312003FE6
:100C44006014AB24AA25A9268F828E8312007E0FFE
:060C5400BF00010E80DD6F
:010C5A002277
:100D8500E4F524851F1E12054B8F1FE51F7009E52D
:0A0D95001E6005F524E4F51EAF24EE
:010D9F002231
:100E36007C007D0D1200B2EF1FAC0670011E4C70D7
:010E4600F6B5
:010E47002288
:100D3300AB07AA06D3EB9400EA9400400E7FE87E4B
:0B0D430003120E36EB1B70EC1A80E967
:010D4E002282
:10054B00E4F52575900F7F0AFE120D33A990530128
:10055B000F7590F07F0A7E00120D33AF905307F0AA
:10056B00E94F1202A105A47705A97B05AE7D05D144
:10057B007E05B3B705B8BB05BDBD05D1BE05C2D75A
:10058B0005C7DB05CCDD05D1DE05D1E705D1EB05D4
:10059B00D1ED05D1EE000005D4752537802B7525DF
:1005AB003880267525398021752534801C752535B5
:1005BB0080177525368012752531800D7525328093
:0E05CB000875253380037525207590FFAF2538
:0105D90022FF
:100AFB008B4A8A4B894C900002120168FDACF012B4
:100B0B00013DFFAEF01200A07C007D641201079046
:100B1B000004120168C39FEE6480F8E5F0648098CE
:0B0B2B004004E4FEFF227E007F012258
:100BA300900004E475F0011201D89000021201686C
:100BB300FFAEF0900004120168C39FEE6480F8E575
:100BC300F06480984009900004E4F5F01202442296
:080850008F328B338A348935A5
:10085800E4F538F539853638853739C3E5386480A5
:100868009480402AAB33AA34A935853982853883E8
:1008780012003FFFE5392401FDE435388D82F58308
:10088800EF12007EE539153970D1153880CDAB33BC
:10089800AA34A935E53212006CAB33AA34A935E580
:0F08A800372401F547E43536F5467F500208B78F
:020E4800AD07F4
:100E4A00E4F527F52885252E85262F7F500204A94B
:060ED200000000000022F8
:100E5A007C007D141200B2EF1FAC0670011E4C70AC
:010E6A00F691
:010E6B002264
:100E8E00D2A3D2A4120ED2C2A4120ED2C2A3D2A444
:010E9E002231
:100DFF00C2A3C2A4D2A3120ED2D2A4120ED2C2A4E4
:030E0F00D2A42248
:10000E00C2A3EF24FF92A4120ED2D2A3120ED2C21A
:04001E00A3D2A422A3
:100DB900C200C2A3D2A4120ED2D2A3120ED2A2A4EE
:080DC9009200C2A3D2A4A20013
:010DD10022FF
:020D1100AE072B
:100D1300E4FDFCEE30E7047F018002E4FF12000EE5
:0F0D2300EE25E0FE0DBD00010CED64084C70E400
:010D3200229E
:100C8400E4FFFE7D07FC120DB9E433FEAB05A803B7
:100C9400088002C333D8FC4207ED1D70011CBCFF61
:040CA400E5BDFFE2C9
:010CA8002229
:050CCC00AF03120D1141
:100CD100E4FFFE120DB950130FBF00010ED3EF94C4
:0D0CE10064EE6480948040EB7F00227F0170
:010CEE0022E3
:0606ED008B3B8A3C893DB5
:1006F300E4F540F541120E8EEF25E0FF43070112AA
:100703000D11120CD1EF7003FEFF22E4F540F54109
:10071300C3E541953FE53E6480F8E5406480985029
:100723003F120C84AB3BAA3CA93D854182854083A3
:10073300EF12007EE53F24FFFFE53E34FFFEC3E5F5
:10074300419FEE6480F8E5406480985004E4FF80A4
:10075300027F0112000E0541E54170B4054080B0EF
:07076300120DFF7E007F0173
:01076A00226C
:0A04A9008F298D2A8B2B8A2C892DB8
:1004B300E4F530F531120E8EE52925E0FB5303FEFA
:1004C300120CCCEF7003FEFF22AF2A120D11120C97
:1004D300D1EF7003FEFF22120E8EE52925E0FB43C8
:1004E3000301120CCCEF7003FEFF22E4F530F5316B
:1004F300C3E531952FE52E6480F8E530648098508C
:100503003F120C84AB2BAA2CA92D85318285308315
:10051300EF12007EE52F24FFFFE52E34FFFEC3E537
:10052300319FEE6480F8E5306480985004E4FF80E6
:10053300027F0112000E0531E53170B4053080B041
:07054300120DFF7E007F0195
:01054A00228E
:0608B7008B438A448945D1
:1008BD00E4F548F549120E8EEF25E0FF5307FE12C1
:1008CD000D11120CD1EF7003FEFF22E4F548F5492E
:1008DD00C3E5499547E5466480F8E548648098503E
:1008ED0026AB43AA44A94585498285488312003F1A
:1008FD00FF120D11120CD1EF7003FEFF220549E519
:0E090D004970CD054880C9120DFF7E007F01A4
:01091B0022B9
:030000000205DA1C
:0C05DA00787FE4F6D8FD7581B60206219A
:10002600BB010689828A83E0225002E722BBFE02D8
:09003600E32289828A83E493220B
:10003F00BB010CE58229F582E5833AF583E0225076
:10004F0006E92582F8E622BBFE06E92582F8E222C0
:0D005F00E58229F582E5833AF583E49322DA
:10006C00BB010689828A83F0225002F722BBFE0173
:02007C00F3226D
:10007E00F8BB010DE58229F582E5833AF583E8F0B8
:10008E00225006E92582C8F622BBFE05E92582C864
:02009E00F2224C
:1000A000EF8DF0A4A8F0CF8CF0A428CE8DF0A42E74
:0200B000FE222E
:1000B200BC000BBE0029EF8DF084FFADF022E4CC32
:1000C200F875F008EF2FFFEE33FEEC33FCEE9DECFB
:1000D200984005FCEE9DFE0FD5F0E9E4CEFD22ED41
:1000E200F8F5F0EE8420D21CFEADF075F008EF2F8B
:1000F200FFED33FD4007985006D5F0F222C398FD7C
:050102000FD5F0EA2218
:10010700C2D5EC30E709B2D5E4C39DFDE49CFCEE13
:1001170030E715B2D5E4C39FFFE49EFE1200B2C3D9
:10012700E49DFDE49CFC80031200B230D507C3E4D4
:060137009FFFE49EFE2282
:10013D00BB010A89828A83E0F5F0A3E0225006878D
:10014D00F009E71922BBFE07E3F5F009E31922894F
:0B015D00828A83E493F5F07401932282
:10016800BB0110E58229F582E5833AF583E0F5F0D5
:10017800A3E0225009E92582F886F008E622BBFEB2
:100188000AE92582F8E2F5F008E222E5832AF583F8
:08019800E993F5F0A3E99322BD
:1001A000BB010789828A830202CD500B09C5F02763
:1001B000F7C5F01937F722BBFE0D09F8E325F0F378
:1001C000C5F019E338F322F889828A8374019325F4
:0801D000F0C5F0F8E4933822B9
:1001D800BB010DC58229C582C5833AC5830202CDFC
:1001E8005011C58229F808E5F026F618F5F0E582E1
:1001F80036F622BBFE11C58229F808E225F0F5F093
:10020800F218E23582F222F8E58229F582E5832A9E
:0D021800F58374019325F0F5F0E49338228E
:10022500BB010A89828A83F0E5F0A3F0225006F724
:0F02350009A7F01922BBFE06F3E5F009F3192221
:10024400F8BB0111E58229F582E5833AF583E8F0EC
:10025400E5F0A3F0225009E92582C8F608A6F022A9
:0D026400BBFE09E92582C8F2E5F008F22290
:10027100BB010DE58229F582E5833AF5830202ECA3
:100281005007E92582F80202E3BBFE07E92582F85F
:100291000202F5E58229F582E5833AF5830202FE41
:1002A100D083D082F8E4937012740193700DA3A3EC
:1002B10093F8740193F5828883E473740293686000
:0602C100EFA3A3A380DF00
:0602C7008A838982E473C2
:1005E6000207DFE493A3F8E493A34003F68001F245
:1005F60008DFF48029E493A3F85407240CC8C33316
:10060600C4540F4420C8834004F456800146F6DFE4
:10061600E4800B0102040810204080900A6BE47EFF
:10062600019360BCA3FF543F30E509541FFEE493D9
:10063600A360010ECF54C025E060A840B8E493A3A0
:10064600FAE493A3F8E493A3C8C582C8CAC583CACB
:10065600F0A3C8C582C8CAC583CADFE9DEE780BE83
:010AB4000041
:1002CD00C5F0F8A3E028F0C5F0F8E58215827002BC
:0602DD001583E038F02259
:0902E300E6FB08E6FA08E6F92240
:0902EC00E0FBA3E0FAA3E0F92213
:0902F500E2FB08E2FA08E2F9223A
:0C02FE00E493FB740193FA740293F9225C
:00000001FF
