:100A6B00202020202020202020202020202020207B
:100A7B0000736F6E69632028636D293A00616C61A6
:040A8B00726D210067
:10086F00081900000000000000C8012101075E0008
:10087F00000014FF068207730000000AFF0C230715
:10088F006C00000002FF0B6E07650000000AFF0BF3
:01089F00B99F
:0B0016000000000000000000000022BD
:10068200AC1DAD1EE41202C97BF57A4A7919783D98
:1006920012011EE4FBFAF978401202278F0B8E0A30
:1006A2008D098C08E4FFFEFD7C3FAB0BAA0AA90969
:1006B200A80812002D1203028E1F8F20750FFF75DE
:1006C200100A75116B7B007A007936120A3E750F9B
:1006D200FF75100A75116B7B007A00794A120A3E87
:1006E200E521B4010B750FFF75100A75117C800EA0
:1006F200E521B4021F750FFF75100A7511887B0082
:100702007A007936120A3E7B007A00794AAD20AC33
:100712001F1205BC7B007A007936E4FDFF120A1035
:0D0722007B007A00794A7D01E4FF020A1095
:0B0C230020B307D2A4120016C2A422C6
:100B6E00D3E5209464E51F648094805006752102BD
:090B7E00B29522752101D29522E5
:100BB900D3E520941EE51F6480948050030200064B
:040BC900120B1A22CF
:1009DA007B007A00795E120B387B007A00797312F9
:1009EA000B38750B00750C00750D007B007A0079C9
:1009FA007312081A7B007A007965120B387B007A29
:060A0A0000796C020B38BC
:100BF100AF8CEFFEAD8A7C00E42DF51AEC3EF519C1
:010C010022D0
:1009A100AF8CEFFEAD8A7C00E42DF51CEC3EF51B0F
:1009B100C3E51C951AE51B9519E51C4008951AF528
:1009C1001EE51B800F2468FFE51B34F7FEC3EF957E
:0909D1001AF51EEE9519F51D2220
:1007BB00120AD6120B877BFF7A0979DA120C7A129E
:1007CB000BCD7BFF7A0B79F1120C587BFF7A0979F1
:1007DB00A1120C61120C39750B00750C00750D0014
:1007EB007B007A00795E12081A750B00750C007588
:1007FB000D007B007A00796512081A750B00750CD9
:0F080B0000750D007B007A00796C12081A80C806
:100B8700438920758DFD758BFDC29FD29ED29CE453
:090B9700F587D2ACD2AFD28E2258
:080C6A008F993099FDC2992217
:030C8100020C6AF8
:060A8F008B308A31893230
:100A9500E4FDFCAB30AA31A9328D828C831203832D
:0D0AA500FF600A120C810DBD00010C80E6FF
:010AB2002221
:03002300020C2E9E
:0B0C2E00309802C298209902C299324F
:0508A00003330000001D
:100BCD00758AF0758CD8438901D2A9D2AFC28CD267
:020BDD008C2268
:030C8400D2A922D0
:030C8700C2A922DD
:070C7A008B338A3489352217
:03000B000208C226
:1008C200C0E0C0F0C083C082C0D075D000C000C0FC
:1008D20001C002C003C004C005C006C007C2AF7594
:1008E2008AF0758CD8AA34A935AE02AF01EF4E60FA
:1008F20003120579D2AFD007D006D005D004D003B9
:10090200D002D001D000D0D0D082D083D0F0D0E0BD
:0109120032B2
:100B38009000021204ACFFAEF0120481C39FE5F0EE
:0B0B48009E5007E475F0011204E42247
:10081A008B088A09890A9000021204ACFFAEF01212
:10082A000481C39FE5F09E403BE4F5F012051CAB42
:10083A0008AA09A90A900004120549E94A6025ABE9
:10084A000BAA0CA90DC003C002C001AB08AA09A9D2
:10085A000A90000412054989828A83D001D002D005
:05086A000312057D22D0
:100C020020202020202020202020202020202020E2
:010C120000E1
:0408A500027A03E8E8
:100BDF007C007D0D1203F6EF1FAC0670011E4C70EA
:010BEF00F60F
:010BF00022E2
:0E0AB300D2A57580FFD2A7120AC1AB80C2A7E0
:100AC100787AE6FE08E6FFD3940AEE6480948040CB
:050AD10003120BDF22FF
:090C4400E4FBC2A6120AB3AF03DF
:010C4D002284
:090C4E00E4FBD2A6120AB3AF03C5
:010C5700227A
:0B0B5300EF2480FFED75F040A42FFFA1
:100B5E00C2A6C2A58F80D2A7120AC1C2A7020AC11D
:100C1300D2A6C2A58F80D2A7120AC1C2A7020AC157
:100AD600787A76030876E87F08120B5E7F0C120B95
:100AE6005E7F01120B5E7F38120B5EE4787AF608A1
:020AF600F622E6
:080C7200120B53AF03020C1337
:060A10008B0C8A0D890E1B
:100A1600E4F50FF510120B53AB0CAA0DA90E8510B9
:100A260082850F83120383FF600D120C130510E5F8
:070A36001070E5050F80E1DF
:010A3D002296
:100BA0007BFF7A0C7902E4FDFF120A107BFF7A0CBE
:090BB00079027D01E4FF020A1044
:0A05BC008B0C8A0D890E8C0F8D1038
:1005C600E4F511F512F513F514F515F5167517275B
:1005D600751810C3E50F648094805010742D1203B3
:1005E600B0C3E49510F510E4950FF50FE4F511F599
:1005F60012E5124511601CAE17AF187C007D0A1279
:1006060003E4AC0FAD10CFCDCFCECCCE12044B8CC5
:10061600138D14AE13AF14AC17AD1812044B8E1312
:100626008F14C3E5109518E5176480F8E50F64800C
:1006360098401AEF2430AB0CAA0DA90E85168285B8
:1006460015831203C20516E51670020515AE17AF1F
:10065600187C007D0A12044B8E178F180512E512BE
:1006660070020511640545117087E510450F700B82
:0B067600AB0CAA0DA90E74301203B0EB
:010681002256
:060A3E008B0C8A0D890EED
:100A4400E4FFFEAB0FAA10A9118F828E83120383D9
:100A54006014AB0CAA0DA90E8F828E831203C20FF1
:060A6400BF00010E80DD61
:010A6A002269
:0A08A900032A000000032D000000E8
:0B0C3900D2AFD2A8D288D28AD2AA2261
:090C5800C2898B2A8A2B892C2207
:090C6100C2898B2D8A2E892F22F5
:03000300020913DC
:10091300C0E0C0F0C083C082C0D075D000C000C0AA
:1009230001C002C003C004C005C006C007AA2BA9AA
:100933002CAE02AF01EF4E6003120579D007D0064B
:10094300D005D004D003D002D001D000D0D0D082C3
:07095300D083D0F0D0E032A8
:0300130002095A85
:10095A00C0E0C0F0C083C082C0D075D000C000C063
:10096A0001C002C003C004C005C006C007AA2EA960
:10097A002FAE02AF01EF4E6003120579D007D00601
:10098A00D005D004D003D002D001D000D0D0D0827C
:07099A00D083D0F0D0E03261
:0E08B30004260C0603090222000302240000A2
:100B1A00E5231523700215222426F8E6F5A0C3E57D
:0D0B2A00226480948050067522007523031C
:010B3700229B
:100AF8000525E52570020524142426F8E6F5A0C38B
:100B0800E5259404E524648094804005E4F524F503
:010B180025B7
:010B190022B9
:04000600E4F5A0225B
:04000E0075A0FF22B8
:1000260002036EE86480F8E933E83360110460F097
:10003600ED33EC337009E8FCE9FDEAFEEBFF220440
:1000460060DED3EB9FEA9EE99DE8C2E78CF0C2F73B
:1000560095F0400CE8CCF8E9CDF9EACEFAEBCFFB07
:1000660012033985D0F05804700320D5B3E8047024
:10007600075002B2D502037892D5EC0460F7E4CCBF
:10008600C0E0C398F8603B94186008400DD0E0FBD0
:10009600020350E4FBFAC9FC8028E830E406E4C910
:1000A600FBE4CAFCE830E305E4C9CACBFCE8540724
:1000B6006010F8C3E913F9EA13FAEB13FBEC13FC2F
:1000C600D8F130F52FC3E49CFCEF9BFFEE9AFEEDD2
:1000D60099FDD0E0FBEF4E4D4C701222DB0302037C
:1000E60075EC2CFCEF33FFEE33FEED33FDED30E720
:1000F600EB020350EF2BFFEE3AFEED39FDD0E0FBAD
:1001060050130BBB0003020378ED13FDEE13FEEF55
:0801160013FFEC13FC0203507F
:10011E00EC4D6011E8497017ED33EC3304600DE4DB
:10012E00FCFFFEFD22E933E8330470F802036E1281
:10013E00033958046009E4CC248150062850090282
:10014E000378284003020375C0E0EB4A7044B9807F
:10015E0006D0E0FB020364EF4E701CBD8008EBFF7F
:10016E00EAFEE9FD80EBE98DF0A4FEE5F002020760
:10017E00E9CDF9EAFEEBFFEF89F0A4FCE5F0CE89BC
:10018E00F0A42EFFE435F0CD89F0A42DFEE435F079
:10019E008067EF4E7005BD80D780C3EF8BF0A4ACA7
:1001AE00F0EE8BF0A42CFCE435F0F8EF8AF0A42CE2
:1001BE00E5F038FCE433CB8DF0A42CFCE5F03BF8F5
:1001CE00EE8AF0A42CFCE5F038F8E433CF89F0A4E5
:1001DE002CFCE5F038CF3400CE89F0A42FFFE5F0EB
:1001EE003EFEE433C98DF0A42EFEE5F039CD8AF043
:1001FE00A42FFFE5F03EFEE43DFD33D0E0FB5007BB
:10020E000BBB000F020378EC2CFCEF33FFEE33FE3A
:06021E00ED33FD02035068
:10022400020378EC5D046005E85904700302036E70
:10023400120339580460F6EC4860F2EC7004FDFED9
:10024400FF22C860DB2481C85009C39860025006AD
:100254000203759850CAF582E9294B4A7005AB82AE
:1002640002036475F0007C1A7880C3EF9BEE9AED6C
:1002740099400DC3EF9BFFEE9AFEED99FDE842F025
:10028400DC23ACF0D0E0FFD0E0FED0E0FDAB822078
:10029400E7101BEB60BAEC2CFCEF33FFEE33FEED02
:1002A40033FD020350E803F830E705C0F075F000B1
:1002B400EF2FFFEE33FEED33FD40B830E7C280AAE6
:1002C40075F020800E75F010800575F0087D007EB5
:1002D400007F003392D530D50312053BEC33401038
:1002E400EF33FFEE33FEED33FDEC33FCD5F0ED22BE
:0E02F400E5F0247EA2D513CC92E7CDCEFF22FA
:10030200EDD2E7CD33EC3392D524814006E4FFFEF3
:10031200FDFC22FCE4CFCECDCC24E0501174FF8052
:10032200EDC3CC13CCCD13CDCE13CECF13CF0470EF
:07033200F030D5DE02053BAF
:10033900E9D2E7C933E833F892D5EDD2E7CD33EC0A
:0703490033FC5002B2D52283
:10035000EC30E7100FBF000C0EBE00080DBD00040E
:100360000BEB6014A2D5EB13FCED92E7FD2274FFBA
:10037000FCFDFEFF22E480F8A2D574FF13FC7D8013
:03038000E480EF27
:0300000002072FC5
:0C072F00787FE4F6D8FD75817B02077628
:10038300BB010CE58229F582E5833AF583E022502F
:1003930006E92582F8E622BBFE06E92582F8E22279
:0D03A300E58229F582E5833AF583E4932293
:1003B000BB010689828A83F0225002F722BBFE012C
:0203C000F32226
:1003C200F8BB010DE58229F582E5833AF583E8F071
:1003D200225006E92582C8F622BBFE05E92582C81D
:0203E200F22205
:1003E400EF8DF0A4A8F0CF8CF0A428CE8DF0A42E2D
:0203F400FE22E7
:1003F600BC000BBE0029EF8DF084FFADF022E4CCEB
:10040600F875F008EF2FFFEE33FEEC33FCEE9DECB3
:10041600984005FCEE9DFE0FD5F0E9E4CEFD22EDF9
:10042600F8F5F0EE8420D21CFEADF075F008EF2F43
:10043600FFED33FD4007985006D5F0F222C398FD34
:050446000FD5F0EA22D1
:10044B00C2D5EC30E709B2D5E4C39DFDE49CFCEECC
:10045B0030E715B2D5E4C39FFFE49EFE1203F6C34B
:10046B00E49DFDE49CFC80031203F630D507C3E446
:06047B009FFFE49EFE223B
:10048100BB010A89828A83E0F5F0A3E02250068746
:10049100F009E71922BBFE07E3F5F009E319228908
:0B04A100828A83E493F5F0740193223B
:1004AC00BB0110E58229F582E5833AF583E0F5F08E
:1004BC00A3E0225009E92582F886F008E622BBFE6B
:1004CC000AE92582F8E2F5F008E222E5832AF583B1
:0804DC00E993F5F0A3E9932276
:1004E400BB010789828A8302057F500B09C5F02767
:1004F400F7C5F01937F722BBFE0D09F8E325F0F331
:10050400C5F019E338F322F889828A8374019325AC
:08051400F0C5F0F8E493382271
:10051C00BB010A89828A83F0E5F0A3F0225006F72A
:0F052C0009A7F01922BBFE06F3E5F009F3192227
:0E053B00C3E49FFFE49EFEE49DFDE49CFC22D1
:10054900BB010DE58229F582E5833AF58302059E13
:100559005007E92582F8020595BBFE07E92582F8CF
:100569000205A7E58229F582E5833AF5830205B0FC
:060579008A838982E4730D
:10073B000207BBE493A3F8E493A34003F68001F212
:10074B0008DFF48029E493A3F85407240CC8C333BF
:10075B00C4540F4420C8834004F456800146F6DF8E
:10076B00E4800B010204081020408090086FE47EA7
:10077B00019360BCA3FF543F30E509541FFEE49383
:10078B00A360010ECF54C025E060A840B8E493A34A
:10079B00FAE493A3F8E493A3C8C582C8CAC583CA75
:1007AB00F0A3C8C582C8CAC583CADFE9DEE780BE2D
:0108C1000036
:10057F00C5F0F8A3E028F0C5F0F8E5821582700207
:06058F001583E038F022A4
:09059500E6FB08E6FA08E6F9228B
:09059E00E0FBA3E0FAA3E0F9225E
:0905A700E2FB08E2FA08E2F92285
:0C05B000E493FB740193FA740293F922A7
:00000001FF
