:100800007468726561645F61007468726561645FD9
:0B08100062007468726561645F630041
:0C07030002080000020A0061020C004124
:10077400C3E509940AE508648094804005E4F5081B
:10078400F509E5092430FF1200160509E50970E0B2
:04079400050880DCF8
:1007BC00D3E50B947AE50A648094804006750A00B0
:1007CC00750B617F62120016050BE50B70E2050AD2
:0207DC0080DEBD
:1007DE00D3E50D945AE50C648094804006750C00A8
:1007EE00750D41AF0D120016050DE50D70E2050CED
:0207FE0080DE9B
:100861007F0A1200167B007A00792212084FD28D7E
:010871002264
:100466001208367F24120016754DFF754E07754F1C
:10047600747550007551007552647553FF755408B4
:100486007555007B007A00790E1205ED754DFF75E6
:100496004E07754FBC7550007551007552827553E5
:1004A600FF7554087555097B007A0079221205ED0F
:1004B600754DFF754E07754FDE7550007551007509
:1004C60052A07553FF7554087555127B007A007952
:1004D600361205ED7BFF7A0079261208BE120872E5
:1004E6007BFF7A08796112089C12089112081B801A
:0104F600FE07
:10083600438920758DFD758BFDC29FD29ED29CE4A7
:09084600F587D2ACD2AFD28E22AC
:0808AE008F993099FDC29922D7
:0B001600CEEFCEC2AF1208AED2AF2278
:060798008B5C8A5D895EA6
:10079E00E4FDFCAB5CAA5DA95E8D828C8312038B9B
:0D07AE00FF600A1200160DBD00010C80E670
:0107BB00221B
:030023000208824E
:0F088200C0E0309802C298209902C299D0E032AB
:05070F00035F00000083
:10087200758AF0758CD8438901D2A9D2AFD28C2265
:03000600D2A9225A
:03000E00C2A92262
:0708BE008B5F8A6089612253
:03000B0002058368
:10058300C0E0C0F0C083C082C0D0E8C0E0E9C0E0F2
:10059300EAC0E0EBC0E0ECC0E0EDC0E0EEC0E0EFAD
:1005A300C0E0C2AF758AF0758CD8AB5FAA60A96151
:1005B300CEEACECFE9CFEF4E600B89828A83AF813B
:1005C3001204498F81D2AFD0E0FFD0E0FED0E0FD2E
:1005D300D0E0FCD0E0FBD0E0FAD0E0F9D0E0F8D0F6
:0A05E300D0D082D083D0F0D0E032F7
:1007140017BE000000000000000000000000000000
:0D0724000000000000000000000262000064
:1005ED008B4A8A4B894CE54F1203B8E54EAB4AAAAC
:1005FD004BA94C9000011203CAAB4AAA4BA94C90CF
:10060D00000FE5521203CA900010E41203CAAB5357
:10061D00AA54A955EBC0E0EAC0E0E9C0E0AB4AAA94
:10062D004BA94C9000111203ECAA4BA94C78BFE6D4
:10063D0075F003A424C0F8A64A08C6EAC608C6E9A0
:0A064D00C678BF06E6187001062209
:0808B60090001074010203CA56
:0708C500900010E40203CAD9
:10084F00E94A600D78D2C6EBC608C6EAC608C6E903
:02085F00C622AF
:10073C000563E56370020562C378BF9618E66480B2
:10074C00F8E5626480984005E4F562F563E563754D
:10075C00F003A424C0F8CBE6CB08E6FA08E6F9903F
:07076C00001012038B70C99D
:010773002263
:10081B0078CF760008760008760012073C78D2C6AF
:0B082B00EBC608C6EAC608C6E9C622F4
:10002600C9EFC9754A00754B00894C754D00754E70
:1000360000754F0078CFCBE6CB08E6FA08E68B4D85
:100046008A4EF54FCEEACE4E700221CAE924F1F966
:10005600E54B34FFCFE9CFAA4EA94F90000FEF1220
:1000660003CAAB4AAA4BA94C120372AB4DAA4EA9BE
:100076004F90000E1203CAAB4AAA4BA94C90FFFF41
:1000860012038BAB4DAA4EA94F90000D1203CAABBB
:100096004AAA4BA94C90FFFE12038BAB4DAA4EA960
:1000A6004F90000C1203CAAB4AAA4BA94C90FFFD15
:1000B60012038BAB4DAA4EA94F90000B1203CAAB8D
:1000C6004AAA4BA94C90FFFC12038BAB4DAA4EA932
:1000D6004F90000A1203CAAB4AAA4BA94C90FFFBE9
:1000E60012038BAB4DAA4EA94F9000091203CAAB5F
:1000F6004AAA4BA94C90FFFA12038BAB4DAA4EA904
:100106004F9000081203CAAB4AAA4BA94C90FFF9BC
:1001160012038BAB4DAA4EA94F9000071203CAAB30
:100126004AAA4BA94C90FFF812038BAB4DAA4EA9D5
:100136004F9000061203CAAB4AAA4BA94C90FFF790
:1001460012038BAB4DAA4EA94F9000051203CAAB02
:100156004AAA4BA94C90FFF612038BAB4DAA4EA9A7
:100166004F9000041203CAAB4AAA4BA94C90FFF564
:1001760012038BAB4DAA4EA94F9000031203CAABD4
:100186004AAA4BA94C90FFF412038BAB4DAA4EA979
:100196004F9000021203CAAB4AAA4BA94C90FFF338
:1001A60012038BAB4DAA4EA94F9000011203CAABA6
:1001B6004AAA4BA94C90FFF212038BAB4DAA4EA94B
:1001C6004F1203B878D2CBE6CB08E6FA08E6F98BED
:1001D6004D8A4EF54F90000F12038B240F754A007F
:1001E600754B00F54C90000E12038BAB4AAA4BA937
:1001F6004C1203B8AB4DAA4EA94F90000D12038BBB
:10020600AB4AAA4BA94C90FFFF1203CAAB4DAA4EAC
:10021600A94F90000C12038BAB4AAA4BA94C90FF36
:10022600FE1203CAAB4DAA4EA94F90000B12038BC8
:10023600AB4AAA4BA94C90FFFD1203CAAB4DAA4E7E
:10024600A94F90000A12038BAB4AAA4BA94C90FF08
:10025600FC1203CAAB4DAA4EA94F90000912038B9C
:10026600AB4AAA4BA94C90FFFB1203CAAB4DAA4E50
:10027600A94F90000812038BAB4AAA4BA94C90FFDA
:10028600FA1203CAAB4DAA4EA94F90000712038B70
:10029600AB4AAA4BA94C90FFF91203CAAB4DAA4E22
:1002A600A94F90000612038BAB4AAA4BA94C90FFAC
:1002B600F81203CAAB4DAA4EA94F90000512038B44
:1002C600AB4AAA4BA94C90FFF71203CAAB4DAA4EF4
:1002D600A94F90000412038BAB4AAA4BA94C90FF7E
:1002E600F61203CAAB4DAA4EA94F90000312038B18
:1002F600AB4AAA4BA94C90FFF51203CAAB4DAA4EC6
:10030600A94F90000212038BAB4AAA4BA94C90FF4F
:10031600F41203CAAB4DAA4EA94F90000112038BEB
:10032600AB4AAA4BA94C90FFF31203CAAB4DAA4E97
:10033600A94F120372AB4AAA4BA94C90FFF21203C3
:10034600CA78D2CBE6CB08E6FA08E6F978CFC6EB50
:10035600C608C6EAC608C6E9C612073C78D2C6EB86
:0B036600C608C6EAC608C6E9C6AF4CD0
:010371002269
:0A0731000356000000035900000009
:0B089100D2AFD2A8D288D28AD2AA220D
:09089C00C2898B568A5789582243
:0908A500C2898B598A5A895B2231
:030003000206579B
:10065700C0E0C0F0C083C082C0D0E8C0E0E9C0E01D
:10066700EAC0E0EBC0E0ECC0E0EDC0E0EEC0E0EFD8
:10067700C0E0AA57A958CEEACECFE9CFEF4E600324
:10068700120445D0E0FFD0E0FED0E0FDD0E0FCD082
:10069700E0FBD0E0FAD0E0F9D0E0F8D0D0D082D0BB
:0606A70083D0F0D0E03228
:030013000206AD35
:1006AD00C0E0C0F0C083C082C0D0E8C0E0E9C0E0C7
:1006BD00EAC0E0EBC0E0ECC0E0EDC0E0EEC0E0EF82
:1006CD00C0E0AA5AA95BCEEACECFE9CFEF4E6003C8
:1006DD00120445D0E0FFD0E0FED0E0FDD0E0FCD02C
:1006ED00E0FBD0E0FAD0E0F9D0E0F8D0D0D082D065
:0606FD0083D0F0D0E032D2
:030000000204F700
:0C04F700787FE4F6D8FD7581D402053E44
:10037200BB010689828A83E0225002E722BBFE0289
:09038200E32289828A83E49322BC
:10038B00BB010CE58229F582E5833AF583E0225027
:10039B0006E92582F8E622BBFE06E92582F8E22271
:0D03AB00E58229F582E5833AF583E493228B
:1003B800BB010689828A83F0225002F722BBFE0124
:0203C800F3221E
:1003CA00F8BB010DE58229F582E5833AF583E8F069
:1003DA00225006E92582C8F622BBFE05E92582C815
:0203EA00F222FD
:1003EC00BB0120E58229F582E5833AF583D0F0D074
:1003FC00E0F8D0E0F9D0E0FAD0E0FBE8C0E0C0F0E3
:10040C000204545018E92582F8D083D082D0E0F948
:10041C00D0E0FAD0E0FBC082C08302044BBBFE18D4
:10042C00E92582F8D083D082D0E0F9D0E0FAD0E090
:09043C00FBC082C08302045D22B2
:060445008A838982E47342
:10050300020466E493A3F8E493A34003F68001F2A4
:1005130008DFF48029E493A3F85407240CC8C333F9
:10052300C4540F4420C8834004F456800146F6DFC8
:10053300E4800B0102040810204080900703E47E4E
:10054300019360BCA3FF543F30E509541FFEE493BD
:10055300A360010ECF54C025E060A840B8E493A384
:10056300FAE493A3F8E493A3C8C582C8CAC583CAAF
:10057300F0A3C8C582C8CAC583CADFE9DEE780BE67
:01073B0000BD
:09044B00EBF608EAF608E9F622D6
:09045400EBF0A3EAF0A3E9F022A9
:09045D00EBF208EAF208E9F222D0
:00000001FF
