:1008CF006C63645F696E666F5F7570646174650AEF
:1008DF000020202020202020202020202020202029
:1008EF0020006D6F746F722072756E2100737065CA
:1008FF0065643D202020250072756E2074696D653A
:10090F002873293A00707265737320313A20007092
:10091F007265737320323A200074656D7065726171
:10092F00747572653A202000627574746F6E5F651E
:10093F0076656E745F6465616C0A007365636F6ED4
:10094F00645F636F756E7465720A006765745F64C8
:10095F007331386232305F74656D706174757265B2
:10096F000A006D6F746F725F6D616E6167650A006B
:0E097F007768696C652031206C6F6F700A001C
:100C580006440032000A000002990000029B0000CE
:100C6800029D00000240000102420001023E000015
:100C7800012F01073700000032FF05E507300000AB
:100C88000001FF0728072100000064FF11F1074A4F
:100C98000000012CFF118D072800000014FF0DF93A
:0605E5008B518A5289537C
:1005EB00E4F554F5557BFF7A0879CF121209755B48
:1005FB00FF755C08755DE07B007A0079711210085D
:10060B00755BFF755C08755DE07B007A0079851280
:10061B001008E52F6401702F755BFF755C08755D25
:10062B00F1FB7A007971121008755BFF755C087528
:10063B005DFC7B007A0079851210087B007A0079CB
:10064B008BAD45AC448074E52FB40229755BFF7507
:10065B005C09755D077B007A0079711210087B00CD
:10066B007A0079857899E6FC08E6FD1208097894FA
:10067B00767302070FE52F64037045755BFF755C9E
:10068B0009755D14FB7A007971121008755BFF75A3
:10069B005C09755D1E7B007A0079851210087B0062
:1006AB007A00797B789BE6FC08E6FD1208097B0053
:1006BB007A00798F789DE6FC08E6FD1208098044E4
:0606CB00E52F6404703EFF
:1006D100F556F557853E56853F57AE56AF57FC7DCB
:1006E1000A12036F8E568F57755BFF755C09755D36
:1006F100287B007A0079711210087B007A007985D5
:0E070100AD57AC56120809788976DF087643AA
:10070F007B007A007971E4FDFF120FDA7B007A002B
:09071F0079857D01E4FF020FDA87
:100728008B518A5289537BFF7A097937121209E56E
:100738002F6401704A7D0AFC7F01FE120A2FEF64C4
:10074800024E7015C3E5459464E544648094805076
:10075800080545E545700205447D0A7C007F027E58
:1007680000120A2FEF64024E7015D3E5459400E598
:1007780044648094804008E545154570021544E5B9
:100788002F6402703F7D0AFC7F01FE120A2FEF647E
:10079800024E700A789A740A26F618E436F67D0A2C
:1007A8007C007F027E00120A2FEF64024E7015D380
:1007B800789AE6940018E664809480400708E61664
:1007C800187001167D0A7C007F037E00120A2FEF45
:1007D80064024E7012052FE52FC394054003752F50
:1007E800017540007541017D0A7C00E4FFFE120A94
:1007F8002FEF64024E700912132C754000754102E8
:0108080022CD
:1011F1008B518A5289537BFF7A09794A12120978F5
:081201009A06E61870010622AE
:10118D008B518A5289537BFF7A09795A12120912AF
:09119D000DA28E3E8F3F0212B13B
:100DF9008B518A5289537BFF7A097971121209E45E
:100E0900FDFC7F48121062789B760008A6077D01D9
:100E19007C007F48121062789B760008A607E4FDE3
:100E2900FC7F48121062789D760008A607C3789C5B
:100E3900E6946418E6940040077542007543012260
:060E4900E4F542F543222E
:100CCD00E4F551F552FB7A007944120F7B7B007AE3
:100CDD00007944120F408E518F52E5416402454018
:100CED007002801AE543640145427012E552455188
:100CFD0070051213278003120006D294800512137B
:100D0D002CC2947B007A0079371211727B007A0025
:100D1D0079301211727B007A0079211211727B00E9
:100D2D007A0079281211727B007A00794A021172C9
:0100220022BB
:100B51001212201210F57BFF7A0079221212D212A2
:100B6100130E7BFF7A0C79CD12130712125B12134D
:100B71003712132C7554007555007556007B007A99
:100B8100007937120E4F7554007555007556007B6C
:100B9100007A007930120E4F755400755500755664
:100BA100007B007A007921120E4F755400755500B3
:100BB1007556007B007A007928120E4F7554007526
:100BC10055007556007B007A00794A120E4F7BFF63
:090BD1007A09797F121209809B58
:10127F00202020202020202020202020202020205F
:01128F00005E
:040CA800029F03E8BC
:101249007C007D0D12036FEF1FAC0670011E4C7000
:01125900F69E
:01125A002271
:0E10AF00D2A57580FFD2A71210BDAB80C2A7DC
:1010BD00789FE6FE08E6FFD3940AEE6480948040A4
:0510CD0003121249228C
:0912BE00E4FBC2A61210AFAF035D
:0112C7002204
:0912C800E4FBD2A61210AFAF0343
:0112D10022FA
:0B115700EF2480FFED75F040A42FFF97
:10116200C2A6C2A58F80D2A71210BDC2A70210BD0F
:1012A100D2A6C2A58F80D2A71210BDC2A70210BDBF
:1010F500789F76030876E87F081211627F0C12113B
:10110500627F011211627F38121162E4789FF6083E
:02111500F622C0
:0812DB00121157AF030212A12A
:060FDA008B588A59895A68
:100FE000E4F55BF55C121157AB58AA59A95A855C18
:100FF00082855B831202FCFF600D1212A1055CE585
:071000005C70E5055B80E177
:0110070022C6
:1011A6007BFF7A12797FE4FDFF120FDA7BFF7A125A
:0911B600797F7D01E4FF020FDAEC
:10122000759850438920E4F587758DFD758BFDD247
:06123000ACD2AFD28E2209
:0812E3008F993099FDC2992298
:031331000212E3C2
:10120900C2AF1202E3FF600C121331740129F9E431
:071219003AFA80EED2AF2289
:0300230002133491
:03133400C298322A
:100CAC001408FF12EB0000FF12F20000FF12F90013
:060CBC0000FF1300000020
:0712EB00A290E4FE33FF2294
:0712F200A291E4FE33FF228C
:0712F900A292E4FE33FF2284
:07130000A293E4FE33FF227B
:040A2F008C548D5501
:100A3300EF75F005A42408F9E4FAFBF556F5578998
:100A430058F559755A011205521205A28E598F5A3B
:100A5300E55A45597034AB56AA57A958900003126A
:100A63000425FFAEF0EE3395E0FDFCE47BFF7AFF57
:100A7300F9F8D312053C4021AB56AA57A958900068
:100A830003E475F001120495800FAB56AA57A958D9
:100A9300900003E4F5F0120501AB56AA57A958904C
:100AA3000003120425C39555E5F09554400F75597D
:100AB30000755A02900003E4F5F0120501AE59AF38
:010AC3005AD8
:010AC400220F
:03133700D2A2221D
:03133A00C2A2222A
:05000600D2A0C2A122FE
:05132200C2A0D2A122CF
:05132700C2A0C2A122DA
:05132C00D2A0D2A122B5
:050CC200031C0000000E
:10125B00758AF0758CD8438901D2A9D2AFC28CD2D2
:02126B008C22D3
:071307008B1C8A1D891E22C8
:03000B00020EA43E
:100EA400C0E0C0F0C083C082C0D075D000C000C014
:100EB40001C002C003C004C005C006C007C2AF75AC
:100EC4008AF0758CD8AA1DA91EAE02AF01EF4E6040
:100ED400031205A2D2AFD007D006D005D004D003A8
:100EE400D002D001D000D0D0D082D083D0F0D0E0D6
:010EF40032CB
:100F40008B538A548955900002120425FDACF0128F
:100F500003FAFFAEF012035D7C007D641203C490BF
:100F60000004120425C39FEE6480F8E5F0648098C5
:0B0F70004004E4FEFF227E007F01220F
:100F7B00900004E475F00112049590000212042510
:100F8B00FFAEF0900004120425C39FEE6480F8E5D9
:100F9B00F06480984009900004E4F5F012050122FA
:10117200900002120425FFAEF01203FAC39FE5F0BD
:0B1182009E5007E475F00112045D228E
:100E4F008B518A528953900002120425FFAEF01283
:100E5F0003FAC39FE5F09E403BE4F5F01204E2ABCA
:100E6F0051AA52A953900004120572E94A6025ABAA
:100E7F0054AA55A956C003C002C001AB51AA52A92A
:100E8F005390000412057289828A83D001D002D058
:050E9F00031205A6226C
:0A0809008B588A59895A8C5B8D5C6C
:10081300E4F55DF55EF55FF560F561F562756327F7
:10082300756410C3E55B648094805010742D1203CB
:1008330029C3E4955CF55CE4955BF55BE4F55DF554
:100843005EE55E455D601CAE63AF647C007D0A12AD
:10085300035DAC5BAD5CCFCDCFCECCCE1203C48CED
:100863005F8D60AE5FAF60AC63AD641203C48E5F37
:100873008F60C3E55C9564E5636480F8E55B648041
:1008830098401AEF2430AB58AA59A95A8562828539
:10089300618312033B0562E56270020561AE63AFDB
:1008A300647C007D0A1203C48E638F64055EE55E7B
:1008B3007002055D6405455D7087E55C455B700B03
:0B08C300AB58AA59A95A74301203293F
:0108CE002207
:061008008B588A59895A39
:10100E00E4FFFEAB5BAA5CA95D8F828E831202FCAD
:10101E006014AB58AA59A95A8F828E8312033B0FC4
:06102E00BF00010E80DD91
:011034002299
:050CC700036E000000B7
:07130E00D2AFD2A8D2882261
:0912D200C2898B6E8A6F897022BB
:03000300020EF5F5
:100EF500C0E0C0F0C083C082C0D075D000C000C0C3
:100F050001C002C003C004C005C006C007C2AFAA25
:100F15006FA970AE02AF01EF4E60031205A2D2AF0A
:100F2500D007D006D005D004D003D002D001D00020
:0B0F3500D0D0D082D083D0F0D0E032CA
:06131C00000000000022A9
:10126D007C007D1412036FEF1FAC0670011E4C70D5
:01127D00F67A
:01127E00224D
:10129000D2A3D2A412131CC2A412131CC2A3D2A4A0
:0112A000222B
:10123600C2A3C2A4D2A312131CD2A412131CC2A40A
:03124600D2A4220D
:10000E00C2A3EF24FF92A412131CD2A312131CC27C
:04001E00A3D2A422A3
:1011BF00C200C2A3D2A412131CD2A312131CA2A446
:0811CF009200C2A3D2A4A20009
:0111D70022F5
:02111700AE0721
:10111900E4FDFCEE30E7047F018002E4FF12000EDB
:0F112900EE25E0FE0DBD00010CED64084C70E4F6
:011138002294
:10108A00E4FFFE7D07FC1211BFE433FEAB05A803A3
:10109A00088002C333D8FC4207ED1D70011CBCFF57
:0410AA00E5BDFFE2BF
:0110AE00221F
:0510D200AF031211172D
:1010D700E4FFFE1211BF50130FBF00010ED3EF94B0
:0D10E70064EE6480948040EB7F00227F0166
:0110F40022D9
:060BDA008B578A5889596F
:100BE000E4F55CF55D121290EF25E0FF430701127A
:100BF00011171210D7EF7003FEFF22E4F55CF55DCC
:100C0000C3E55D955BE55A6480F8E55C64809850C7
:100C10003F12108AAB57AA58A959855D82855C831B
:100C2000EF12033BE55B24FFFFE55A34FFFEC3E50B
:100C30005D9FEE6480F8E55C6480985004E4FF807A
:100C4000027F0112000E055DE55D70B4055C80B0A9
:070C50001212367E007F0145
:010C5700227A
:0A098D008F658D668B678A688969A3
:10099700E4F56CF56D121290E56525E0FB5303FE57
:1009A7001210D2EF7003FEFF22AF6612111712105A
:1009B700D7EF7003FEFF22121290E56525E0FB4397
:1009C70003011210D2EF7003FEFF22E4F56CF56D00
:1009D700C3E56D956BE56A6480F8E56C64809850B3
:1009E7003F12108AAB67AA68A969856D82856C83F7
:1009F700EF12033BE56B24FFFFE56A34FFFEC3E517
:100A07006D9FEE6480F8E56C6480985004E4FF8085
:100A1700027F0112000E056DE56D70B4056C80B0A4
:070A27001212367E007F0170
:010A2E0022A5
:060D3D008B578A5889590A
:100D4300E4F55CF55D121290EF25E0FF5307FE1208
:100D530011171210D7EF7003FEFF22E4F55CF55D67
:100D6300C3E55D955BE55A6480F8E55C6480985063
:100D730026AB57AA58A959855D82855C831202FC6C
:100D8300FF1211171210D7EF7003FEFF22055DE566
:0E0D93005D70CD055C80C91212367E007F01B6
:010DA100222F
:021062008F54A9
:101064008D557B007A007955755A00755B01120D18
:101074003DE4F555FB7A007955F55A755B01AF549B
:05108400120BDAAF556C
:011089002244
:10113900D3EF9400EE940040147D787C00ED1D708F
:0D114900011CED4C70F7EF1F70E61E80E3F7
:011156002276
:07131500AE071FEE70FA2283
:10103500E4FDFCD295C2957F50121315D2957F031E
:101045001213153095100DBD00010CD3ED9464EC11
:0D1055006480948040EDD2957F4602131513
:0211D800AD0761
:1011DA00E4FCD295C29500EDC313FD92957F0A12E5
:0611EA0013150CBC08EC1B
:0111F00022DC
:100FAB00E4FD7C01FBD295C295D29500309514ECF3
:100FBB00A803088002C333D8FC42057F0212131525
:0E0FCB000080057F0A1213150BBB08D9AF0575
:010FD90022F5
:0D12B1001210357FCC1211D87F440211D8E5
:100DA2001210357FCC1211D87FBE1211D8120FABA0
:100DB200AA07120FABEF7F00FEEF2AFFE43EFEAD63
:100DC20007FCE4120229E4FBFA7980783D12011E45
:100DD2008F578E568D558C54E4FFFE7D207C41AB9F
:100DE20057AA56A955A85412011EE4FBFAF9783FF6
:060DF20012002D12026246
:010DF80022D8
:100026000202CEE86480F8E933E83360110460F038
:10003600ED33EC337009E8FCE9FDEAFEEBFF220440
:1000460060DED3EB9FEA9EE99DE8C2E78CF0C2F73B
:1000560095F0400CE8CCF8E9CDF9EACEFAEBCFFB07
:1000660012029985D0F05804700320D5B3E80470C5
:10007600075002B2D50202D892D5EC0460F7E4CC60
:10008600C0E0C398F8603B94186008400DD0E0FBD0
:100096000202B0E4FBFAC9FC8028E830E406E4C9B1
:1000A600FBE4CAFCE830E305E4C9CACBFCE8540724
:1000B6006010F8C3E913F9EA13FAEB13FBEC13FC2F
:1000C600D8F130F52FC3E49CFCEF9BFFEE9AFEEDD2
:1000D60099FDD0E0FBEF4E4D4C701222DB0302027D
:1000E600D5EC2CFCEF33FFEE33FEED33FDED30E7C0
:1000F600EB0202B0EF2BFFEE3AFEED39FDD0E0FB4E
:1001060050130BBB00030202D8ED13FDEE13FEEFF6
:0801160013FFEC13FC0202B020
:10011E00EC4D6011E8497017ED33EC3304600DE4DB
:10012E00FCFFFEFD22E933E8330470F80202CE1222
:10013E00029958046009E4CC248150062850090223
:10014E0002D82840030202D5C0E0EB4A7044B980C1
:10015E0006D0E0FB0202C4EF4E701CBD8008EBFF20
:10016E00EAFEE9FD80EBE98DF0A4FEE5F002020760
:10017E00E9CDF9EAFEEBFFEF89F0A4FCE5F0CE89BC
:10018E00F0A42EFFE435F0CD89F0A42DFEE435F079
:10019E008067EF4E7005BD80D780C3EF8BF0A4ACA7
:1001AE00F0EE8BF0A42CFCE435F0F8EF8AF0A42CE2
:1001BE00E5F038FCE433CB8DF0A42CFCE5F03BF8F5
:1001CE00EE8AF0A42CFCE5F038F8E433CF89F0A4E5
:1001DE002CFCE5F038CF3400CE89F0A42FFFE5F0EB
:1001EE003EFEE433C98DF0A42EFEE5F039CD8AF043
:1001FE00A42FFFE5F03EFEE43DFD33D0E0FB5007BB
:10020E000BBB000F0202D8EC2CFCEF33FFEE33FEDB
:06021E00ED33FD0202B009
:1002240075F020800E75F010800575F0087D007E55
:10023400007F003392D530D50312052EEC334010E5
:10024400EF33FFEE33FEED33FDEC33FCD5F0ED225E
:0E025400E5F0247EA2D513CC92E7CDCEFF229A
:10026200EDD2E7CD33EC3392D524814006E4FFFE94
:10027200FDFC22FCE4CFCECDCC24E0501174FF80F3
:10028200EDC3CC13CCCD13CDCE13CECF13CF047090
:07029200F030D5DE02052E5D
:10029900E9D2E7C933E833F892D5EDD2E7CD33ECAB
:0702A90033FC5002B2D52224
:1002B000EC30E7100FBF000C0EBE00080DBD0004AF
:1002C0000BEB6014A2D5EB13FCED92E7FD2274FF5B
:1002D000FCFDFEFF22E480F8A2D574FF13FC7D80B4
:0302E000E480EFC8
:03000000020AC52C
:0C0AC500787FE4F6D8FD7581A0020B0CD0
:1002E300BB010689828A83E0225002E722BBFE0219
:0902F300E32289828A83E493224C
:1002FC00BB010CE58229F582E5833AF583E02250B7
:10030C0006E92582F8E622BBFE06E92582F8E22200
:0D031C00E58229F582E5833AF583E493221A
:10032900BB010689828A83F0225002F722BBFE01B3
:02033900F322AD
:10033B00F8BB010DE58229F582E5833AF583E8F0F8
:10034B00225006E92582C8F622BBFE05E92582C8A4
:02035B00F2228C
:10035D00EF8DF0A4A8F0CF8CF0A428CE8DF0A42EB4
:02036D00FE226E
:10036F00BC000BBE0029EF8DF084FFADF022E4CC72
:10037F00F875F008EF2FFFEE33FEEC33FCEE9DEC3B
:10038F00984005FCEE9DFE0FD5F0E9E4CEFD22ED81
:10039F00F8F5F0EE8420D21CFEADF075F008EF2FCB
:1003AF00FFED33FD4007985006D5F0F222C398FDBC
:0503BF000FD5F0EA2259
:1003C400C2D5EC30E709B2D5E4C39DFDE49CFCEE54
:1003D40030E715B2D5E4C39FFFE49EFE12036FC35A
:1003E400E49DFDE49CFC800312036F30D507C3E455
:0603F4009FFFE49EFE22C3
:1003FA00BB010A89828A83E0F5F0A3E022500687CE
:10040A00F009E71922BBFE07E3F5F009E31922898F
:0B041A00828A83E493F5F074019322C2
:10042500BB0110E58229F582E5833AF583E0F5F015
:10043500A3E0225009E92582F886F008E622BBFEF2
:100445000AE92582F8E2F5F008E222E5832AF58338
:08045500E993F5F0A3E99322FD
:10045D00BB010789828A830205A8500B09C5F027C5
:10046D00F7C5F01937F722BBFE0D09F8E325F0F3B8
:10047D00C5F019E338F322F889828A837401932534
:08048D00F0C5F0F8E4933822F9
:10049500BB010DC58229C582C5833AC5830205A85E
:1004A5005011C58229F808E5F026F618F5F0E58221
:1004B50036F622BBFE11C58229F808E225F0F5F0D3
:1004C500F218E23582F222F8E58229F582E5832ADF
:0D04D500F58374019325F0F5F0E4933822CF
:1004E200BB010A89828A83F0E5F0A3F0225006F765
:0F04F20009A7F01922BBFE06F3E5F009F3192262
:10050100F8BB0111E58229F582E5833AF583E8F02C
:10051100E5F0A3F0225009E92582C8F608A6F022E9
:0D052100BBFE09E92582C8F2E5F008F222D0
:0E052E00C3E49FFFE49EFEE49DFDE49CFC22DE
:10053C00EB9FF5F0EA9E42F0E99D42F0EC6480C836
:06054C0064809845F022D6
:10055200BB010789828A830205C75005E9F80205B3
:10056200BEBBFE05E9F80205D089828A830205D95D
:10057200BB010DE58229F582E5833AF5830205C7C1
:100582005007E92582F80205BEBBFE07E92582F87D
:100592000205D0E58229F582E5833AF5830205D981
:0605A2008A838982E473E4
:100AD100020B51E493A3F8E493A34003F68001F2DF
:100AE10008DFF48029E493A3F85407240CC8C33326
:100AF100C4540F4420C8834004F456800146F6DFF5
:100B0100E4800B0102040810204080900C58E47E20
:100B1100019360BCA3FF543F30E509541FFEE493E9
:100B2100A360010ECF54C025E060A840B8E493A3B0
:100B3100FAE493A3F8E493A3C8C582C8CAC583CADB
:100B4100F0A3C8C582C8CAC583CADFE9DEE780BE93
:010CCC000027
:1005A800C5F0F8A3E028F0C5F0F8E58215827002DE
:0605B8001583E038F0227B
:0905BE00E6FB08E6FA08E6F92262
:0905C700E0FBA3E0FAA3E0F92235
:0905D000E2FB08E2FA08E2F9225C
:0C05D900E493FB740193FA740293F9227E
:00000001FF
