:1009030020202020202020202020202020202020E4
:1009130000706C6561736520696E7075743A006967
:100923006E7075743A0077656C636F6D652100773F
:100933006172696E6721616C61726D0062757474B6
:100943006F6E206C6F636B65642100627574746FE6
:0D0953006E5F6465616C0A00313233340060
:100A520006150000000000000114010783000000D9
:100A620014FF02F1077C00000002FF064D06A800F9
:100A72003200020000074D00000001FF0C4207AEE9
:100A820000000064FF0B1D07A10000000AFF0752CF
:060A9C008B248A25892647
:100AA200E4FFFEC3EF952BE52A6480F8EE6480989C
:100AB2005029AB27AA28A9298F828E83120026FDEE
:100AC200AB24AA25A9268F828E831200266D60048C
:0F0AD200E4FEFF220FBF00010E80C87E007F01EF
:010AE10022F2
:060A06008B248A258926DD
:100A0C00E4FFFEAB24AA25A92690000112014FFD9C
:100A1C00C3EF9DE5F06480F8EE6480985019E924EA
:100A2C0003F9E43AFAE92FF9EA3EFA742A12005370
:100A3C000FBF00010E80CCAB24AA25A92690000183
:060A4C00E4F5F002022BAC
:1002F1008B218A2289237527FF7528097529037B9C
:10030100007A007954120C157527FF752809752993
:10031100037B007A007968120C15E514B4010B75A2
:1003210027FF7528097529148053E5146402702F7D
:100331007527FF752809752922FB7A007954120C5B
:100341001575270075280075298D7B007A00795C69
:10035100120C157B007A007968AD16AC15804AE560
:1003610014B4030B7527FF752809752929800EE53B
:1003710014B405147527FF7528097529327B007A95
:10038100007954120C158028E514B406237527FF53
:1003910075280975293F7B007A007954120C157B69
:1003A100007A007968AD1AAC191203CA786D7673B8
:1003B1007B007A007954E4FDFF120BBA7B007A00CE
:0903C10079687D01E4FF020BBA2A
:10064D008B218A228923E51A45197009120D90789C
:10065D008AA6078004E4788AF67BFF7A09794E1220
:10066D000C907B007A00798D120C90788AE6FF60F1
:10067D0017080806E618860470010614248DF8A6DE
:10068D0007E4788AF6751402752700752800752918
:10069D0008788BE6F52A08E6F52B7B007A00798D34
:1006AD00120A9CEF4E7008FB7A00798A020A06C383
:1006BD00788CE6940418E6648094804009750C00EB
:0706CD00750D0175140322F5
:100C42007B007A0079A8120B8AD3E50F9400E50E97
:100C5200648094804010D3E5189400E51764809472
:090C6200804003C2A222D2A222AA
:100B1D00E514B402080516E51670020515D3E5189F
:100B2D009400E517648094804008E518151870024C
:100B3D001517D3E51A9400E519648094804008E5F3
:080B4D001A151A700215192295
:10075200E514B40312E4F515F516F50EF50FF517C9
:10076200F518F519F51A22D3E516941EE5156480DD
:1007720094804012050FE50F7002050EE4F515F5A1
:1007820016F51775183CC3E50F9403E50E648094C3
:1007920080400B751901751A2CE4F50EF50FD3E59F
:1007A200189400E517648094804005751405800351
:1007B200751402D3E51A9400E5196480948040030D
:0407C2007514062282
:100BE8007B007A007983120D757B007A00797C127C
:100BF8000D757B007A00794D120D757B007A0079AE
:0D0C0800AE120D757B007A0079A1020D750A
:0100220022BB
:100B55007B007A007908752500752604E4FF120EDE
:100B65003FC3E508648094B95008E508648094B0F3
:100B750050127527FF75280975295B7B007A007966
:050B850008120C15220E
:100E63007B007A007908753600753704E4FF0208C1
:010E73003747
:1007C600120DC4120CFA7BFF7A0B79E8120ECD12C9
:1007D6000E1B120B557524007525007526007B002F
:1007E6007A00798312096075240075250075260044
:1007F6007B007A00797C12096075240075250075E6
:1008060026007B007A00794D120960752400752553
:10081600007526007B007A0079AE12096075240007
:100826007525007526007B007A0079A11209608083
:01083600A41D
:100E7400202020202020202020202020202020206E
:010E8400006D
:040A920002B503E8BE
:100E09007C007D0D120099EF1FAC0670011E4C701D
:010E1900F6E2
:010E1A0022B5
:0E0CB400D2A57580FFD2A7120CC2AB80C2A7DA
:100CC20078B5E6FE08E6FFD3940AEE64809480408D
:050CD20003120E0922CF
:090EB100E4FBC2A6120CB4AF036D
:010EBA002215
:090EBB00E4FBD2A6120CB4AF0353
:010EC400220B
:0B0D5A00EF2480FFED75F040A42FFF98
:100D6500C2A6C2A58F80D2A7120CC2C2A7020CC20E
:100E9600D2A6C2A58F80D2A7120CC2C2A7020CC2CC
:100CFA0078B576030876E87F08120D657F0C120D29
:100D0A00657F01120D657F38120D65E478B5F60826
:020D1A00F622BF
:08000300120D5AAF03020E9624
:060BBA008B248A25892628
:100BC000E4F527F528120D5AAB24AA25A926852875
:100BD00082852783120026FF600D120E960528E5F8
:070BE0002870E5052780E104
:010BE70022EB
:100DAB007BFF7A0E7974E4FDFF120BBA7BFF7A0E90
:090DBB0079747D01E4FF020BBA1A
:100DC400438920758DFD758BFDC29FD29ED29CE414
:090DD400F587D2ACD2AFD28E2219
:080EC5008F993099FDC29922BA
:060ED400AE07120EC5225C
:060C90008B248A25892651
:100C9600E4FDFCAB24AA25A9268D828C83120026AE
:0D0CA600FF600A120ED40DBD00010C80E6A7
:010CB300221E
:03002300020EA624
:0B0EA600309802C298209902C29932D5
:050A9600031B0000003D
:100E1B00758AF0758CD8438901D2A9D2AFC28CD216
:020E2B008C2217
:030EE000D2A92272
:030EE300C2A9227F
:070ECD008B1B8A1C891D220A
:03000B000209B532
:1009B500C0E0C0F0C083C082C0D075D000C000C008
:1009C50001C002C003C004C005C006C007C2AF75A0
:1009D5008AF0758CD8AA1CA91DAE02AF01EF4E6036
:1009E500031202AED2AFD007D006D005D004D00393
:1009F500D002D001D000D0D0D082D083D0F0D0E0CA
:010A050032BE
:100D750090000212014FFFAEF0120124C39FE5F06F
:0B0D85009E5007E475F0011201872268
:100960008B218A22892390000212014FFFAEF012E0
:100970000124C39FE5F09E403BE4F5F012020CAB6E
:1009800021AA22A923900004120258E94A6025AB4B
:1009900024AA25A926C003C002C001AB21AA22A90E
:1009A0002390000412025889828A83D001D002D099
:0509B000031202B22257
:0A03CA008B248A2589268C278D28B4
:1003D400E4F529F52AF52BF52CF52DF52E752F27A7
:1003E400753010C3E527648094805010742D12007A
:1003F40053C3E49528F528E49527F527E4F529F572
:100404002AE52A4529601CAE2FAF307C007D0A12F4
:100414000087AC27AD28CFCDCFCECCCE1200EE8C4A
:100424002B8D2CAE2BAF2CAC2FAD301200EE8E2BBF
:100434008F2CC3E5289530E52F6480F8E527648088
:1004440098401AEF2430AB24AA25A926852E82854C
:100454002D83120065052EE52E7002052DAE2FAFFB
:10046400307C007D0A1200EE8E2F8F30052AE52A9B
:1004740070020529640545297087E5284527700B16
:0B048400AB24AA25A9267430120053F7
:01048F00224A
:060C15008B248A258926CC
:100C1B00E4FFFEAB27AA28A9298F828E8312002618
:100C2B006014AB24AA25A9268F828E831200650F30
:060C3B00BF00010E80DD88
:010C41002290
:100D9000E4F524851F1E1205328F1FE51F7009E53B
:0A0DA0001E6005F524E4F51EAF24E3
:010DAA002226
:100E2D007C007D0D120099EF1FAC0670011E4C70F9
:010E3D00F6BE
:010E3E002291
:100D3E00AB07AA06D3EB9400EA9400400E7FE87E40
:0B0D4E0003120E2DEB1B70EC1A80E965
:010D59002277
:10053200E4F52575900F7F0AFE120D3EA990530136
:100542000F7590F07F0A7E00120D3EAF905307F0B8
:10055200E94F120288058B7705907B05957D05B8DA
:100562007E059AB7059FBB05A4BD05B8BE05A9D7F0
:1005720005AEDB05B3DD05B8DE05B8E705B8EB056A
:10058200B8ED05B8EE000005BB752537802B752543
:100592003880267525398021752534801C752535CE
:1005A20080177525368012752531800D75253280AC
:0E05B2000875253380037525207590FFAF2551
:0105C0002218
:100AE2008B4A8A4B894C90000212014FFDACF012E6
:100AF2000124FFAEF01200877C007D641200EE90AC
:100B0200000412014FC39FEE6480F8E5F064809800
:0B0B12004004E4FEFF227E007F012271
:100B8A00900004E475F0011201BF90000212014FB7
:100B9A00FFAEF090000412014FC39FEE6480F8E5A7
:100BAA00F06480984009900004E4F5F012022B22C8
:080837008F328B338A348935BE
:10083F00E4F538F539853638853739C3E5386480BE
:10084F009480402AAB33AA34A93585398285388301
:10085F00120026FFE5392401FDE435388D82F5833A
:10086F00EF120065E539153970D1153880CDAB33EE
:10087F00AA34A935E532120053AB33AA34A935E5B2
:0F088F00372401F547E43536F5467F5002089EC1
:020E3F00AD07FD
:100E4100E4F527F52885252E85262F7F500204906D
:060EDA00000000000022F0
:100E51007C007D14120099EF1FAC0670011E4C70CE
:010E6100F69A
:010E6200226D
:100E8500D2A3D2A4120EDAC2A4120EDAC2A3D2A43D
:010E9500223A
:100DF600C2A3C2A4D2A3120EDAD2A4120EDAC2A4DD
:030E0600D2A42251
:10000E00C2A3EF24FF92A4120EDAD2A3120EDAC20A
:04001E00A3D2A422A3
:100DDD00C200C2A3D2A4120EDAD2A3120EDAA2A4BA
:080DED009200C2A3D2A4A200EF
:010DF50022DB
:020D1C00AE0720
:100D1E00E4FDFCEE30E7047F018002E4FF12000EDA
:0F0D2E00EE25E0FE0DBD00010CED64084C70E4F5
:010D3D002293
:100C6B00E4FFFE7D07FC120DDDE433FEAB05A803AC
:100C7B00088002C333D8FC4207ED1D70011CBCFF7A
:040C8B00E5BDFFE2E2
:010C8F002242
:050CD700AF03120D1C2B
:100CDC00E4FFFE120DDD50130FBF00010ED3EF9495
:0D0CEC0064EE6480948040EB7F00227F0165
:010CF90022D8
:0606D4008B3B8A3C893DCE
:1006DA00E4F540F541120E85EF25E0FF43070112CC
:1006EA000D1C120CDCEF7003FEFF22E4F540F5410D
:1006FA00C3E541953FE53E6480F8E5406480985043
:10070A003F120C6BAB3BAA3CA93D854182854083D5
:10071A00EF120065E53F24FFFFE53E34FFFEC3E527
:10072A00419FEE6480F8E5406480985004E4FF80BD
:10073A00027F0112000E0541E54170B4054080B008
:07074A00120DF67E007F0195
:010751002285
:0A0490008F298D2A8B2B8A2C892DD1
:10049A00E4F530F531120E85E52925E0FB5303FE1C
:1004AA00120CD7EF7003FEFF22AF2A120D1C120C9A
:1004BA00DCEF7003FEFF22120E85E52925E0FB43DF
:1004CA000301120CD7EF7003FEFF22E4F530F53179
:1004DA00C3E531952FE52E6480F8E53064809850A5
:1004EA003F120C6BAB2BAA2CA92D85318285308348
:1004FA00EF120065E52F24FFFFE52E34FFFEC3E56A
:10050A00319FEE6480F8E5306480985004E4FF80FF
:10051A00027F0112000E0531E53170B4053080B05A
:07052A00120DF67E007F01B7
:0105310022A7
:06089E008B438A448945EA
:1008A400E4F548F549120E85EF25E0FF5307FE12E3
:1008B4000D1C120CDCEF7003FEFF22E4F548F54931
:1008C400C3E5499547E5466480F8E5486480985057
:1008D40026AB43AA44A9458549828548831200264C
:1008E400FF120D1C120CDCEF7003FEFF220549E51C
:0E08F4004970CD054880C9120DF67E007F01C7
:0109020022D2
:030000000205C135
:0C05C100787FE4F6D8FD7581B6020608CC
:10002600BB010CE58229F582E5833AF583E022508F
:1000360006E92582F8E622BBFE06E92582F8E222D9
:0D004600E58229F582E5833AF583E49322F3
:10005300BB010689828A83F0225002F722BBFE018C
:02006300F32286
:10006500F8BB010DE58229F582E5833AF583E8F0D1
:10007500225006E92582C8F622BBFE05E92582C87D
:02008500F22265
:10008700EF8DF0A4A8F0CF8CF0A428CE8DF0A42E8D
:02009700FE2247
:10009900BC000BBE0029EF8DF084FFADF022E4CC4B
:1000A900F875F008EF2FFFEE33FEEC33FCEE9DEC14
:1000B900984005FCEE9DFE0FD5F0E9E4CEFD22ED5A
:1000C900F8F5F0EE8420D21CFEADF075F008EF2FA4
:1000D900FFED33FD4007985006D5F0F222C398FD95
:0500E9000FD5F0EA2232
:1000EE00C2D5EC30E709B2D5E4C39DFDE49CFCEE2D
:1000FE0030E715B2D5E4C39FFFE49EFE120099C30C
:10010E00E49DFDE49CFC800312009930D507C3E406
:06011E009FFFE49EFE229B
:10012400BB010A89828A83E0F5F0A3E022500687A6
:10013400F009E71922BBFE07E3F5F009E319228968
:0B014400828A83E493F5F0740193229B
:10014F00BB0110E58229F582E5833AF583E0F5F0EE
:10015F00A3E0225009E92582F886F008E622BBFECB
:10016F000AE92582F8E2F5F008E222E5832AF58311
:08017F00E993F5F0A3E99322D6
:10018700BB010789828A830202B4500B09C5F02795
:10019700F7C5F01937F722BBFE0D09F8E325F0F391
:1001A700C5F019E338F322F889828A83740193250D
:0801B700F0C5F0F8E4933822D2
:1001BF00BB010DC58229C582C5833AC5830202B42E
:1001CF005011C58229F808E5F026F618F5F0E582FA
:1001DF0036F622BBFE11C58229F808E225F0F5F0AC
:1001EF00F218E23582F222F8E58229F582E5832AB8
:0D01FF00F58374019325F0F5F0E4933822A8
:10020C00BB010A89828A83F0E5F0A3F0225006F73D
:0F021C0009A7F01922BBFE06F3E5F009F319223A
:10022B00F8BB0111E58229F582E5833AF583E8F005
:10023B00E5F0A3F0225009E92582C8F608A6F022C2
:0D024B00BBFE09E92582C8F2E5F008F222A9
:10025800BB010DE58229F582E5833AF5830202D3D5
:100268005007E92582F80202CABBFE07E92582F891
:100278000202DCE58229F582E5833AF5830202E58C
:10028800D083D082F8E4937012740193700DA3A305
:1002980093F8740193F5828883E473740293686019
:0602A800EFA3A3A380DF19
:0602AE008A838982E473DB
:1005CD000207C6E493A3F8E493A34003F68001F277
:1005DD0008DFF48029E493A3F85407240CC8C3332F
:1005ED00C4540F4420C8834004F456800146F6DFFE
:1005FD00E4800B0102040810204080900A52E47E32
:10060D00019360BCA3FF543F30E509541FFEE493F2
:10061D00A360010ECF54C025E060A840B8E493A3B9
:10062D00FAE493A3F8E493A3C8C582C8CAC583CAE4
:10063D00F0A3C8C582C8CAC583CADFE9DEE780BE9C
:010A9B00005A
:1002B400C5F0F8A3E028F0C5F0F8E58215827002D5
:0602C4001583E038F02272
:0902CA00E6FB08E6FA08E6F92259
:0902D300E0FBA3E0FAA3E0F9222C
:0902DC00E2FB08E2FA08E2F92253
:0C02E500E493FB740193FA740293F92275
:00000001FF
