:100DAF002020202020202020202020202020202034
:010DBF000033
:1004CD00609A00FE000000002800000001000029D5
:1004DD000000000200003C0000000300004300008B
:1004ED00000000013700000001000138000000028B
:1004FD000001390000000300012B00000000000284
:10050D003400000001000235000000020002360038
:10051D0000000300022D0000000000033100000068
:10052D00010003320000000200033300000003004D
:10053D00032A000000000004300000000100042E1A
:10054D000000000200043D000000030004FD000057
:10055D00000400004C0000000500005200004700A0
:10056D00F70000000AFF058F42000000004700025F
:07057D0000000064FF029181
:100AF1007B017A0079292290019AE0FBA3E0FAA315
:100B0100E02290019E74FFF0A3740DF0A374AFF086
:100B11007B01229000CAE4F5F00202489000C9026C
:100B210000269000C8020026A3E0FAA3E0F9020221
:010B3100754E
:060A23009000C912008AD8
:100A2900120B1DFF3395E09000CC8FF01202489015
:100A390000CC1201B924F1FFE5F034FF9000CA8F10
:100A4900F01202489000CA1201B9C3E5F06480941B
:100A590080500D120B149000CCE475F00F1202486F
:010A6900226A
:0C0E3400120B239000C91200CF020A2903
:100CA000AF059000C87401120053FD3395E08D82AA
:090CB000F583EF1200CF020E34AF
:1007D800120B23D36480948040189000C874FF12D1
:1007E800008AFF3395E08F82F58374201200CF12C0
:0307F8000E34229A
:100DD100120B1DD364809480400574FF120A2322F4
:100CB900120B23FF120B1DFEC3EF6480F8EE648054
:090CC9009850057401120A23225F
:0B08000090019AEBF0A3EAF0A3E9F0EE
:10080B00E4FFFE9000C81200CF9000CC120B171221
:10081B000B149000C9E41200CF120AF8F98F828EE4
:10082B0083E41200CF0FBF00010EEF64644E70E93A
:10083B00E4FEFF120AF82464F9E43AFAE92FF9EA24
:10084B003EFA74201200BD0FBF00010EEF640F4E75
:10085B0070E1120AF8F990007374301200CF900017
:05086B0074E40200CF5F
:10058F00E4900198F0A3F0900198E0FEA3E0FFC380
:10059F009416EE648094804002C1357C007D071272
:1005AF0000F174FE2FF974003EFA7B011208DBACE8
:1005BF0007ECC394304006ECD394394027EC642EFB
:1005CF006022EC643D601DEC642B6018EC642D60C0
:1005DF0013EC642A600EEC64FD6009EC642860047F
:1005EF00ECB42908120AF1AD04120CA0ECB43C06CD
:1005FF00120AF11207D8ECB44306120AF1120800DE
:10060F00ECB44C06120AF1120DD1ECB45206120AD8
:10061F00F1120CB9900199E004F06002A1969001DB
:06062F0098E004F0A19622
:0106350022A2
:100291009000F2E0F9FD3395E0FCA3E0FAA3E0FB66
:1002A100C3ED9BFEEC9A900198F0A3CEF0E9FF33E9
:1002B10095E0FE74292FF58274003EF583E09001EC
:1002C1009AF0120B037A007909120B6D120B037A63
:1002D100007919120B6D120E899000F1E07007FF81
:1002E100FE120E1A80239000F3E0FEA3E02429F908
:1002F10074003EFA90019E7401F0A3EAF0A3E9F0C4
:100301007B017A007909120B6D900000E07004A363
:10031100E064017015900198E0FEA3E02409F582E4
:1003210074003EF583745FF0802090019AE07003C1
:100331007420F090019AE0FF900198E0FCA3E02482
:1003410009F58274003CF583EFF0D39000F4E0945A
:10035100009000F3E0648094804006900009747F6F
:10036100F09000F1E0FF3395E0FEC39000F6E09FCE
:10037100EE6480F89000F5E06480985006900018D3
:10038100747EF07B017A007909E4FDFF12098C7B10
:10039100017A00798D7D01E4FF12098C900000E063
:1003A1007002A3E070047F0180027F00900000E4EE
:0703B100F0A3EFF00207FBCF
:100D67007B017A0079F7120E0D7B017A0079020276
:020D77000E0D5F
:100AAF00120CEB120BFE7BFF7A0D7967120E4012C0
:100ABF000DE1120AF11208007A0079F7120AE770B5
:100ACF00069000FB120B297A007902120AE770E8F0
:100ADF00900006120B2980E07B01120D1BEF6401C1
:020AEF004E2295
:060584004301C500000068
:100DE100758A18758CFC438901D2A9D2AFD28C22A5
:0307FB00D2A9225E
:030E8900C2A922D9
:0C0E40009001C5EBF0A3EAF0A3E9F0225A
:03000B0002093BAC
:10093B00C0E0C0F0C083C082C0D075D000C000C082
:10094B0001C002C003C004C005C006C007C2AF751A
:10095B008A18758CFC9001C5A3E0FAA3E0F94A60F4
:10096B0003120275D2AFD007D006D005D004D00346
:10097B00D002D001D000D0D0D082D083D0F0D0E044
:01098B003239
:100D79009000021201B9FFAEF012018EC39FE5F097
:020D89009E22A8
:0D0E0D00120D795007E475F0011201F12279
:100D1B00120D79E4400AF5F01202297E007F0122C0
:030D2B00FEFF22A6
:100DC0002020202020202020202020202020202023
:010DD0000022
:04058A00020803E878
:100C4200D2A67590FFD2A712000EAB90C2A71200D7
:100C52000EAF0322C2A68F90D2A712000EC2A72205
:100D8B007C007D0D120103EF1FAC0670011E4C7031
:010D9B00F661
:010D9C002234
:10000E007808E6FE08E6FFD3940AEE6480948040FA
:05001E0003120D8B220E
:07000300E4FBC2A5120C4250
:01000A0022D3
:070E6300E4FBD2A5120C42D2
:010E6A002265
:0B0D2E00EF2480FFED75F040A42FFFC4
:080D3900C2A5120C5602000EC7
:080E6B00D2A5120C5602000E84
:100BFE00780876030876E87F08120D397F0C120DFF
:100C0E00397F01120D397F38120D39E47808F60854
:020C1E00F622BC
:080E7300120D2EAF03020E6BFD
:0B098C0090019BEBF0A3EAF0A3E9F060
:10099700E4A3F0A3F0120D2E90019BE0FBA3E0FA75
:1009A700A3E0F9A3E0FCA3E0FDF5828C8312002607
:1009B700FF601ED3ED940FEC648094805013120EE9
:1009C7006B90019FE004F070CF90019EE004F080EF
:0109D700C758
:0109D80022FC
:0D0E1A00AD077BFF7A0D79C0E4FF02098C63
:100CD2009001AFE0FBA3E0FAA3E0F9229001BAE0B1
:090CE200FEA3E0FF7C007D0A2264
:1003B8009001AFEBF0A3EAF0A3E9F0A3ECF0A3ED12
:0103C800F044
:1003C900E4A3F0A3F0A3F0A3F0A3F0A3F0A3742790
:1003D900F0A37410F0C3EC64809480501D120CD209
:1003E900742D1200BD9001B2E0FEA3E0FFC3E49FAB
:1003F900FFE49E9001B2F0A3EFF0E49001B4F0A302
:10040900F09001B4E0FEA3E0FFC39405EE6480948C
:1004190080400281BAEF4E601F120CDE1200F1908B
:1004290001B2E0FCA3E0FDCFCDCFCECCCE12015876
:100439009001B6ECF0A3EDF09001B6E0FEA3E0FF69
:100449009001BAE0FAA3E0FBFDAC02120158900159
:10045900B6EEF0A3EFF0C39001B3E09BEA6480F835
:100469009001B2E064809840289001B6A3E024305E
:10047900FF120CD29001B8E0FCA3E0F5828C83EF67
:100489001200CF9001B9E004F070069001B8E004C1
:10049900F0120CDE1201589001BAEEF0A3EFF090C1
:1004A90001B5E004F06002810A9001B4E004F08132
:1004B9000A9001B2E07002A3E07008120CD2743005
:0304C9001200BD61
:0104CC00220D
:0B0B6D0090019BEBF0A3EAF0A3E9F07D
:100B7800E4FFFE90019E120CD58F828E8312002610
:100B8800FD601590019B120CD58F828E83ED1200AB
:080B9800CF0FBF00010E80DB4E
:010BA0002232
:100A6A0024FFFFE034FFFEC3ED9FEE6480F8EC64E0
:100A7A00809822EBF0A3EAF0A3E9F0E422F9E0FC83
:100A8A00A3E0FDF5828C83EF0200CFE0FBA3E0FA3E
:100A9A00A3E022120E277E007F01229FEE6480F8D7
:050AAA00E064809822C9
:030DF100F0A3F07C
:0B0DF400D2B4D2B5C2B5C2B4D2B52251
:0D0E2700C2B4C2B5D2B4D2B5C2B5D2B522A4
:0E0DFF00C2B4EF24FF92B5D2B4C2B4D2B52272
:100D4100C200C2B4D2B5D2B4A2B59200C2B4D2B577
:020D5100A200FE
:010D5300227D
:020C2000AE071D
:100C2200E4FDFCEE30E7047F018002E4FF120DFFD9
:0F0C3200EE25E0FE0DBD00010CED64084C70E4F2
:010C41002290
:100BA100E4F99001AEF07F07FE120D41E4339001AC
:100BB100AEF0AD07E0FCA805088002C333D8FC49BC
:0E0BC100F9EF1F70011EBEFFE0BFFFDDAF01A8
:010BCF002203
:100C8200E4FFFE120D4150130FBF00010ED3EF948B
:0D0C920064EE6480948040EB7F00227F01BF
:010C9F002232
:030766009001A758
:10076900120A7D9001AC120DF1EF25E04401FF1250
:100779000C20120C82EF7003FEFF22E49001ACF012
:10078900A3F09001AAE0FEA3E0FFC39001ADE090C1
:1007990001AC120AA55034120BA19001A7120A95B7
:1007A9009001AC120A879001ABE09001AA120A6A83
:1007B9005004E4FF80027F01120DFF9001ADE004B7
:0E07C900F070BF9001ACE004F080B7120A9D02
:0107D70022FF
:090636009001BCEFF0A3EDF0A36C
:10063F00120A7D9001C3120DF19001BCE025E05428
:10064F00FE1206D07003FEFF229001BDE0FF120CD8
:10065F0020120C82EF7003FEFF22120DF49001BCEA
:10066F00E025E044011206D07003FEFF22E4900162
:10067F00C3F0A3F09001C1E0FEA3E0FFC39001C45B
:10068F00E09001C3120AA55034120BA19001BE12C3
:10069F000A959001C3120A879001C2E09001C1121E
:1006AF000A6A5004E4FF80027F01120DFF9001C41B
:1006BF00E004F070BF9001C3E004F080B7120A9D10
:0B06CF0022FBFF120C20120C82EF2215
:030870009001A74D
:10087300120A7D9001ACF0A3F0120DF4EF25E054C1
:10088300FEFF120C20120C82EF7003FEFF22E49095
:1008930001ACF0A3F09001AAE0FEA3E0FFA3E0FC0B
:1008A300A3E0FDC3120A73502B9001A7120A95F916
:1008B3008D828C83120026FF120C20120C82EF70A3
:1008C30003FEFF229001ADE004F070C99001ACE09B
:0708D30004F080C1120A9D30
:0108DA0022FB
:100CEB00438920758DFD758BFDC29FD29ED29CE4EE
:090CFB00F587D2ACD2AFD28E22F3
:080E7B008F993099FDC2992204
:060E8300AE07120E7B22F7
:0B0BD0009001C8EBF0A3EAF0A3E9F0ED
:100BDB00E4FDFC9001C8E0FBA3E0FAA3E0F98D82F1
:100BEB008C83120026FF600A120E830DBD00010CD0
:020BFB0080E197
:010BFD0022D5
:03002300020E5872
:0B0E5800309802C298209902C2993223
:100D0400EF2420FF7B01E4F0A304F0229001A3E090
:070D1400FF7401A80708228B
:100D9D009001A5EDF07A0179A59001AA120D04023A
:020DAD000870CC
:100D54007A0179A59001AA120D041207669001A5E3
:020D6400E0FFAE
:010D6600226A
:0D0B32009001A3EDF0A3EBF09001A2EFF015
:100B3F00120D54AE079001A4E0600D120D1080024B
:100B4F00C333D8FC4EFE800C120D108002C333D875
:0E0B5F00FCF45EFE9001A2E0FFAD06020D9DCB
:050C62009001A2EDF07D
:100C6700120D549001A2E0FE7401A806088002C389
:0A0C770033D8FC5F7002FF227F01FA
:010C81002250
:0C0E4C0090019AE0FBA3E0FAA3E0F92279
:0E09D90090019EEEF0A3EFF0A3ECF0A3EDF082
:1009E7007F017DFFE41F120D9D7DFF7F01120D9D8D
:1009F70090019EA3E0FDE4FBFF120A197B017F0132
:100A0700120A197F01120C62EF70047F0180027FC6
:010A170000DE
:0B0A180022120B329001A0A3E0FD228F
:0B08DB0090019AEBF0A3EAF0A3E9F013
:1008E600E4A3F0120E4C12018EFFAEF0900002123D
:1008F60001B9FDACF01209D9120E4C900006EF12A8
:1009060000CF900005120026B40115120E4C90007F
:1009160006120026700A90000412002690019DF02F
:10092600120E4C9000061200269000051200CF9081
:04093600019DE0FF40
:01093A00229A
:030000000206DA1B
:0C06DA00787FE4F6D8FD7581200207212E
:10002600BB010CE58229F582E5833AF583E022508F
:1000360006E92582F8E622BBFE06E92582F8E222D9
:0D004600E58229F582E5833AF583E49322F3
:10005300BB0111F8E58229F582E5833AF583E0C80F
:1000630028F0E8225009C58229F8C58226C622BB9A
:10007300FE0DC58229F8E2C5822582F2E58222EAD5
:070083002583F583E99322B8
:10008A00BB010FF8E58229F582E5833AF583E0287A
:10009A00F0225009C58229F8E58226F622BBFE091C
:1000AA00C58229F8E22582F222F8EA2583F583E956
:0300BA0093282266
:1000BD00BB010689828A83F0225002F722BBFE0122
:0200CD00F3221C
:1000CF00F8BB010DE58229F582E5833AF583E8F067
:1000DF00225006E92582C8F622BBFE05E92582C813
:0200EF00F222FB
:1000F100EF8DF0A4A8F0CF8CF0A428CE8DF0A42E23
:02010100FE22DC
:10010300BC000BBE0029EF8DF084FFADF022E4CCE0
:10011300F875F008EF2FFFEE33FEEC33FCEE9DECA9
:10012300984005FCEE9DFE0FD5F0E9E4CEFD22EDEF
:10013300F8F5F0EE8420D21CFEADF075F008EF2F39
:10014300FFED33FD4007985006D5F0F222C398FD2A
:050153000FD5F0EA22C7
:10015800C2D5EC30E709B2D5E4C39DFDE49CFCEEC2
:1001680030E715B2D5E4C39FFFE49EFE120103C336
:10017800E49DFDE49CFC800312010330D507C3E431
:060188009FFFE49EFE2231
:10018E00BB010A89828A83E0F5F0A3E0225006873C
:10019E00F009E71922BBFE07E3F5F009E3192289FE
:0B01AE00828A83E493F5F07401932231
:1001B900BB0110E58229F582E5833AF583E0F5F084
:1001C900A3E0225009E92582F886F008E622BBFE61
:1001D9000AE92582F8E2F5F008E222E5832AF583A7
:0801E900E993F5F0A3E993226C
:1001F100BB010789828A8302027B500B09C5F02764
:10020100F7C5F01937F722BBFE0D09F8E325F0F326
:10021100C5F019E338F322F889828A8374019325A2
:08022100F0C5F0F8E493382267
:10022900BB010A89828A83F0E5F0A3F0225006F720
:0F02390009A7F01922BBFE06F3E5F009F319221D
:10024800F8BB0111E58229F582E5833AF583E8F0E8
:10025800E5F0A3F0225009E92582C8F608A6F022A5
:0D026800BBFE09E92582C8F2E5F008F2228C
:060275008A838982E47314
:1006E600020AAFE493A3F8E493A34003F68001F271
:1006F60008DFF48029E493A3F85407240CC8C33315
:10070600C4540F4420C8834004F456800146F6DFE3
:10071600E4800B01020408102040809004CDE47EA2
:10072600019360BCA3FF543F30E509541FFEE493D8
:10073600A360010ECF54C025E060A840B8E493A39F
:10074600FAE493A3F8E493A3C8C582C8CAC583CACA
:10075600F0A3C8C582C8CAC583CADFE9DEE780BE82
:01058E00006C
:10027B00C5F0F8A3E028F0C5F0F8E582158270020E
:06028B001583E038F022AB
:00000001FF
