:1024D40020202020202020202020202020202020F8
:0124E40000F7
:10196C0060A100FE0000000028000000010000291A
:10197C000000000200003C000000030000430000D7
:10198C00000400004C0000000500005200000000A4
:10199C0000013700000001000138000000020001C6
:1019AC00390000000300012B00000000000234008D
:1019BC0000000100023500000002000236000000A9
:1019CC000300027E0000000400022D000000000055
:1019DC000331000000010003320000000200033359
:1019EC000000000300032A00000000000430000087
:1019FC00000100042E0000000200043D0000000362
:101A0C0000042F00004700F70000000AFF120042FC
:0E1A1C000000000047000200000064FF10B050
:101E460090019FA3E02409F58274003EF583227B6E
:101E5600017A007929229001A2E0FBA3E0FAA3E02F
:101E6600229001A774FFF0A37424F0A374D4F07B2E
:101E7600012290019FE0FEA3E0FFC39410EE648070
:101E86009480229000CAE4F5F0020856E490019F7F
:101E9600F0A3F0229000C902061E9000C802061E9A
:091EA600A3E0FAA3E0F90209141B
:0620FF009000C9120682E8
:10210500121E9AFF3395E09000CC8FF0120856907E
:1021150000CC1207C724F1FFE5F034FF9000CA8F09
:10212500F01208569000CA1207C7C3E5F064809400
:1021350080500D121E899000CCE475F00F120856E0
:012145002277
:0C255900121EA09000C91206C702210546
:10238400AF059000C8740112064BFD3395E08D82B1
:09239400F583EF1206C70225597A
:1022BF00121EA0D36480948040189000C874FF123F
:1022CF000682FF3395E08F82F58374201206C712C2
:0322DF002559225C
:1024F600121E9AD364809480400574FF1220FF2236
:10239D00121EA0FF121E9AFEC3EF6480F8EE648039
:0923AD0098500574011220FF2272
:0B1CFE009001A2EBF0A3EAF0A3E9F0D4
:101D0900E4FFFE9000C81206C79000CC121E8C1288
:101D19001E899000C9E41206C7121E5CF98F828ED3
:101D290083E41206C70FBF00010EEF64644E70E929
:101D3900E4FEFF121E5C2464F9E43AFAE92FF9EA99
:101D49003EFA74201206B50FBF00010EEF64104E63
:101D590070E1121E5CF990006474301206C790009D
:051D690074E40206C74E
:10120000E49001A1F090019FF0A3F090019FE0FE17
:10121000A3E0FFC39417EE64809480400302134A56
:101220007C007D071206E974FE2FF974003EFA7BFC
:1012300001121F179001A1EFF0C394304006E0D3D4
:10124000943940309001A1E0FF642E6027EF643DA7
:101250006022EF642B601DEF642D6018EF647E60E8
:1012600013EF642A600EEF642F6009EF64286004B6
:10127000EFB4290B121E559001A1E0FD12238490BA
:1012800001A1E0B43C06121E551222BF9001A1E05C
:10129000B44306121E55121CFE9001A1E0B44C0688
:1012A000121E551224F69001A1E0B45206121E55EA
:1012B00012239D9001A1E0643D707B90008D742805
:1012C000F0E490019FF0A3F09000F1E0FF3395E08F
:1012D000FE90019FE0FCA3E0FDC39FEE6480F8EC6C
:1012E000648098502874292DF58274003CF583E0C1
:1012F000FF748E2DF58274003CF583EFF09001A011
:10130000E004F070C390019FE004F080BB90019F67
:10131000E0FEA3E0FF248DF58274003EF58374297E
:10132000F0748E2FF58274003EF583E4F07B017A31
:1013300000798D1217BA9001A0E004F06003021248
:0A1340000B90019FE004F002120B75
:01134A002280
:1010B000121E929000F2E0F9FD3395E0FCA3E0FAF5
:1010C000A3E0FBC3ED9BFEEC9A9001A1F0A3CEF050
:1010D000E9FF3395E0FE74292FF58274003EF58315
:1010E000E09001A3F0121E677A007909122208121B
:1010F0001E677A0079191222081225B59000F1E0D6
:101100007007FFFE12253F80239000F3E0FEA3E06E
:101110002429F974003EFA9001A77401F0A3EAF0C3
:10112000A3E9F07B017A007909122208900000E01F
:101130007004A3E06401700D9001A1E0FE121E494D
:10114000745FF080209001A3E070037420F09001A0
:10115000A3E0FF9001A1E0FCA3E02409F582740064
:101160003CF583EFF0D39000F4E094009000F3E0BE
:10117000648094804006900009747FF0121E9212E1
:101180001E78502074092F121E4DE0B47E06121EE8
:1011900046742DF09001A0E004F070E390019FE010
:1011A00004F080DB121E92121E78502074092F1258
:1011B0001E4DE0B42F06121E4674FDF09001A0E013
:1011C00004F070E390019FE004F080DB7B017A0083
:1011D0007909E4FDFF12201F7B017A00798D7D01E2
:1011E000E4FF12201F900000E07002A3E070047F73
:1011F0000180027F00900000E4F0A3EFF00225B22E
:10248C007B017A0079F71225327B017A00790202FE
:02249C002532E7
:10218B001223CF1222E27BFF7A24798C122565125F
:10219B002506121E55121CFE7A0079F71221C37008
:1021AB00069000FB121EA67A0079021221C370E87A
:1021BB00900006121EA680E07B01122440EF640102
:0221CB004E22A2
:061A2A0043032000000050
:10250600758A18758CFC438901D2A9D2AFD28C2268
:0325B200D2A92289
:0325B500C2A92296
:0C256500900320EBF0A3EAF0A3E9F022C1
:03000B00021F775A
:101F7700C0E0C0F0C083C082C0D075D000C000C030
:101F870001C002C003C004C005C006C007C2AF75C8
:101F97008A18758CFC900320E0FBA3E0FAA3E0F914
:101FA7004A600989828A83E4FF120918D2AFD007F1
:101FB700D006D005D004D003D002D001D000D0D0B5
:091FC700D082D083D0F0D0E032CA
:10249E009000021207C7FFAEF012079CC39FE5F033
:0224AE009E226C
:0D25320012249E5007E475F0011207FF22ED
:1024400012249EE4400AF5F01208377E007F012234
:03245000FEFF226A
:1024E50020202020202020202020202020202020E7
:0124F50000E6
:041A3000020D03E8B8
:10232600D2A67590FFD2A712000EAB90C2A71200DC
:102336000EAF0322C2A68F90D2A712000EC2A7220A
:1024B0007C007D0D1206FBEF1FAC0670011E4C70F8
:0124C000F625
:0124C10022F8
:10000E00780DE6FE08E6FFD3940AEE6480948040F5
:05001E00031224B022D2
:07000300E4FBC2A512232655
:01000A0022D3
:07259200E4FBD2A512232691
:01259900221F
:0B245300EF2480FFED75F040A42FFF88
:08245E00C2A512233A02000E90
:08259A00D2A512233A02000E43
:1022E200780D76030876E87F0812245E7F0C1224AC
:1022F2005E7F0112245E7F3812245EE4780DF608B8
:02230200F622C1
:0825A200122453AF0302259A35
:0B201F009001A4EBF0A3EAF0A3E9F0AD
:10202A00E4A3F0A3F01224539001A4E0FBA3E0FA86
:10203A00A3E0F9A3E0FCA3E0FDF5828C8312061E5F
:10204A00FF601ED3ED940FEC648094805013122528
:10205A009A9001A8E004F070CF9001A7E004F08004
:01206A00C7AE
:01206B002252
:0D253F00AD077BFF7A2479E5E4FF02201F41
:1023B60090030AE0FBA3E0FAA3E0F922900315E0FC
:0923C600FEA3E0FF7C007D0A2269
:1015BC0090030AEBF0A3EAF0A3E9F0A3ECF0A3ED9F
:0115CC00F02E
:1015CD00E4A3F0A3F0A3F0A3F0A3F0A3F0A374277A
:1015DD00F0A37410F0C3EC64809480501D1223B6F8
:1015ED00742D1206B590030DE0FEA3E0FFC3E49F3A
:1015FD00FFE49E90030DF0A3EFF0E490030FF0A332
:10160D00F090030FE0FEA3E0FFC39405EE64809419
:10161D008040030216C1EF4E601F1223C21206E96D
:10162D0090030DE0FCA3E0FDCFCDCFCECCCE1207C5
:10163D0050900311ECF0A3EDF0900311E0FEA3E048
:10164D00FF900315E0FAA3E0FBFDAC0212075090EA
:10165D000311EEF0A3EFF0C390030EE09BEA64805C
:10166D00F890030DE06480984028900311A3E024C6
:10167D0030FF1223B6900313E0FCA3E0F5828C83B8
:10168D00EF1206C7900314E004F07006900313E008
:10169D0004F01223C2120750900315EEF0A3EFF0E1
:1016AD00900310E004F0600302160E90030FE004A7
:1016BD00F002160E90030DE07002A3E070081223E5
:0616CD00B674301206B5F0
:0116D30022F4
:0B2208009001A4EBF0A3EAF0A3E9F0C2
:10221300E4FFFE9001A71223B98F828E8312061E5C
:10222300FD60159001A41223B98F828E83ED1206EF
:08223300C70FBF00010E80DBA4
:01223B002280
:1021460024FFFFE034FFFEC3ED9FEE6480F8EC64ED
:10215600809822EBF0A3EAF0A3E9F0E422F9E0FC90
:10216600A3E0FDF5828C83EF0206C7E0FBA3E0FA4D
:10217600A3E02212254C7E007F01229FEE6480F8A8
:05218600E064809822D6
:03251600F0A3F03F
:0B251900D2B4D2B5C2B5C2B4D2B52214
:0D254C00C2B4C2B5D2B4D2B5C2B5D2B52268
:0E252400C2B4EF24FF92B5D2B4C2B4D2B52235
:10246600C200C2B4D2B5D2B4A2B59200C2B4D2B53B
:02247600A200C2
:012478002241
:02230400AE0722
:10230600E4FDFCEE30E7047F018002E4FF122524A1
:0F231600EE25E0FE0DBD00010CED64084C70E4F7
:012325002295
:10223C00E4F99001B6F07F07FE122466E4339001B6
:10224C00B6F0AD07E0FCA805088002C333D8FC4902
:0E225C00F9EF1F70011EBEFFE0BFFFDDAF01F6
:01226A002251
:10236600E4FFFE12246650130FBF00010ED3EF9454
:0D23760064EE6480948040EB7F00227F01C4
:012383002237
:031C1B009001AF86
:101C1E001221599001B4122516EF25E04401FF124E
:101C2E002304122366EF7003FEFF22E49001B4F04A
:101C3E00A3F09001B2E0FEA3E0FFC39001B5E090E7
:101C4E0001B4122181503412223C9001AF12217145
:101C5E009001B41221639001B3E09001B2122146BB
:101C6E005004E4FF80027F011225249001B5E004A8
:0E1C7E00F070BF9001B4E004F080B71221793D
:011C8C002235
:091AEB00900317EFF0A3EDF0A346
:101AF40012215990031E122516900317E025E05475
:101B0400FE121B857003FEFF22900318E0FF1223D0
:101B140004122366EF7003FEFF22122519900317A7
:101B2400E025E04401121B857003FEFF22E49003CC
:101B34001EF0A3F090031CE0FEA3E0FFC390031F7C
:101B4400E090031E122181503412223C900319129A
:101B5400217190031E12216390031DE090031C1257
:101B640021465004E4FF80027F0112252490031FC4
:101B7400E004F070BF90031EE004F080B7122179F6
:0B1B840022FBFF122304122366EF2255
:031DDB009001AFC5
:101DDE001221599001B4F0A3F0122519EF25E05409
:101DEE00FEFF122304122366EF7003FEFF22E4901F
:101DFE0001B4F0A3F09001B2E0FEA3E0FFA3E0FC7B
:101E0E00A3E0FDC312214F502B9001AF122171F9A7
:101E1E008D828C8312061EFF122304122366EF702E
:101E2E0003FEFF229001B5E004F070C99001B4E00A
:071E3E0004F080C1122179BC
:011E4500227A
:1023CF00438920758DFD758BFDC29FD29ED29CE4F3
:0923DF00F587D2ACD2AFD28E22F8
:0825AA008F993099FDC29922BE
:0A258800AE07C2AF1225AAD2AF229F
:0B226B00900323EBF0A3EAF0A3E9F0DE
:10227600E4FDFC900323E0FBA3E0FAA3E0F98D82E2
:102286008C8312061EFF600A1225880DBD00010C04
:0222960080E1E5
:012298002223
:0300230002257D36
:0B257D00309802C298209902C29932E7
:10240000EF2420FF7B01E4F0A304F0229001ABE075
:07241000FF7401A807082278
:1024C2009001ADEDF07A0179AD9001B212240002D3
:0224D2001DDB10
:102479007A0179AD9001B2122400121C1B9001ADB2
:02248900E0FF72
:01248B00222E
:0D21CD009001ABEDF0A3EBF09001AAEFF054
:1021DA00122479AE079001ACE0600D12240C800243
:1021EA00C333D8FC4EFE800C12240C8002C333D8B1
:0E21FA00FCF45EFE9001AAE0FFAD060224C2D6
:052346009001AAEDF07A
:10234B001224799001AAE0FE7401A806088002C34A
:0A235B0033D8FC5F7002FF227F01FF
:012365002255
:0C2571009001A2E0FBA3E0FAA3E0F92235
:0E206C009001A6EEF0A3EFF0A3ECF0A3EDF0D0
:10207A007F017DFFE41F1224C27DFF7F011224C26B
:10208A009001A6A3E0FDE4FBFF1220AC7B017F01D7
:10209A001220AC7F01122346EF70047F0180027F79
:0120AA000035
:0B20AB00221221CD9001A8A3E0FD222D
:0B1F17009001A2EBF0A3EAF0A3E9F0B8
:101F2200E4A3F012257112079CFFAEF0900002129A
:101F320007C7FDACF012206C122571900006EF125B
:101F420006C790000512061EB401151225719000F5
:101F52000612061E700A90000412061E9001A5F0D9
:101F620012257190000612061E9000051206C790F7
:041F720001A5E0FFE6
:011F76002248
:1023E80025660063616C5F6571756174696F6E3A2B
:0823F80025730A00FFFFFFFF3F
:10134B00EEF0A3EFF090020FE0FBA3E0FAA3E0F9BD
:10135B0022900288E0FEA3E09002B5FFE0FCA3C35D
:10136B00E0FD9FEE6480F8EC64809822E0F9A3E046
:10137B00FAA3E0900288C9F0A3EAF0A3E9F0228D6A
:10138B00828C8312061EFF229002ADE0F8A3E0F9D7
:10139B00A3E0FAA3E0FB9002A9E0FCA3E0FDA3E02D
:1013AB00FEA3E0FF22900299E0FCA3E0FD900292E5
:1013BB00E02DFD900291E03CFC8D828C83EF0206C8
:1013CB00C79002B7E475F001020786F0A3EFF07B3C
:1013DB00017A0179A522E4F0A3F0A3F0A3F0229007
:1013EB0002A9E0F8A3E0F9A3E0FAA3E022900288B7
:1013FB00E0FFA3E090028DCFF0A3EFF0223CF5834A
:10140B00EFF09002B6E004F022E0FEA3E0FF9002C2
:10141B009122E0FFA3E0900291CFF0A3EFF022EE38
:10142B0090028AF0A3EFF022E0FFA3E090028BCFB3
:10143B00F0A3EFF022E0FFA3E090028DCFF0A3EF3B
:10144B00F022F5828E8302061E90028AE0FEA3E054
:10145B00FF90028D22A3E0FFA3E0A3CFF0A3EFF058
:10146B0022EEF0A3EFF0E422E0FCA3E0F58222F001
:10147B00A3F09002B5F0A3F0229002B5E004F022A5
:071D6E0090020FEB1213823B
:101D7500E4A3F0A3F078147C027D017BFF7A23793C
:101D8500FCFE7F041205DF90020F121353A3E0FE41
:101D9500A3E012144D6038B4280C900212A3E0FFA2
:101DA500A3EEF0A3EFF090020F1213531213A91232
:101DB500144DB4290A900216EEF0A3EFF0801090AE
:101DC5000213E004F070C0900212E004F080B87BCA
:051DD500017A027914FF
:011DDA0022E6
:071C8D00900285EB121382A7
:101C940090028F1213E190028CE02401FE90028BDB
:101CA400E0340090028FF0A3CEF090028DE0FEA30A
:101CB400E0A3121366502E90028812135312138A53
:101CC4009002851213539002911213CF85F082F57E
:101CD40083EF1206C7900290E004F070CD90028F5B
:101CE400E004F080C5900285121353900291121300
:0A1CF400CF85F082F583E40206C7F5
:0C1A350090029FEDF090029CEB121382D7
:101A4100E49002A2F0A3F01224179002A412146CE5
:101A51009002A0F0A3F09002A4E0FEA3E0FF9002A8
:101A6100A0121367503490029C12135312138A90E0
:101A7100029FE06F60149002A21213CFFC74A6259E
:101A8100F0F58274023CF583EFF09002A1E004F0DE
:101A910070C49002A0E004F080BC9002A21213CFA7
:101AA100FE74A625F0F58274023EF583E4F09002FF
:101AB100A0F0A3F09002A2E0FEA3E0FF9002A0122A
:101AC1001367502574A62DF58274023CF583E0FF5F
:101AD10090029C1213531213C49002A1E004F070FF
:091AE100D39002A0E004F080CBD8
:011AEA0022D9
:0C1EAF00900212EDF090020FEB12138273
:101EBB00122417E4900215F0A3F0900215EEF0A394
:101ECB00EFF0900213E0FEA3E0FFA312136740258F
:101EDB0090020F1213538D828C8312061E8D828CEF
:101EEB0083A31206C7900216E024FFF0900215E0C0
:101EFB0034FFF080CD900212E0FF90020F121353CB
:0C1F0B009002131214738C83EF0206C7BF
:070F4300900285EB121382FE
:100F4A009002911213E190028812135312241790FF
:100F5A000295EEF0A3EFF0900285121353122417B4
:100F6A00900297EEF0A3EFF090028BE0FEA3E0FF71
:100F7A00C390028EE09FFF90028DE09ECF24FFCFA8
:100F8A0034FFFEC3900296E09FFF900295E09E9088
:100F9A000299F0A3EFF0A37423F090028FE070049B
:100FAA00A3E06401701D90029BE0FF90028512137A
:100FBA005390028B1214731213C690028D1214737B
:100FCA001213C6D390029AE09400900299E06480CA
:100FDA009480402D90029712141D90028D121414C1
:100FEA00121367401C90028512135312138A1213AC
:100FFA00B0900292E024FFF0900291E034FFF0807A
:10100A00D9C3900299E064809480503190028D1285
:10101A00141D900297121414E0FCA3D312136B5000
:10102A001C90028512135312138A1213B090029263
:10103A00E004F07006900291E004F080D5E490029A
:10104A0091F0A3F0900295121414121367503C9079
:10105A00028812135312138A90028CE02401FD9025
:10106A00028BE03400FC900292E02DFD900291E0A8
:10107A003CFC9002851213531213C4900292E004AE
:10108A00F07006900291E004F080B990028FE0704F
:10109A0004A3E06401700E90028512135390029B20
:0510AA00E0FD121A3503
:0110AF00221E
:10229900EF642B6018EF647E6013EF642A600EEF21
:1022A900642F6009EF64286004EFB429057E007F7C
:0622B9000122E4FEFF22F9
:070DB300900285EB12138290
:100DBA0012241790028812146CA3F09002A9120848
:100DCA009D000000009002AD12089D0000000090F6
:100DDA0002B112089D00000000E49002B51213E26D
:100DEA00A312147A12135C503B9002851213531209
:100DFA00138A122299EF64014E701F900285121312
:100E0A00539002B5E0FEA3E0FF12144D90028AF05F
:100E1A009002B9EEF0A3EFF0800A12140D70C51219
:100E2A00148480C0E49002B712147A9002B91213A3
:100E3A005F501F90028512135312138A1213CCFCAF
:100E4A00748B25F0F582740212140870DE12148471
:100E5A0080D91213CCFE748B25F0F58274023EF50C
:100E6A0083E4F09002B7F0A3F09002BAE02401FE06
:100E7A009002B9E034009002B5F0A3CEF012135CF0
:100E8A00501F90028512135312138A1213CCFC744A
:100E9A009A25F0F582740212140870E11214848003
:100EAA00DC1213CCFE749A25F0F58274023EF583A7
:100EBA00E4F07B017A02798B1220B69002A912081B
:100ECA00917B017A02799A1220B69002AD120891AA
:100EDA0090028AE024D6602324FB602E24B160139A
:100EEA00245370329002AD1213A41213EAFB1200BB
:100EFA002D801D12139312002980159002AD121332
:100F0A00A41213EAFB12011E80061213931202277F
:100F1A009002B11208919002BE74FFF0A37423F0FC
:100F2A00A374E8F09002B11213A49002C1120891BE
:090F3A009002851213530209957F
:0C1FD000900288EDF0900285EB12138265
:101FDC0012241790028912146CFFFED390028AE02F
:101FEC009FEE6480F8900289E06480984021900212
:101FFC00851213538F828E8312061EFD900288E089
:10200C00B505057E007F01220FBF00010E80CCE4D8
:02201C00FEFFC5
:01201E00229F
:0D189D00900285EB121382A3ECF0A3EDF096
:1018AA00E490028DF0A3F074FFA3F0A3F0C39002BA
:1018BA008BE09DEC6480F890028AE0648098405046
:1018CA001213F8121454E0FCA3E0FDD312136D4076
:1018DA000302196390028CE070139002851213536D
:1018EA0012138A122299EF4E601602193B90028552
:1018FA0012135312138A90028CE0B5070312146074
:10190A0090028EE004F070BB90028DE004F080B388
:10191A001213F8121454121367403E90028CE070AE
:10192A001590028512135312138A122299EF4E60F0
:10193A001890028D802690028512135312138A90F2
:10194A00028CE0B5070312146090028EE024FFF0C7
:10195A0090028DE034FFF080BA90028FE0FEA3E09F
:01196A00FF7D
:01196B002259
:07148B0090020FEB12138227
:10149200E4A3F0A3F012241790021AEEF0A3EFF0E7
:1014A20090028012089D00000000900284742AF0CD
:1014B200121350900284E0FD121FD0EF4E7003020F
:1014C200157C12135012241790021A12134B121485
:1014D2002A900284E090028CF0E4FDFC12189D90A8
:1014E200021612134BEF24FFFDEE34FFFCE49002D0
:1014F2008AF0A3F0A3F012189D90021412134B90DD
:101502000217E02401FD900216E03400FC90021A5A
:10151200E0FFA3E0CF12142BE4A3F012189D900277
:1015220018EEF0A3EFF090020F121377900214E07E
:10153200FDA3E090028BCDF0A3EDF0A3EEF0A3EFBC
:10154200F07B017A02791C121C8D7B017A02791CD4
:10155200120DB39002887401F0A37402F0A3741CFC
:10156200F0900214121433900218121440E4A3F003
:10157200A312134F120F430214B2900284E0FFB47D
:101582002A06742FF00214B2EFB42F099002847469
:101592002BF00214B2EFB42B09900284747EF00295
:1015A20014B2EF647E60030214B21213507D29124A
:0A15B2001A351213507D28021A3575
:0717BA009001A2EB12138263
:1017C1009001A212135312241712142A9001A2128B
:1017D1001353E490028CF0FDFC12189DEFF470029B
:1017E100EEF4700302189C9001A21213F09002BE55
:1017F1001213817BFF7A2379EB12099B9001A212CC
:101801001353121D6E780B7C027D017E007F041242
:1018110005DF9001A212137790020BE0FFA3E09085
:10182100028BCFF0A3EFF090020DE0FFA3E0900256
:101831008DCF1213D6121C8D1213DAE4900213F01D
:10184100A3F07D29121EAF1213DA1224179002138E
:10185100EE1213D67D28121EAF1213DA12148B1258
:1018610013DA7D29121A351213DA7D28121A3590EE
:1018710002887401F0A37401F0A374A5F090020B27
:1018810012143390020D121440A3E4F0A304F0905B
:0B18910001A2121353120F430217C1F3
:01189C002229
:100026000202F9E86480F8E933E83360110460F00D
:10003600ED33EC337009E8FCE9FDEAFEEBFF220440
:1000460060DED3EB9FEA9EE99DE8C2E78CF0C2F73B
:1000560095F0400CE8CCF8E9CDF9EACEFAEBCFFB07
:100066001202C485D0F05804700320D5B3E804709A
:10007600075002B2D502030392D5EC0460F7E4CC34
:10008600C0E0C398F8603B94186008400DD0E0FBD0
:100096000202DBE4FBFAC9FC8028E830E406E4C986
:1000A600FBE4CAFCE830E305E4C9CACBFCE8540724
:1000B6006010F8C3E913F9EA13FAEB13FBEC13FC2F
:1000C600D8F130F52FC3E49CFCEF9BFFEE9AFEEDD2
:1000D60099FDD0E0FBEF4E4D4C701222DB0302037C
:1000E60000EC2CFCEF33FFEE33FEED33FDED30E795
:1000F600EB0202DBEF2BFFEE3AFEED39FDD0E0FB23
:1001060050130BBB0003020303ED13FDEE13FEEFCA
:0801160013FFEC13FC0202DBF5
:10011E00EC4D6011E8497017ED33EC3304600DE4DB
:10012E00FCFFFEFD22E933E8330470F80202F912F7
:10013E0002C458046009E4CC2481500628500902F8
:10014E000303284003020300C0E0EB4A7044B98069
:10015E0006D0E0FB0202EFEF4E701CBD8008EBFFF5
:10016E00EAFEE9FD80EBE98DF0A4FEE5F002020760
:10017E00E9CDF9EAFEEBFFEF89F0A4FCE5F0CE89BC
:10018E00F0A42EFFE435F0CD89F0A42DFEE435F079
:10019E008067EF4E7005BD80D780C3EF8BF0A4ACA7
:1001AE00F0EE8BF0A42CFCE435F0F8EF8AF0A42CE2
:1001BE00E5F038FCE433CB8DF0A42CFCE5F03BF8F5
:1001CE00EE8AF0A42CFCE5F038F8E433CF89F0A4E5
:1001DE002CFCE5F038CF3400CE89F0A42FFFE5F0EB
:1001EE003EFEE433C98DF0A42EFEE5F039CD8AF043
:1001FE00A42FFFE5F03EFEE43DFD33D0E0FB5007BB
:10020E000BBB000F020303EC2CFCEF33FFEE33FEAF
:06021E00ED33FD0202DBDE
:10022400020303EC5D046005E8590470030202F95B
:100234001202C4580460F6EC4860F2EC7004FDFE4F
:10024400FF22C860DB2481C85009C39860025006AD
:100254000203009850CAF582E9294B4A7005AB8223
:100264000202EF75F0007C1A7880C3EF9BEE9AEDE2
:1002740099400DC3EF9BFFEE9AFEED99FDE842F025
:10028400DC23ACF0D0E0FFD0E0FED0E0FDAB822078
:10029400E7101BEB60BAEC2CFCEF33FFEE33FEED02
:1002A40033FD0202DBE803F830E705C0F075F00027
:1002B400EF2FFFEE33FEED33FD40B830E7C280AAE6
:10093000E50824BEF582E43402F583E00508229040
:1009400002BB3007039002BEE475F0011208CE022C
:1009500006052000E97F2ED2008018EF540F249066
:10096000D43440D4FF30040BEF24BFB41A0050033A
:100970002461FFE50960021509050CE50C7002050C
:100980000B30070E9002BBE475F0011208CEEF02A7
:1009900006B50225887403D2078003E4C207F50870
:1009A0009002BB1208E5E4F509F50BF50CE50960CA
:1009B000077F2012097380F5750AFFC201C200C2C9
:1009C00002C203C205C206C20812093FFF700D3001
:1009D00007057F00120984AF0CAE0B22B4255FC25D
:1009E000D5C20412093FFF24D0B40A00501A75F092
:1009F0000A780930D50508B6FF0106C6A426F620F8
:100A0000D5047002D20380D924CFB41A00EF500469
:100A1000C2E5D204020C76D20180C6D20080C0D2D8
:100A20000280BCD2D580BAD20580B47F201209736F
:100A30002002077401B5090040F1120930FF1209C4
:100A4000730209ADD208D2068095120930FB120953
:100A500030FA120930F94A4B700679747A0D7BFF2F
:100A600020022EE509602A7E008E82758300120620
:100A70001E60060EEE650A70F0C2D5EBC0E0EAC05B
:100A8000E0E9C0E0EE120CD7D0E0F9D0E0FAD0E017
:100A9000FB120605FF60AAEBC0E0EAC0E0E9C0E097
:100AA000120973D0E02401F9D0E03400FAD0E0FB61
:100AB000E50A0460DCD50AD98087D20280A2120C34
:100AC000B960F7E50A70010412030EA90A600DE58A
:100AD0000A600914F50A120D61EF60F3EA30E702CB
:100AE000F404C3995079EAF4250A0430E701E404D8
:100AF000F50A800D120CB960C1EA050A250A120335
:100B00000EEA9002EAF030E701E4250A04D50A046F
:100B100020050114120CD7E4C0E0120D619002EA26
:100B2000E0601320E70714F012095B802204F0D084
:100B3000E014C0E07F0012095BE50A600712095269
:100B4000150A800B300503120952D0E00209ADD01E
:100B5000E00480C4120CB9609EE50A0412030E90F2
:100B600002EAEAF0E50A2005026001042404120CFE
:010B7000D7AD
:100B710074FF04C0E0120D6112095BE50A20050251
:100B81006003120952D0E0B50AE87F451209659069
:100B910002EAE07F2B30E7047F2DF404C0E0120964
:100BA10073D0E075F00A84C0F012095CD0E012093C
:100BB1005C0209AD791080027908C206C20880087A
:100BC100D2D5790A8004790AC2D5E50A047002F502
:100BD1000AE4FAFDFEFF120930FC7B082001131222
:100BE1000930FD7B1030000A120930FE120930FF76
:100BF1007B20EC3382D592D55013C3E43000069F9D
:100C0100FFE49EFEE42001039DFDE49CFCE4CBF89F
:100C1100C201EC700CCFCECDCCE824F8F870F38093
:100C210017C3EF33FFEE33FEED33FDEC33FCEB3353
:100C3100FB994002FB0FD8E9EB300105F8D0E0C485
:100C410048B201C0E00AEC4D4E4F78207B0070C2E3
:100C5100EAB50A0040BCC0E0120CD9D0F0D0E020C7
:100C61000104C4C0E0C4B201C0F012095CD0F0D5E7
:100C7100F0EB0209AD1208EE0A4A530BB5580A1BF4
:100C81004C0A17420BB94F0BC1440BC1490A3043FF
:100C91000BC7550AF4460B54450ABE470D94500A3A
:100CA1001F2D0A232E0A462B0A27230A44200D7DD5
:100CB1002A09DF4800000A3EE50AB4FF03750A0667
:100CC100120930FC120930FD120930FE120930FF01
:100CD1009002E302034B790AA2D5200314300509DF
:100CE100B910020404B9080104A2D520060250017A
:100CF100042002689202B509005034C0E07F203020
:100D010003197F30A20272067205500F120D30C214
:100D110002C206C205C2087F30800F300503E9C058
:100D2100E0120973300503D0E0F9D0E0B509CC3009
:100D310005177F30B9100C1209737F583004077FF3
:100D4100788003B908031209733002057F2D020967
:100D5100737F202008F87F2B2006F322920280CF98
:100D61007F00B40700500B24E3F582E43402F583DD
:100D7100E0FF22286E756C6C2900D2011209303017
:100D810001F8C201780930D50108F60209DF2D50BA
:100D91004349581209302403B405004001E4900D81
:100DA1008F93120964743A120964D203750904021B
:020DB1000BB580
:1020B600D2009002BB1208E51220F2C0E0FF122403
:1020C6002CD0E040F31216E7400122ECC0E0EDC050
:1020D600E0EEC0E0EFC0E01220F2D0F0AFF0D0F0BA
:1020E600AEF0D0F0ADF0D0F0ACF080D9E475F001F0
:0920F6009002BB1208CE0206059F
:1002C400E9D2E7C933E833F892D5EDD2E7CD33EC80
:0702D40033FC5002B2D522F9
:1002DB00EC30E7100FBF000C0EBE00080DBD000484
:1002EB000BEB6014A2D5EB13FCED92E7FD2274FF30
:1002FB00FCFDFEFF22E480F8A2D574FF13FC7D8089
:03030B00E480EF9C
:10030E00F920E73624F950037907E4F42402FBE5DB
:10031E0082158270021583DBF6E024FB501BE96028
:10032E0014E4F0E582158270021583E004F0B40A3D
:0D033E0008E4F0D9EE7401F00A22C2D522C5
:10034B00ED33EC3392D5FA602AB4FF33EDC2E77B81
:10035B00FF60067A037970E4227A03797920D50459
:10036B007A037974224E614E002B494E46002D497B
:10037B004E4600E47A08F0A3DAFC7B00740722C037
:10038B0083C082ECC0E0EDC0E0EEC0E0EFC0E0EA7D
:10039B0075F010A4CAABF075F04DA42BFBE435F04F
:1003AB00FCEA2410FAEB34C5FBEC34D9FCEDC2E7C4
:1003BB00FF75F056A4F42411C5F0F434C58FF0A4E6
:1003CB002AE5F03BE43CF020E7141204CFD0E0FF29
:1003DB00D0E0FED0E0FDD0E0FC1202278014F40444
:1003EB001204CFD0E0FFD0E0FED0E0FDD0E0FC1255
:1003FB00011ED082D083E0FAEDD2E7CD33EC33246B
:10040B0082FBE4C3CF33CFCE33CECD33CD33DBF34F
:10041B007B0775F00A846004F0A31B0AE5F0F0A3D8
:10042B008FF0740AA4FFACF08EF0740AA42CFEAC0F
:10043B00F050010C8DF0740AA42CFDE435F0F0A300
:05044B00DBDE74072256
:1016D400C201C202C203C204F9E4F508F509FCFD23
:1016E400FEFFE91000EA20030CB42D04D203D32238
:1016F400B42B02D32224D0504794095041240A30F9
:101704000415F88509F0740AA42872E74051C5F05D
:10171400704D85F009D322D202C0E0E4FBFA7920AF
:10172400784112011EECF8EDF9EEFAEFFBD0E0FC83
:10173400E412046B12002D3001B41508D322240ADC
:10174400200420B4FE0720011AD201D32224EB6026
:101754000424E0700EA2039201D204C203D322C374
:101764000202F9E430040BE509300302F404A20197
:1017740092033002EA250820D2E5A2E7920450023F
:10178400F404B4260050D8CCC0E0EDC0E0EEC0E0D4
:10179400EFC0E0EC1204CFD0E0FFD0E0FED0E0FDDB
:1017A400D0E0FC20040512011E800312022730033E
:0617B40003120450C322E1
:10045000ED33EC33600A047003BD8004ECB2E7FCBA
:010460002279
:1004610075F020800E75F010800575F0087D007E16
:10047100007F003392D530D503120883EC3340104E
:10048100EF33FFEE33FEED33FDEC33FCD5F0ED221F
:0E049100E5F0247EA2D513CC92E7CDCEFF225B
:10049F003F8000004120000042C80000447A000065
:1004AF00461C400047C35000497424004B189680E7
:1004BF004CBEBC205A0E1BCA6753C21C749DC5AEDE
:1004CF00FB60065407601C23231204FDEB543860B5
:1004DF00091204E91204F812011EECF8EDF9EEFA14
:1004EF00EFCB22EB1204F880F1543803241C900454
:1004FF009FFE93FC0EEE93FD0EEE930ECE93FF2216
:03000000021B8F51
:0C1B8F00787FE4F6D8FD758121021BD69A
:10050F00E709F608DFFA8046E709F208DFFA803ECE
:10051F0088828C83E709F0A3DFFA8032E309F608BB
:10052F00DFFA8078E309F208DFFA807088828C8323
:10053F00E309F0A3DFFA806489828A83E0A3F608D7
:10054F00DFFA805889828A83E0A3F208DFFA804CB1
:10055F0080D280FA80C680D4806980F28033801088
:10056F0080A680EA809A80A880DA80E280CA8033F1
:10057F0089828A83ECFAE493A3C8C582C8CCC58369
:10058F00CCF0A3C8C582C8CCC583CCDFE9DEE78039
:10059F000D89828A83E493A3F608DFF9ECFAA9F0B8
:1005AF00EDFB2289828A83ECFAE0A3C8C582C8CC0E
:1005BF00C583CCF0A3C8C582C8CCC583CCDFEADE27
:1005CF00E880DB89828A83E493A3F208DFF980CC89
:1005DF0088F0EF60010E4E60C388F0ED2402B40482
:1005EF000050B9F582EB2402B4040050AF23234529
:0605FF00822390055F73EA
:10060500BB010689828A83E0225002E722BBFE02F3
:09061500E32289828A83E4932226
:10061E00BB010CE58229F582E5833AF583E0225091
:10062E0006E92582F8E622BBFE06E92582F8E222DB
:0D063E00E58229F582E5833AF583E49322F5
:10064B00BB0111F8E58229F582E5833AF583E0C811
:10065B0028F0E8225009C58229F8C58226C622BB9C
:10066B00FE0DC58229F8E2C5822582F2E58222EAD7
:07067B002583F583E99322BA
:10068200BB010FF8E58229F582E5833AF583E0287C
:10069200F0225009C58229F8E58226F622BBFE091E
:1006A200C58229F8E22582F222F8EA2583F583E958
:0306B20093282268
:1006B500BB010689828A83F0225002F722BBFE0124
:0206C500F3221E
:1006C700F8BB010DE58229F582E5833AF583E8F069
:1006D700225006E92582C8F622BBFE05E92582C815
:0206E700F222FD
:1006E900EF8DF0A4A8F0CF8CF0A428CE8DF0A42E25
:0206F900FE22DF
:1006FB00BC000BBE0029EF8DF084FFADF022E4CCE3
:10070B00F875F008EF2FFFEE33FEEC33FCEE9DECAB
:10071B00984005FCEE9DFE0FD5F0E9E4CEFD22EDF1
:10072B00F8F5F0EE8420D21CFEADF075F008EF2F3B
:10073B00FFED33FD4007985006D5F0F222C398FD2C
:05074B000FD5F0EA22C9
:10075000C2D5EC30E709B2D5E4C39DFDE49CFCEEC4
:1007600030E715B2D5E4C39FFFE49EFE1206FBC33B
:10077000E49DFDE49CFC80031206FB30D507C3E436
:060780009FFFE49EFE2233
:10078600A3F8E0C5F025F0F0E58215827002158326
:06079600E0C838F0E82283
:10079C00BB010A89828A83E0F5F0A3E02250068728
:1007AC00F009E71922BBFE07E3F5F009E3192289EA
:0B07BC00828A83E493F5F0740193221D
:1007C700BB0110E58229F582E5833AF583E0F5F070
:1007D700A3E0225009E92582F886F008E622BBFE4D
:1007E7000AE92582F8E2F5F008E222E5832AF58393
:0807F700E993F5F0A3E9932258
:1007FF00BB010789828A8302091A500B09C5F027AA
:10080F00F7C5F01937F722BBFE0D09F8E325F0F312
:10081F00C5F019E338F322F889828A83740193258E
:08082F00F0C5F0F8E493382253
:10083700BB010A89828A83F0E5F0A3F0225006F70C
:0F08470009A7F01922BBFE06F3E5F009F3192209
:10085600F8BB0111E58229F582E5833AF583E8F0D4
:10086600E5F0A3F0225009E92582C8F608A6F02291
:0D087600BBFE09E92582C8F2E5F008F22278
:0E088300C3E49FFFE49EFEE49DFDE49CFC2286
:0C089100ECF0A3EDF0A3EEF0A3EFF022DA
:10089D00A8828583F0D083D0821208B41208B412D6
:1008AD0008B41208B4E473E493A3C583C5F0C583FB
:1008BD00C8C582C8F0A3C583C5F0C583C8C582C8A5
:0108CD002208
:1008CE00F8E0FBA3A3E0F925F0F0E58215827002B3
:0708DE001583E0FA38F02257
:0908E500EBF0A3EAF0A3E9F02214
:1008EE00D083D082F8E4937012740193700DA3A399
:1008FE0093F8740193F5828883E4737402936860AD
:06090E00EFA3A3A380DFAC
:060914008A838982E4736E
:10242C00EFC394094005EF940E4004EFB42003D39E
:04243C008001C32236
:10241700E4FFFE120605600C0FEF70010E09E9706C
:05242700F20A80EF2223
:101B9B0002218BE493A3F8E493A34003F68001F2B4
:101BAB0008DFF48029E493A3F85407240CC8C3334B
:101BBB00C4540F4420C8834004F456800146F6DF1A
:101BCB00E4800B010204081020408090196CE47E25
:101BDB00019360BCA3FF543F30E509541FFEE4930F
:101BEB00A360010ECF54C025E060A840B8E493A3D6
:101BFB00FAE493A3F8E493A3C8C582C8CAC583CA01
:101C0B00F0A3C8C582C8CAC583CADFE9DEE780BEB8
:011A340000B1
:10091A00C5F0F8A3E028F0C5F0F8E5821582700268
:06092A001583E038F02205
:00000001FF
