:10258E00202020202020202020202020202020203D
:01259E00003C
:1017530060C400FE00000000280000000100002912
:101763000000000200003C000000030000430000F2
:10177300000400004C0000000500005200000000BF
:1017830000013700000001000138000000020001E1
:10179300390000000300012B000000040001710068
:1017A3000000050001730000000000023400000087
:1017B30001000235000000020002360000000300B1
:1017C300027E0000000400022D00000005000263F9
:1017D300000000000003310000000100033200009C
:1017E30000020003330000000300032A0000000589
:1017F3000003740000000000043000000001000436
:101803002E0000000200043D0000000300042F002E
:1018130000000500046500004700F700000005FF15
:101823000DB3420000000047000200000064FF12F5
:011833007440
:101EFB007B017A007929229001C2A3E02409F582A3
:101F0B0074003EF583229001C5E0FBA3E0FAA3E049
:101F1B00229001CA74FFF0A37425F0A3748EF07B9A
:101F2B0001229001C2E0FEA3E0FFC39410EE648097
:101F3B009480229000CAE4F5F0020856E49001C2A6
:101F4B00F0A3F0229000C902061E9000C802061EE4
:091F5B00A3E0FAA3E0F902091465
:0621B9009000C91206822D
:1021BF00121F4FFF3395E09000CC8FF0120856900E
:1021CF0000CC1207C724F1FFE5F034FF9000CA8F4F
:1021DF00F01208569000CA1207C7C3E5F064809446
:1021EF0080500D121F3E9000CCE475F00F12085670
:0121FF0022BD
:0C261300121F559000C91206C70221BF1B
:10243E00AF059000C8740112064BFD3395E08D82F6
:09244E00F583EF1206C702261304
:10237900121F55D36480948040189000C874FF12CE
:102389000682FF3395E08F82F58374201206C71207
:03239900261322E6
:1025B000121F4FD364809480400574FF1221B9220A
:10245700121F55FF121F4FFEC3EF6480F8EE648012
:0924670098500574011221B922FC
:0B1DB3009001C5EBF0A3EAF0A3E9F0FB
:101DBE00E4FFFE9000C81206C79000CC121F41121D
:101DCE001F3E9000C9E41206C7121F11F98F828EB2
:101DDE0083E41206C70FBF00010EEF64644E70E974
:101DEE00E4FEFF121F112464F9E43AFAE92FF9EA2E
:101DFE003EFA74201206B50FBF00010EEF64104EAE
:101E0E0070E1121F11F990006474301206C7900031
:051E1E0074E40206C798
:100DB300E49001C4F09001C2F0A3F09001C2E0FE00
:100DC300A3E0FFC3941CEE648094804003020F767B
:100DD3007C007D071206E974FE2FF974003EFA7B4E
:100DE30001121FCC9001C4EFF0C394304006E0D34E
:100DF300943940309001C4E0FF642E6027EF643DD6
:100E03006022EF642B601DEF642D6018EF647E6039
:100E130013EF642A600EEF642F6009EF6428600407
:100E2300EFB4290B121EFB9001C4E0FD12243E9087
:100E330001C4E0B47312121EFB7D7312243E7D695C
:100E430012243E7D6E12243E9001C4E0B46312125C
:100E53001EFB7D6312243E7D6F12243E7D7312249C
:100E63003E9001C4E0B47412121EFB7D7412243E42
:100E73007D6112243E7D6E12243E9001C4E06471B4
:100E83007017121EFB7D7312243E7D7112243E7D6A
:100E93007212243E7D7412243E9001C4E0B46508AE
:100EA300121EFB7D5E12243E9001C4E0B43C061288
:100EB3001EFB1223799001C4E0B44306121EFB12F9
:100EC3001DB39001C4E0B44C06121EFB1225B09072
:100ED30001C4E0B45206121EFB1224579001C4E071
:100EE300643D707B90008D7428F0E49001C2F0A300
:100EF300F09000F1E0FF3395E0FE9001C2E0FCA327
:100F0300E0FDC39FEE6480F8EC6480985028742958
:100F13002DF58274003CF583E0FF748E2DF5827409
:100F2300003CF583EFF09001C3E004F070C390013F
:100F3300C2E004F080BB9001C2E0FEA3E0FF248D79
:100F4300F58274003EF5837429F0748E2FF5827454
:100F5300003EF583E4F07B017A00798D1219259028
:100F630001C3E004F06003020DBE9001C2E004F08F
:030F7300020DBEAE
:010F76002258
:10127400121F479000F2E0F9FD3395E0FCA3E0FA79
:10128400A3E0FBC3ED9BFEEC9A9001C4F0A3CEF067
:10129400E9FF3395E0FE74292FF58274003EF5834F
:1012A400E09001C6F0121F1C7A0079091222C212C2
:1012B4001F1C7A0079191222C212266F9000F1E0E5
:1012C4007007FFFE1225F980239000F3E0FEA3E0EF
:1012D4002429F974003EFA9001CA7401F0A3EAF0DB
:1012E400A3E9F07B017A0079091222C2900000E0A0
:1012F4007004A3E06401700D9001C4E0FE121F05A8
:10130400745FF080209001C6E070037420F09001B7
:10131400C6E0FF9001C4E0FCA3E02409F582740058
:101324003CF583EFF0D39000F4E094009000F3E0F8
:10133400648094804006900009747FF0121F471265
:101344001F2D502074092F121F09E0B47E06121FAE
:1013540002742DF09001C3E004F070E39001C2E048
:1013640004F080DB121F47121F2D502074092F1226
:101374001F09E0B42F06121F0274FDF09001C3E0B0
:1013840004F070E39001C2E004F080DB7B017A009A
:101394007909E4FDFF1220D97B017A00798D7D0162
:1013A400E4FF1220D9900000E07002A3E070047FF3
:1013B4000180027F00900000E4F0A3EFF002266CAD
:102546007B017A0079F71225EC7B017A0079020289
:0225560025EC72
:1022450012248912239C7BFF7A25794612261F12B8
:1022550025C0121EFB121DB37A0079F712227D707C
:10226500069000FB121F5B7A00790212227D70E84E
:10227500900006121F5B80E07B011224FAEF6401D7
:022285004E22E7
:0618340043034400000024
:1025C000758A18758CFC438901D2A9D2AFD28C22AE
:03266C00D2A922CE
:03266F00C2A922DB
:0C261F00900344EBF0A3EAF0A3E9F022E2
:03000B0002202CA4
:10202C00C0E0C0F0C083C082C0D075D000C000C07A
:10203C0001C002C003C004C005C006C007C2AF7512
:10204C008A18758CFC900344E0FBA3E0FAA3E0F93A
:10205C004A600989828A83E4FF120918D2AFD0073B
:10206C00D006D005D004D003D002D001D000D0D0FF
:09207C00D082D083D0F0D0E03214
:102558009000021207C7FFAEF012079CC39FE5F078
:022568009E22B1
:0D25EC001225585007E475F0011207FF2278
:1024FA00122558E4400AF5F01208377E007F0122BF
:03250A00FEFF22AF
:10259F00202020202020202020202020202020202C
:0125AF00002B
:04183A00020D03E8B0
:1023E000D2A67590FFD2A712000EAB90C2A7120022
:1023F0000EAF0322C2A68F90D2A712000EC2A72250
:10256A007C007D0D1206FBEF1FAC0670011E4C703D
:01257A00F66A
:01257B00223D
:10000E00780DE6FE08E6FFD3940AEE6480948040F5
:05001E000312256A2217
:07000300E4FBC2A51223E09B
:01000A0022D3
:07264C00E4FBD2A51223E01C
:012653002264
:0B250D00EF2480FFED75F040A42FFFCD
:08251800C2A51223F402000E1B
:08265400D2A51223F402000ECE
:10239C00780D76030876E87F081225187F0C122535
:1023AC00187F011225187F38122518E4780DF608CD
:0223BC00F62207
:08265C0012250DAF0302265404
:0B20D9009001C7EBF0A3EAF0A3E9F0D0
:1020E400E4A3F0A3F012250D9001C7E0FBA3E0FAEE
:1020F400A3E0F9A3E0FCA3E0FDF5828C8312061EA5
:10210400FF601ED3ED940FEC64809480501312266C
:10211400549001CBE004F070CF9001CAE004F08049
:01212400C7F3
:012125002297
:0D25F900AD077BFF7A25799FE4FF0220D912
:1024700090032EE0FBA3E0FAA3E0F922900339E0F9
:09248000FEA3E0FF7C007D0A22AE
:10163B0090032EEBF0A3EAF0A3E9F0A3ECF0A3EDFB
:01164B00F0AE
:10164C00E4A3F0A3F0A3F0A3F0A3F0A3F0A37427FA
:10165C00F0A37410F0C3EC64809480501D122470BD
:10166C00742D1206B5900331E0FEA3E0FFC3E49F96
:10167C00FFE49E900331F0A3EFF0E4900333F0A36A
:10168C00F0900333E0FEA3E0FFC39405EE64809476
:10169C00804003021740EF4E601F12247C1206E9B3
:1016AC00900331E0FCA3E0FDCFCDCFCECCCE120722
:1016BC0050900335ECF0A3EDF0900335E0FEA3E081
:1016CC00FF900339E0FAA3E0FBFDAC021207509047
:1016DC000335EEF0A3EFF0C3900332E09BEA648095
:1016EC00F8900331E06480984028900335A3E024FF
:1016FC0030FF122470900337E0FCA3E0F5828C835A
:10170C00EF1206C7900338E004F07006900337E040
:10171C0004F012247C120750900339EEF0A3EFF082
:10172C00900334E004F0600302168D900333E00460
:10173C00F002168D900331E07002A3E070081224C1
:06174C007074301206B5B6
:011752002274
:0B22C2009001C7EBF0A3EAF0A3E9F0E5
:1022CD00E4FFFE9001CA1224738F828E8312061EC4
:1022DD00FD60159001C71224738F828E83ED120657
:0822ED00C70FBF00010E80DBEA
:0122F50022C6
:1022000024FFFFE034FFFEC3ED9FEE6480F8EC6432
:10221000809822EBF0A3EAF0A3E9F0E422F9E0FCD5
:10222000A3E0FDF5828C83EF0206C7E0FBA3E0FA92
:10223000A3E0221226067E007F01229FEE6480F832
:05224000E0648098221B
:0325D000F0A3F085
:0B25D300D2B4D2B5C2B5C2B4D2B5225A
:0D260600C2B4C2B5D2B4D2B5C2B5D2B522AD
:0E25DE00C2B4EF24FF92B5D2B4C2B4D2B5227B
:10252000C200C2B4D2B5D2B4A2B59200C2B4D2B580
:02253000A20007
:012532002286
:0223BE00AE0768
:1023C000E4FDFCEE30E7047F018002E4FF1225DE2D
:0F23D000EE25E0FE0DBD00010CED64084C70E43D
:0123DF0022DB
:1022F600E4F99001D9F07F07FE122520E43390011E
:10230600D9F0AD07E0FCA805088002C333D8FC4924
:0E231600F9EF1F70011EBEFFE0BFFFDDAF013B
:012324002296
:10242000E4FFFE12252050130FBF00010ED3EF94DE
:0D24300064EE6480948040EB7F00227F0109
:01243D00227C
:031CD0009001D2AE
:101CD3001222139001D71225D0EF25E04401FF1201
:101CE30023BE122420EF7003FEFF22E49001D7F0FD
:101CF300A3F09001D5E0FEA3E0FFC39001D8E090EC
:101D030001D712223B50341222F69001D212222B19
:101D13009001D712221D9001D6E09001D512220026
:101D23005004E4FF80027F011225DE9001D8E00415
:0E1D3300F070BF9001D7E004F080B7122233A9
:011D4100227F
:091BA00090033BEFF0A3EDF0A36C
:101BA9001222139003421225D090033BE025E05402
:101BB900FE121C3A7003FEFF2290033CE0FF122341
:101BC900BE122420EF7003FEFF221225D390033B9F
:101BD900E025E04401121C3A7003FEFF22E4900361
:101BE90042F0A3F0900340E0FEA3E0FFC39003435B
:101BF900E090034212223B50341222F690033D1228
:101C0900222B90034212221D900341E090034012BF
:101C190022005004E4FF80027F011225DE90034375
:101C2900E004F070BF900342E004F080B712223361
:0B1C390022FBFF1223BE122420EF222A
:031E90009001D2EC
:101E93001222139001D7F0A3F01225D3EF25E054BB
:101EA300FEFF1223BE122420EF7003FEFF22E490F4
:101EB30001D7F0A3F09001D5E0FEA3E0FFA3E0FC7F
:101EC300A3E0FDC3122209502B9001D212222BF959
:101ED3008D828C8312061EFF1223BE122420EF7004
:101EE30003FEFF229001D8E004F070C99001D7E00F
:071EF30004F080C11222334C
:011EFA0022C5
:10248900438920758DFD758BFDC29FD29ED29CE438
:09249900F587D2ACD2AFD28E223D
:082664008F993099FDC2992203
:0A264200AE07C2AF122664D2AF2229
:0B232500900347EBF0A3EAF0A3E9F0FF
:10233000E4FDFC900347E0FBA3E0FAA3E0F98D8203
:102340008C8312061EFF600A1226420DBD00010C8E
:0223500080E12A
:012352002268
:030023000226377B
:0B263700309802C298209902C299322C
:1024BA00EF2420FF7B01E4F0A304F0229001CEE098
:0724CA00FF7401A8070822BE
:10257C009001D0EDF07A0179D09001D51224BA02F5
:02258C001E909F
:102533007A0179D09001D51224BA121CD09001D01F
:02254300E0FFB7
:012545002273
:0D2287009001CEEDF0A3EBF09001CDEFF053
:10229400122533AE079001CFE0600D1224C68002F0
:1022A400C333D8FC4EFE800C1224C68002C333D83C
:0E22B400FCF45EFE9001CDE0FFAD0602257C3D
:052400009001CDEDF09C
:102405001225339001CDE0FE7401A806088002C3B1
:0A24150033D8FC5F7002FF227F0144
:01241F00229A
:0C262B009001C5E0FBA3E0FAA3E0F92257
:0E2126009001C9EEF0A3EFF0A3ECF0A3EDF0F2
:102134007F017DFFE41F12257C7DFF7F0112257C3A
:102144009001C9A3E0FDE4FBFF1221667B017F013E
:102154001221667F01122400EF70047F0180027F48
:01216400007A
:0B216500221222879001CBA3E0FD2294
:0B1FCC009001C5EBF0A3EAF0A3E9F0E0
:101FD700E4A3F012262B12079CFFAEF0900002122A
:101FE70007C7FDACF012212612262B900006EF1230
:101FF70006C790000512061EB4011512262B900085
:102007000612061E700A90000412061E9001C8F000
:1020170012262B90000612061E9000051206C79086
:0420270001C8E0FF0D
:01202B002292
:1024A20025660063616C5F6571756174696F6E3A70
:0824B20025730A00FFFFFFFF84
:10150700EEF0A3EFF0900232E0FBA3E0FAA3E0F9DC
:10151700229002ACE0FEA3E09002D9FFE0FCA3C357
:10152700E0FD9FEE6480F8EC64809822E0F9A3E088
:10153700FAA3E09002ACC9F0A3EAF0A3E9F0228D88
:10154700828C8312061EFF229002D1E0F8A3E0F9F5
:10155700A3E0FAA3E0FB9002CDE0FCA3E0FDA3E04B
:10156700FEA3E0FF229002BDE0FCA3E0FD9002B6DF
:10157700E02DFD9002B5E03CFC8D828C83EF0206E6
:10158700C79002DBE475F001020786E4F0A3F0A33D
:10159700F0A3F022F0A3EFF07B017A0179C8229043
:1015A70002CDE0F8A3E0F9A3E0FAA3E0229002ACB1
:1015B700E0FFA3E09002B2CFF0A3EFF0223CF58367
:1015C700EFF09002DAE004F022E0FEA3E0FF9002E1
:1015D700B522E0FFA3E09002B5CFF0A3EFF022EE33
:1015E7009002AEF0A3EFF022E0FFA3E09002AFCFAE
:1015F700F0A3EFF022E0FFA3E09002B1CFF0A3EF5A
:10160700F022F5828E8302061E9002AEE0FEA3E072
:10161700FF9002B222EEF0A3EFF0E422E0FCA3E099
:10162700F58222F0A3F09002D9F0A3F0229002D91C
:04163700E004F022B9
:071E2300900232EB12153EA4
:101E2A00E4A3F0A3F078377C027D017BFF7A247962
:101E3A00B6FE7F041205DF90023212150FA3E0FEF0
:101E4A00A3E01216096038B4280C900235A3E0FF0B
:101E5A00A3EEF0A3EFF090023212150F12156512DD
:101E6A001609B4290A900239EEF0A3EFF080109017
:101E7A000236E004F070C0900235E004F080B87BCE
:051E8A00017A02793726
:011E8F002230
:071D42009002A9EB12153E0F
:101D49009002B31215929002B0E02401FE9002AF06
:101D5900E034009002B3F0A3CEF09002B1E0FEA30C
:101D6900E0A3121522502E9002AC12150F1215463F
:101D79009002A912150F9002B512158B85F082F504
:101D890083EF1206C79002B4E004F070CD9002B35D
:101D9900E004F080C59002A912150F9002B5121542
:0A1DA9008B85F082F583E40206C783
:0C1AEA009002C3EDF09002C0EB12153E1C
:101AF600E49002C6F0A3F01224D19002C812161C7C
:101B06009002C4F0A3F09002C8E0FEA3E0FF9002AA
:101B1600C412152350349002C012150F12154690A8
:101B260002C3E06F60149002C612158BFC74CA25BE
:101B3600F0F58274023CF583EFF09002C5E004F004
:101B460070C49002C4E004F080BC9002C612158BEB
:101B5600FE74CA25F0F58274023EF583E4F0900225
:101B6600C4F0A3F09002C6E0FEA3E0FF9002C41208
:101B76001523502574CA2DF58274023CF583E0FFC7
:101B86009002C012150F1215809002C5E004F07085
:091B9600D39002C4E004F080CBFE
:011B9F002223
:0C1F6400900235EDF0900232EB12153EB9
:101F70001224D1E4900238F0A3F0900238EEF0A3DE
:101F8000EFF0900236E0FEA3E0FFA31215234025F8
:101F900090023212150F8D828C8312061E8D828C58
:101FA00083A31206C7900239E024FFF0900238E0C4
:101FB00034FFF080CD900235E0FF90023212150F11
:0C1FC0009002361216238C83EF0206C735
:071107009002A9EB12153E56
:10110E009002B51215929002AC12150F1224D190C6
:10111E0002B9EEF0A3EFF09002A912150F1224D12E
:10112E009002BBEEF0A3EFF09002AFE0FEA3E0FF63
:10113E00C39002B2E09FFF9002B1E09ECF24FFCF9A
:10114E0034FFFEC39002BAE09FFF9002B9E09E907A
:10115E0002BDF0A3EFF0A37423F09002B3E070048D
:10116E00A3E06401701D9002BFE0FF9002A912156A
:10117E000F9002AF1216231215829002B11216238F
:10118E00121582D39002BEE094009002BDE06480FE
:10119E009480402D9002BB1215D99002B11215D039
:1011AE00121523401C9002A912150F121546121586
:1011BE006C9002B6E024FFF09002B5E034FFF080B0
:1011CE00D9C39002BDE06480948050319002B11278
:1011DE0015D99002BB1215D0E0FCA3D312152750DF
:1011EE001C9002A912150F12154612156C9002B61C
:1011FE00E004F070069002B5E004F080D5E49002B1
:10120E00B5F0A3F09002B91215D0121523503C90F0
:10121E0002AC12150F1215469002B0E02401FD909B
:10122E0002AFE03400FC9002B6E02DFD9002B5E076
:10123E003CFC9002A912150F1215809002B6E00424
:10124E00F070069002B5E004F080B99002B3E07041
:10125E0004A3E06401700E9002A912150F9002BF54
:05126E00E0FD121AEA88
:011273002258
:10235300EF642B6018EF647E6013EF642A600EEF66
:10236300642F6009EF64286004EFB429057E007FC1
:062373000122E4FEFF223E
:070F77009002A9EB12153EE8
:100F7E001224D19002AC12161CA3F09002CD1208CE
:100F8E009D000000009002D112089D00000000900C
:100F9E0002D512089D00000000E49002D9121593AC
:100FAE00A312162A121518503B9002A912150F12F1
:100FBE001546122353EF64014E701F9002A91215AD
:100FCE000F9002D9E0FEA3E0FF1216099002AEF0D8
:100FDE009002DDEEF0A3EFF0800A1215C970C51273
:100FEE00163480C0E49002DB12162A9002DD121530
:100FFE001B501F9002A912150F121546121588FCD0
:10100E0074AF25F0F58274021215C470DE12163418
:10101E0080D9121588FE74AF25F0F58274023EF564
:10102E0083E4F09002DBF0A3F09002DEE02401FEF8
:10103E009002DDE034009002D9F0A3CEF012151824
:10104E00501F9002A912150F121546121588FC7426
:10105E00BE25F0F58274021215C470E112163480AA
:10106E00DC121588FE74BE25F0F58274023EF583FF
:10107E00E4F07B017A0279AF1221709002CD120852
:10108E00917B017A0279BE1221709002D1120891E1
:10109E009002AEE024D6602324FB602E24B16013B0
:1010AE00245370329002D11215601215A6FB120055
:1010BE002D801D12154F12002980159002D1121588
:1010CE00601215A6FB12011E800612154F12022782
:1010DE009002D51208919002E274FFF0A37424F0EE
:1010EE00A374A2F09002D51215609002E512089139
:0910FE009002A912150F020995D8
:0C2085009002ACEDF09002A9EB12153EA9
:102091001224D19002AE12161CFFFED39002AFE0C3
:1020A1009FEE6480F89002AEE06480984026900232
:1020B100A912150F8F828E8312061EFD9002ACE0CD
:1020C1006D6005A3E0B505057E007F01220FBF000D
:0720D100010E80C7E4FEFFD1
:0120D80022E5
:0D1A0A009002A9EB12153EA3ECF0A3EDF045
:101A1700E49002B2F0A3F074FFA3F0A3F0C3900226
:101A2700AFE09DEC6480F89002AEE0648098405986
:101A37001215B4121610E0FCA3E0FDD312152940CD
:101A470003021AE19002B0E07017A3E0701390024E
:101A5700A912150F121546122353EF4E601B021AD7
:101A6700CC9002A912150F1215469002B0E06F60D4
:101A770005A3E0B50703021ACC9002B3E004F070A7
:101A8700B29002B2E004F080AA1215B41216101236
:101A9700152340469002B0E07016A3E07012900242
:101AA700A912150F121546122353EF4E601C80150D
:101AB7009002A912150F1215469002B0E06F60054B
:101AC700A3E0B507059002B280139002B3E024FFAC
:101AD700F09002B2E034FFF080B29002B4E0FEA3CF
:021AE700E0FF1E
:011AE90022DA
:0713C400900232EB12153E0E
:1013CB00E4A3F0A3F01224D190023DEEF0A3EFF0D2
:1013DB009002A312089D000000009002A7742AF04F
:1013EB00A3742FF012150C9002A7E0FDA3E090025E
:1013FB00ADF0122085EF64014E60030214C9121583
:10140B000C1224D190023D1215071215E69002A77B
:10141B00E09002B0F09002A8E09002B1F0E4FDFC85
:10142B00121A0A900239121507EF24FFFDEE34FF52
:10143B00FCE49002AE121593121A0A9002371215A1
:10144B000790023AE02401FD900239E03400FC9051
:10145B00023DE0FFA3E0CF1215E7E4A3F0A3F012E7
:10146B001A0A90023BEEF0A3EFF090023212153302
:10147B00900237E0FDA3E09002AFCDF0A3EDF0A317
:10148B00EEF0A3EFF07B017A02793F121D427B0154
:10149B007A02793F120F779002AC7401F0A37402B9
:1014AB00F0A3743FF09002371215EF90023B121528
:1014BB00FCE4A3F0A312150B1211070213EF900219
:1014CB00A7E0FFB42B06A3E0647E6020EF642A60E4
:1014DB00030213EF9002A8E0642F60030213EF9056
:1014EB0002A7742BF0A3747EF00213EF12150C7D80
:0C14FB0029121AEA12150C7D28021AEAC8
:071925009001C5EB12153E15
:10192C009001C512150F1224D11215E69001C512A3
:10193C00150FE49002B0F0A3F0FDFC121A0AEFF4BC
:10194C007002EEF47003021A099001C51215AC90E6
:10195C0002E212153D7BFF7A2479A512099B9001B6
:10196C00C512150F121E23782E7C027D017E007F7E
:10197C00041205DF9001C512153390022EE0FFA36F
:10198C00E09002AFCFF0A3EFF0900230E0FFA3E0C5
:10199C009002B1CF12159B121D4212159FE49002BA
:1019AC0036F0A3F07D29121F6412159F1224D190DA
:1019BC000236EE12159B7D28121F6412159F12130E
:1019CC00C412159F7D29121AEA12159F7D28121A2E
:1019DC00EA9002AC7401F0A37401F0A374C8F09007
:1019EC00022E1215EF9002301215FCA3E4F0A304A2
:0D19FC00F09001C512150F12110702192CF1
:011A090022BA
:100026000202F9E86480F8E933E83360110460F00D
:10003600ED33EC337009E8FCE9FDEAFEEBFF220440
:1000460060DED3EB9FEA9EE99DE8C2E78CF0C2F73B
:1000560095F0400CE8CCF8E9CDF9EACEFAEBCFFB07
:100066001202C485D0F05804700320D5B3E804709A
:10007600075002B2D502030392D5EC0460F7E4CC34
:10008600C0E0C398F8603B94186008400DD0E0FBD0
:100096000202DBE4FBFAC9FC8028E830E406E4C986
:1000A600FBE4CAFCE830E305E4C9CACBFCE8540724
:1000B6006010F8C3E913F9EA13FAEB13FBEC13FC2F
:1000C600D8F130F52FC3E49CFCEF9BFFEE9AFEEDD2
:1000D60099FDD0E0FBEF4E4D4C701222DB0302037C
:1000E60000EC2CFCEF33FFEE33FEED33FDED30E795
:1000F600EB0202DBEF2BFFEE3AFEED39FDD0E0FB23
:1001060050130BBB0003020303ED13FDEE13FEEFCA
:0801160013FFEC13FC0202DBF5
:10011E00EC4D6011E8497017ED33EC3304600DE4DB
:10012E00FCFFFEFD22E933E8330470F80202F912F7
:10013E0002C458046009E4CC2481500628500902F8
:10014E000303284003020300C0E0EB4A7044B98069
:10015E0006D0E0FB0202EFEF4E701CBD8008EBFFF5
:10016E00EAFEE9FD80EBE98DF0A4FEE5F002020760
:10017E00E9CDF9EAFEEBFFEF89F0A4FCE5F0CE89BC
:10018E00F0A42EFFE435F0CD89F0A42DFEE435F079
:10019E008067EF4E7005BD80D780C3EF8BF0A4ACA7
:1001AE00F0EE8BF0A42CFCE435F0F8EF8AF0A42CE2
:1001BE00E5F038FCE433CB8DF0A42CFCE5F03BF8F5
:1001CE00EE8AF0A42CFCE5F038F8E433CF89F0A4E5
:1001DE002CFCE5F038CF3400CE89F0A42FFFE5F0EB
:1001EE003EFEE433C98DF0A42EFEE5F039CD8AF043
:1001FE00A42FFFE5F03EFEE43DFD33D0E0FB5007BB
:10020E000BBB000F020303EC2CFCEF33FFEE33FEAF
:06021E00ED33FD0202DBDE
:10022400020303EC5D046005E8590470030202F95B
:100234001202C4580460F6EC4860F2EC7004FDFE4F
:10024400FF22C860DB2481C85009C39860025006AD
:100254000203009850CAF582E9294B4A7005AB8223
:100264000202EF75F0007C1A7880C3EF9BEE9AEDE2
:1002740099400DC3EF9BFFEE9AFEED99FDE842F025
:10028400DC23ACF0D0E0FFD0E0FED0E0FDAB822078
:10029400E7101BEB60BAEC2CFCEF33FFEE33FEED02
:1002A40033FD0202DBE803F830E705C0F075F00027
:1002B400EF2FFFEE33FEED33FD40B830E7C280AAE6
:10093000E50824E2F582E43402F583E0050822901C
:1009400002DF3007039002E2E475F0011208CE02E4
:1009500006052000E97F2ED2008018EF540F249066
:10096000D43440D4FF30040BEF24BFB41A0050033A
:100970002461FFE50960021509050CE50C7002050C
:100980000B30070E9002DFE475F0011208CEEF0283
:1009900006B50226427403D2078003E4C207F508B5
:1009A0009002DF1208E5E4F509F50BF50CE50960A6
:1009B000077F2012097380F5750AFFC201C200C2C9
:1009C00002C203C205C206C20812093FFF700D3001
:1009D00007057F00120984AF0CAE0B22B4255FC25D
:1009E000D5C20412093FFF24D0B40A00501A75F092
:1009F0000A780930D50508B6FF0106C6A426F620F8
:100A0000D5047002D20380D924CFB41A00EF500469
:100A1000C2E5D204020C76D20180C6D20080C0D2D8
:100A20000280BCD2D580BAD20580B47F201209736F
:100A30002002077401B5090040F1120930FF1209C4
:100A4000730209ADD208D2068095120930FB120953
:100A500030FA120930F94A4B700679747A0D7BFF2F
:100A600020022EE509602A7E008E82758300120620
:100A70001E60060EEE650A70F0C2D5EBC0E0EAC05B
:100A8000E0E9C0E0EE120CD7D0E0F9D0E0FAD0E017
:100A9000FB120605FF60AAEBC0E0EAC0E0E9C0E097
:100AA000120973D0E02401F9D0E03400FAD0E0FB61
:100AB000E50A0460DCD50AD98087D20280A2120C34
:100AC000B960F7E50A70010412030EA90A600DE58A
:100AD0000A600914F50A120D61EF60F3EA30E702CB
:100AE000F404C3995079EAF4250A0430E701E404D8
:100AF000F50A800D120CB960C1EA050A250A120335
:100B00000EEA90030EF030E701E4250A04D50A044A
:100B100020050114120CD7E4C0E0120D6190030E01
:100B2000E0601320E70714F012095B802204F0D084
:100B3000E014C0E07F0012095BE50A600712095269
:100B4000150A800B300503120952D0E00209ADD01E
:100B5000E00480C4120CB9609EE50A0412030E90F2
:100B6000030EEAF0E50A2005026001042404120CD9
:010B7000D7AD
:100B710074FF04C0E0120D6112095BE50A20050251
:100B81006003120952D0E0B50AE87F451209659069
:100B9100030EE07F2B30E7047F2DF404C0E012093F
:100BA10073D0E075F00A84C0F012095CD0E012093C
:100BB1005C0209AD791080027908C206C20880087A
:100BC100D2D5790A8004790AC2D5E50A047002F502
:100BD1000AE4FAFDFEFF120930FC7B082001131222
:100BE1000930FD7B1030000A120930FE120930FF76
:100BF1007B20EC3382D592D55013C3E43000069F9D
:100C0100FFE49EFEE42001039DFDE49CFCE4CBF89F
:100C1100C201EC700CCFCECDCCE824F8F870F38093
:100C210017C3EF33FFEE33FEED33FDEC33FCEB3353
:100C3100FB994002FB0FD8E9EB300105F8D0E0C485
:100C410048B201C0E00AEC4D4E4F78207B0070C2E3
:100C5100EAB50A0040BCC0E0120CD9D0F0D0E020C7
:100C61000104C4C0E0C4B201C0F012095CD0F0D5E7
:100C7100F0EB0209AD1208EE0A4A530BB5580A1BF4
:100C81004C0A17420BB94F0BC1440BC1490A3043FF
:100C91000BC7550AF4460B54450ABE470D94500A3A
:100CA1001F2D0A232E0A462B0A27230A44200D7DD5
:100CB1002A09DF4800000A3EE50AB4FF03750A0667
:100CC100120930FC120930FD120930FE120930FF01
:100CD10090030702034B790AA2D5200314300509BA
:100CE100B910020404B9080104A2D520060250017A
:100CF100042002689202B509005034C0E07F203020
:100D010003197F30A20272067205500F120D30C214
:100D110002C206C205C2087F30800F300503E9C058
:100D2100E0120973300503D0E0F9D0E0B509CC3009
:100D310005177F30B9100C1209737F583004077FF3
:100D4100788003B908031209733002057F2D020967
:100D5100737F202008F87F2B2006F322920280CF98
:100D61007F00B40700500B2407F582E43403F583B8
:100D7100E0FF22286E756C6C2900D2011209303017
:100D810001F8C201780930D50108F60209DF2D50BA
:100D91004349581209302403B405004001E4900D81
:100DA1008F93120964743A120964D203750904021B
:020DB1000BB580
:10217000D2009002DF1208E51221ACC0E0FF122469
:10218000E6D0E040F3121852400122ECC0E0EDC06E
:10219000E0EEC0E0EFC0E01221ACD0F0AFF0D0F044
:1021A000AEF0D0F0ADF0D0F0ACF080D9E475F00135
:0921B0009002DF1208CE020605C0
:1002C400E9D2E7C933E833F892D5EDD2E7CD33EC80
:0702D40033FC5002B2D522F9
:1002DB00EC30E7100FBF000C0EBE00080DBD000484
:1002EB000BEB6014A2D5EB13FCED92E7FD2274FF30
:1002FB00FCFDFEFF22E480F8A2D574FF13FC7D8089
:03030B00E480EF9C
:10030E00F920E73624F950037907E4F42402FBE5DB
:10031E0082158270021583DBF6E024FB501BE96028
:10032E0014E4F0E582158270021583E004F0B40A3D
:0D033E0008E4F0D9EE7401F00A22C2D522C5
:10034B00ED33EC3392D5FA602AB4FF33EDC2E77B81
:10035B00FF60067A037970E4227A03797920D50459
:10036B007A037974224E614E002B494E46002D497B
:10037B004E4600E47A08F0A3DAFC7B00740722C037
:10038B0083C082ECC0E0EDC0E0EEC0E0EFC0E0EA7D
:10039B0075F010A4CAABF075F04DA42BFBE435F04F
:1003AB00FCEA2410FAEB34C5FBEC34D9FCEDC2E7C4
:1003BB00FF75F056A4F42411C5F0F434C58FF0A4E6
:1003CB002AE5F03BE43CF020E7141204CFD0E0FF29
:1003DB00D0E0FED0E0FDD0E0FC1202278014F40444
:1003EB001204CFD0E0FFD0E0FED0E0FDD0E0FC1255
:1003FB00011ED082D083E0FAEDD2E7CD33EC33246B
:10040B0082FBE4C3CF33CFCE33CECD33CD33DBF34F
:10041B007B0775F00A846004F0A31B0AE5F0F0A3D8
:10042B008FF0740AA4FFACF08EF0740AA42CFEAC0F
:10043B00F050010C8DF0740AA42CFDE435F0F0A300
:05044B00DBDE74072256
:10183F00C201C202C203C204F9E4F508F509FCFDB6
:10184F00FEFFE91000EA20030CB42D04D203D322CB
:10185F00B42B02D32224D0504794095041240A308C
:10186F000415F88509F0740AA42872E74051C5F0F1
:10187F00704D85F009D322D202C0E0E4FBFA792043
:10188F00784112011EECF8EDF9EEFAEFFBD0E0FC17
:10189F00E412046B12002D3001B41508D322240A70
:1018AF00200420B4FE0720011AD201D32224EB60BA
:1018BF000424E0700EA2039201D204C203D322C308
:1018CF000202F9E430040BE509300302F404A2012B
:1018DF0092033002EA250820D2E5A2E792045002D3
:1018EF00F404B4260050D8CCC0E0EDC0E0EEC0E068
:1018FF00EFC0E0EC1204CFD0E0FFD0E0FED0E0FD6F
:10190F00D0E0FC20040512011E80031202273003D1
:06191F0003120450C32274
:10045000ED33EC33600A047003BD8004ECB2E7FCBA
:010460002279
:1004610075F020800E75F010800575F0087D007E16
:10047100007F003392D530D503120883EC3340104E
:10048100EF33FFEE33FEED33FDEC33FCD5F0ED221F
:0E049100E5F0247EA2D513CC92E7CDCEFF225B
:10049F003F8000004120000042C80000447A000065
:1004AF00461C400047C35000497424004B189680E7
:1004BF004CBEBC205A0E1BCA6753C21C749DC5AEDE
:1004CF00FB60065407601C23231204FDEB543860B5
:1004DF00091204E91204F812011EECF8EDF9EEFA14
:1004EF00EFCB22EB1204F880F1543803241C900454
:1004FF009FFE93FC0EEE93FD0EEE930ECE93FF2216
:03000000021C449B
:0C1C4400787FE4F6D8FD758121021C8B2E
:10050F00E709F608DFFA8046E709F208DFFA803ECE
:10051F0088828C83E709F0A3DFFA8032E309F608BB
:10052F00DFFA8078E309F208DFFA807088828C8323
:10053F00E309F0A3DFFA806489828A83E0A3F608D7
:10054F00DFFA805889828A83E0A3F208DFFA804CB1
:10055F0080D280FA80C680D4806980F28033801088
:10056F0080A680EA809A80A880DA80E280CA8033F1
:10057F0089828A83ECFAE493A3C8C582C8CCC58369
:10058F00CCF0A3C8C582C8CCC583CCDFE9DEE78039
:10059F000D89828A83E493A3F608DFF9ECFAA9F0B8
:1005AF00EDFB2289828A83ECFAE0A3C8C582C8CC0E
:1005BF00C583CCF0A3C8C582C8CCC583CCDFEADE27
:1005CF00E880DB89828A83E493A3F208DFF980CC89
:1005DF0088F0EF60010E4E60C388F0ED2402B40482
:1005EF000050B9F582EB2402B4040050AF23234529
:0605FF00822390055F73EA
:10060500BB010689828A83E0225002E722BBFE02F3
:09061500E32289828A83E4932226
:10061E00BB010CE58229F582E5833AF583E0225091
:10062E0006E92582F8E622BBFE06E92582F8E222DB
:0D063E00E58229F582E5833AF583E49322F5
:10064B00BB0111F8E58229F582E5833AF583E0C811
:10065B0028F0E8225009C58229F8C58226C622BB9C
:10066B00FE0DC58229F8E2C5822582F2E58222EAD7
:07067B002583F583E99322BA
:10068200BB010FF8E58229F582E5833AF583E0287C
:10069200F0225009C58229F8E58226F622BBFE091E
:1006A200C58229F8E22582F222F8EA2583F583E958
:0306B20093282268
:1006B500BB010689828A83F0225002F722BBFE0124
:0206C500F3221E
:1006C700F8BB010DE58229F582E5833AF583E8F069
:1006D700225006E92582C8F622BBFE05E92582C815
:0206E700F222FD
:1006E900EF8DF0A4A8F0CF8CF0A428CE8DF0A42E25
:0206F900FE22DF
:1006FB00BC000BBE0029EF8DF084FFADF022E4CCE3
:10070B00F875F008EF2FFFEE33FEEC33FCEE9DECAB
:10071B00984005FCEE9DFE0FD5F0E9E4CEFD22EDF1
:10072B00F8F5F0EE8420D21CFEADF075F008EF2F3B
:10073B00FFED33FD4007985006D5F0F222C398FD2C
:05074B000FD5F0EA22C9
:10075000C2D5EC30E709B2D5E4C39DFDE49CFCEEC4
:1007600030E715B2D5E4C39FFFE49EFE1206FBC33B
:10077000E49DFDE49CFC80031206FB30D507C3E436
:060780009FFFE49EFE2233
:10078600A3F8E0C5F025F0F0E58215827002158326
:06079600E0C838F0E82283
:10079C00BB010A89828A83E0F5F0A3E02250068728
:1007AC00F009E71922BBFE07E3F5F009E3192289EA
:0B07BC00828A83E493F5F0740193221D
:1007C700BB0110E58229F582E5833AF583E0F5F070
:1007D700A3E0225009E92582F886F008E622BBFE4D
:1007E7000AE92582F8E2F5F008E222E5832AF58393
:0807F700E993F5F0A3E9932258
:1007FF00BB010789828A8302091A500B09C5F027AA
:10080F00F7C5F01937F722BBFE0D09F8E325F0F312
:10081F00C5F019E338F322F889828A83740193258E
:08082F00F0C5F0F8E493382253
:10083700BB010A89828A83F0E5F0A3F0225006F70C
:0F08470009A7F01922BBFE06F3E5F009F3192209
:10085600F8BB0111E58229F582E5833AF583E8F0D4
:10086600E5F0A3F0225009E92582C8F608A6F02291
:0D087600BBFE09E92582C8F2E5F008F22278
:0E088300C3E49FFFE49EFEE49DFDE49CFC2286
:0C089100ECF0A3EDF0A3EEF0A3EFF022DA
:10089D00A8828583F0D083D0821208B41208B412D6
:1008AD0008B41208B4E473E493A3C583C5F0C583FB
:1008BD00C8C582C8F0A3C583C5F0C583C8C582C8A5
:0108CD002208
:1008CE00F8E0FBA3A3E0F925F0F0E58215827002B3
:0708DE001583E0FA38F02257
:0908E500EBF0A3EAF0A3E9F02214
:1008EE00D083D082F8E4937012740193700DA3A399
:1008FE0093F8740193F5828883E4737402936860AD
:06090E00EFA3A3A380DFAC
:060914008A838982E4736E
:1024E600EFC394094005EF940E4004EFB42003D3E4
:0424F6008001C3227C
:1024D100E4FFFE120605600C0FEF70010E09E970B2
:0524E100F20A80EF2269
:101C5000022245E493A3F8E493A34003F68001F243
:101C600008DFF48029E493A3F85407240CC8C33395
:101C7000C4540F4420C8834004F456800146F6DF64
:101C8000E4800B0102040810204080901753E47E8A
:101C9000019360BCA3FF543F30E509541FFEE49359
:101CA000A360010ECF54C025E060A840B8E493A320
:101CB000FAE493A3F8E493A3C8C582C8CAC583CA4B
:101CC000F0A3C8C582C8CAC583CADFE9DEE780BE03
:01183E0000A9
:10091A00C5F0F8A3E028F0C5F0F8E5821582700268
:06092A001583E038F02205
:00000001FF
